{
	"contracts/Database.sol": {
		"Database": {
			"abi": [
				{
					"inputs": [
						{
							"internalType": "address",
							"name": "_bank",
							"type": "address"
						},
						{
							"internalType": "address",
							"name": "_insurance",
							"type": "address"
						}
					],
					"stateMutability": "nonpayable",
					"type": "constructor"
				},
				{
					"inputs": [
						{
							"internalType": "string",
							"name": "number",
							"type": "string"
						}
					],
					"name": "addDTP",
					"outputs": [],
					"stateMutability": "nonpayable",
					"type": "function"
				},
				{
					"inputs": [
						{
							"internalType": "string",
							"name": "fio",
							"type": "string"
						},
						{
							"internalType": "uint8",
							"name": "exp",
							"type": "uint8"
						},
						{
							"internalType": "uint32",
							"name": "dtpCount",
							"type": "uint32"
						},
						{
							"internalType": "uint32",
							"name": "fineCount",
							"type": "uint32"
						},
						{
							"internalType": "string",
							"name": "login",
							"type": "string"
						},
						{
							"internalType": "string",
							"name": "password",
							"type": "string"
						}
					],
					"name": "addDriver",
					"outputs": [],
					"stateMutability": "nonpayable",
					"type": "function"
				},
				{
					"inputs": [
						{
							"internalType": "string",
							"name": "category",
							"type": "string"
						},
						{
							"internalType": "uint32",
							"name": "cost",
							"type": "uint32"
						},
						{
							"internalType": "uint32",
							"name": "ageCount",
							"type": "uint32"
						}
					],
					"name": "addDriverCar",
					"outputs": [],
					"stateMutability": "nonpayable",
					"type": "function"
				},
				{
					"inputs": [
						{
							"internalType": "string",
							"name": "number",
							"type": "string"
						},
						{
							"internalType": "uint64",
							"name": "validateTime",
							"type": "uint64"
						},
						{
							"internalType": "string",
							"name": "category",
							"type": "string"
						}
					],
					"name": "addDriverDocument",
					"outputs": [],
					"stateMutability": "nonpayable",
					"type": "function"
				},
				{
					"inputs": [
						{
							"internalType": "string",
							"name": "number",
							"type": "string"
						}
					],
					"name": "addFine",
					"outputs": [],
					"stateMutability": "nonpayable",
					"type": "function"
				},
				{
					"inputs": [],
					"name": "bank",
					"outputs": [
						{
							"internalType": "address payable",
							"name": "",
							"type": "address"
						}
					],
					"stateMutability": "view",
					"type": "function"
				},
				{
					"inputs": [
						{
							"internalType": "uint256",
							"name": "amount",
							"type": "uint256"
						}
					],
					"name": "buyInsurance",
					"outputs": [],
					"stateMutability": "nonpayable",
					"type": "function"
				},
				{
					"inputs": [
						{
							"internalType": "address",
							"name": "",
							"type": "address"
						}
					],
					"name": "driverCars",
					"outputs": [
						{
							"internalType": "string",
							"name": "category",
							"type": "string"
						},
						{
							"internalType": "uint32",
							"name": "cost",
							"type": "uint32"
						},
						{
							"internalType": "uint32",
							"name": "ageCount",
							"type": "uint32"
						}
					],
					"stateMutability": "view",
					"type": "function"
				},
				{
					"inputs": [
						{
							"internalType": "string",
							"name": "",
							"type": "string"
						}
					],
					"name": "driverDocNumbers",
					"outputs": [
						{
							"internalType": "address",
							"name": "",
							"type": "address"
						}
					],
					"stateMutability": "view",
					"type": "function"
				},
				{
					"inputs": [
						{
							"internalType": "address",
							"name": "",
							"type": "address"
						},
						{
							"internalType": "uint256",
							"name": "",
							"type": "uint256"
						}
					],
					"name": "driverFines",
					"outputs": [
						{
							"internalType": "uint256",
							"name": "",
							"type": "uint256"
						}
					],
					"stateMutability": "view",
					"type": "function"
				},
				{
					"inputs": [
						{
							"internalType": "address",
							"name": "",
							"type": "address"
						}
					],
					"name": "driverInsurances",
					"outputs": [
						{
							"internalType": "uint256",
							"name": "",
							"type": "uint256"
						}
					],
					"stateMutability": "view",
					"type": "function"
				},
				{
					"inputs": [
						{
							"internalType": "address",
							"name": "",
							"type": "address"
						}
					],
					"name": "drivers",
					"outputs": [
						{
							"internalType": "string",
							"name": "fio",
							"type": "string"
						},
						{
							"components": [
								{
									"internalType": "string",
									"name": "number",
									"type": "string"
								},
								{
									"internalType": "uint64",
									"name": "validateTime",
									"type": "uint64"
								},
								{
									"internalType": "string",
									"name": "category",
									"type": "string"
								}
							],
							"internalType": "struct Document",
							"name": "document",
							"type": "tuple"
						},
						{
							"internalType": "uint8",
							"name": "exp",
							"type": "uint8"
						},
						{
							"internalType": "uint32",
							"name": "dtpCount",
							"type": "uint32"
						}
					],
					"stateMutability": "view",
					"type": "function"
				},
				{
					"inputs": [],
					"name": "insurance",
					"outputs": [
						{
							"internalType": "address payable",
							"name": "",
							"type": "address"
						}
					],
					"stateMutability": "view",
					"type": "function"
				},
				{
					"inputs": [],
					"name": "insuranceLoan",
					"outputs": [
						{
							"internalType": "uint256",
							"name": "",
							"type": "uint256"
						}
					],
					"stateMutability": "view",
					"type": "function"
				},
				{
					"inputs": [
						{
							"internalType": "string",
							"name": "",
							"type": "string"
						}
					],
					"name": "logins",
					"outputs": [
						{
							"internalType": "address",
							"name": "addr",
							"type": "address"
						},
						{
							"internalType": "string",
							"name": "password",
							"type": "string"
						}
					],
					"stateMutability": "view",
					"type": "function"
				},
				{
					"inputs": [],
					"name": "payFine",
					"outputs": [],
					"stateMutability": "payable",
					"type": "function"
				},
				{
					"inputs": [
						{
							"internalType": "address",
							"name": "",
							"type": "address"
						}
					],
					"name": "policeMan",
					"outputs": [
						{
							"internalType": "bool",
							"name": "",
							"type": "bool"
						}
					],
					"stateMutability": "view",
					"type": "function"
				}
			],
			"devdoc": {
				"kind": "dev",
				"methods": {},
				"version": 1
			},
			"evm": {
				"assembly": "    /* \"contracts/Database.sol\":381:3720  contract Database {... */\n  mstore(0x40, 0x80)\n    /* \"contracts/Database.sol\":880:1005  constructor(address _bank,address _insurance) {... */\n  callvalue\n  dup1\n  iszero\n  tag_1\n  jumpi\n  0x00\n  dup1\n  revert\ntag_1:\n  pop\n  mload(0x40)\n  sub(codesize, bytecodeSize)\n  dup1\n  bytecodeSize\n  dup4\n  codecopy\n  dup2\n  dup2\n  add\n  0x40\n  mstore\n  dup2\n  add\n  swap1\n  tag_2\n  swap2\n  swap1\n  tag_3\n  jump\t// in\ntag_2:\n    /* \"contracts/Database.sol\":951:956  _bank */\n  dup2\n    /* \"contracts/Database.sol\":936:940  bank */\n  0x00\n  dup1\n    /* \"contracts/Database.sol\":936:957  bank = payable(_bank) */\n  0x0100\n  exp\n  dup2\n  sload\n  dup2\n  0xffffffffffffffffffffffffffffffffffffffff\n  mul\n  not\n  and\n  swap1\n  dup4\n  0xffffffffffffffffffffffffffffffffffffffff\n  and\n  mul\n  or\n  swap1\n  sstore\n  pop\n    /* \"contracts/Database.sol\":987:997  _insurance */\n  dup1\n    /* \"contracts/Database.sol\":967:976  insurance */\n  0x01\n  0x00\n    /* \"contracts/Database.sol\":967:998  insurance = payable(_insurance) */\n  0x0100\n  exp\n  dup2\n  sload\n  dup2\n  0xffffffffffffffffffffffffffffffffffffffff\n  mul\n  not\n  and\n  swap1\n  dup4\n  0xffffffffffffffffffffffffffffffffffffffff\n  and\n  mul\n  or\n  swap1\n  sstore\n  pop\n    /* \"contracts/Database.sol\":880:1005  constructor(address _bank,address _insurance) {... */\n  pop\n  pop\n    /* \"contracts/Database.sol\":381:3720  contract Database {... */\n  jump(tag_6)\n    /* \"#utility.yul\":7:150   */\ntag_8:\n    /* \"#utility.yul\":64:69   */\n  0x00\n    /* \"#utility.yul\":95:101   */\n  dup2\n    /* \"#utility.yul\":89:102   */\n  mload\n    /* \"#utility.yul\":80:102   */\n  swap1\n  pop\n    /* \"#utility.yul\":111:144   */\n  tag_10\n    /* \"#utility.yul\":138:143   */\n  dup2\n    /* \"#utility.yul\":111:144   */\n  tag_11\n  jump\t// in\ntag_10:\n    /* \"#utility.yul\":7:150   */\n  swap3\n  swap2\n  pop\n  pop\n  jump\t// out\n    /* \"#utility.yul\":156:663   */\ntag_3:\n    /* \"#utility.yul\":235:241   */\n  0x00\n    /* \"#utility.yul\":243:249   */\n  dup1\n    /* \"#utility.yul\":292:294   */\n  0x40\n    /* \"#utility.yul\":280:289   */\n  dup4\n    /* \"#utility.yul\":271:278   */\n  dup6\n    /* \"#utility.yul\":267:290   */\n  sub\n    /* \"#utility.yul\":263:295   */\n  slt\n    /* \"#utility.yul\":260:379   */\n  iszero\n  tag_13\n  jumpi\n    /* \"#utility.yul\":298:377   */\n  tag_14\n  tag_15\n  jump\t// in\ntag_14:\n    /* \"#utility.yul\":260:379   */\ntag_13:\n    /* \"#utility.yul\":418:419   */\n  0x00\n    /* \"#utility.yul\":443:507   */\n  tag_16\n    /* \"#utility.yul\":499:506   */\n  dup6\n    /* \"#utility.yul\":490:496   */\n  dup3\n    /* \"#utility.yul\":479:488   */\n  dup7\n    /* \"#utility.yul\":475:497   */\n  add\n    /* \"#utility.yul\":443:507   */\n  tag_8\n  jump\t// in\ntag_16:\n    /* \"#utility.yul\":433:507   */\n  swap3\n  pop\n    /* \"#utility.yul\":389:517   */\n  pop\n    /* \"#utility.yul\":556:558   */\n  0x20\n    /* \"#utility.yul\":582:646   */\n  tag_17\n    /* \"#utility.yul\":638:645   */\n  dup6\n    /* \"#utility.yul\":629:635   */\n  dup3\n    /* \"#utility.yul\":618:627   */\n  dup7\n    /* \"#utility.yul\":614:636   */\n  add\n    /* \"#utility.yul\":582:646   */\n  tag_8\n  jump\t// in\ntag_17:\n    /* \"#utility.yul\":572:646   */\n  swap2\n  pop\n    /* \"#utility.yul\":527:656   */\n  pop\n    /* \"#utility.yul\":156:663   */\n  swap3\n  pop\n  swap3\n  swap1\n  pop\n  jump\t// out\n    /* \"#utility.yul\":750:846   */\ntag_20:\n    /* \"#utility.yul\":787:794   */\n  0x00\n    /* \"#utility.yul\":816:840   */\n  tag_22\n    /* \"#utility.yul\":834:839   */\n  dup3\n    /* \"#utility.yul\":816:840   */\n  tag_23\n  jump\t// in\ntag_22:\n    /* \"#utility.yul\":805:840   */\n  swap1\n  pop\n    /* \"#utility.yul\":750:846   */\n  swap2\n  swap1\n  pop\n  jump\t// out\n    /* \"#utility.yul\":852:978   */\ntag_23:\n    /* \"#utility.yul\":889:896   */\n  0x00\n    /* \"#utility.yul\":929:971   */\n  0xffffffffffffffffffffffffffffffffffffffff\n    /* \"#utility.yul\":922:927   */\n  dup3\n    /* \"#utility.yul\":918:972   */\n  and\n    /* \"#utility.yul\":907:972   */\n  swap1\n  pop\n    /* \"#utility.yul\":852:978   */\n  swap2\n  swap1\n  pop\n  jump\t// out\n    /* \"#utility.yul\":1107:1224   */\ntag_15:\n    /* \"#utility.yul\":1216:1217   */\n  0x00\n    /* \"#utility.yul\":1213:1214   */\n  dup1\n    /* \"#utility.yul\":1206:1218   */\n  revert\n    /* \"#utility.yul\":1230:1352   */\ntag_11:\n    /* \"#utility.yul\":1303:1327   */\n  tag_29\n    /* \"#utility.yul\":1321:1326   */\n  dup2\n    /* \"#utility.yul\":1303:1327   */\n  tag_20\n  jump\t// in\ntag_29:\n    /* \"#utility.yul\":1296:1301   */\n  dup2\n    /* \"#utility.yul\":1293:1328   */\n  eq\n    /* \"#utility.yul\":1283:1346   */\n  tag_30\n  jumpi\n    /* \"#utility.yul\":1342:1343   */\n  0x00\n    /* \"#utility.yul\":1339:1340   */\n  dup1\n    /* \"#utility.yul\":1332:1344   */\n  revert\n    /* \"#utility.yul\":1283:1346   */\ntag_30:\n    /* \"#utility.yul\":1230:1352   */\n  pop\n  jump\t// out\n    /* \"contracts/Database.sol\":381:3720  contract Database {... */\ntag_6:\n  dataSize(sub_0)\n  dup1\n  dataOffset(sub_0)\n  0x00\n  codecopy\n  0x00\n  return\nstop\n\nsub_0: assembly {\n        /* \"contracts/Database.sol\":381:3720  contract Database {... */\n      mstore(0x40, 0x80)\n      jumpi(tag_1, lt(calldatasize, 0x04))\n      shr(0xe0, calldataload(0x00))\n      dup1\n      0x955f0766\n      gt\n      tag_19\n      jumpi\n      dup1\n      0xc8507e29\n      gt\n      tag_20\n      jumpi\n      dup1\n      0xc8507e29\n      eq\n      tag_14\n      jumpi\n      dup1\n      0xd0bf012c\n      eq\n      tag_15\n      jumpi\n      dup1\n      0xf27b9fb4\n      eq\n      tag_16\n      jumpi\n      dup1\n      0xfeb6eae9\n      eq\n      tag_17\n      jumpi\n      dup1\n      0xffd57d44\n      eq\n      tag_18\n      jumpi\n      jump(tag_1)\n    tag_20:\n      dup1\n      0x955f0766\n      eq\n      tag_10\n      jumpi\n      dup1\n      0xa86a658c\n      eq\n      tag_11\n      jumpi\n      dup1\n      0xb8ebab86\n      eq\n      tag_12\n      jumpi\n      dup1\n      0xbf5fb249\n      eq\n      tag_13\n      jumpi\n      jump(tag_1)\n    tag_19:\n      dup1\n      0x73373d31\n      gt\n      tag_21\n      jumpi\n      dup1\n      0x73373d31\n      eq\n      tag_6\n      jumpi\n      dup1\n      0x76cdb03b\n      eq\n      tag_7\n      jumpi\n      dup1\n      0x81dbc87a\n      eq\n      tag_8\n      jumpi\n      dup1\n      0x89cf3204\n      eq\n      tag_9\n      jumpi\n      jump(tag_1)\n    tag_21:\n      dup1\n      0x0a858e90\n      eq\n      tag_2\n      jumpi\n      dup1\n      0x141c10a5\n      eq\n      tag_3\n      jumpi\n      dup1\n      0x4aa60186\n      eq\n      tag_4\n      jumpi\n      dup1\n      0x6d531e83\n      eq\n      tag_5\n      jumpi\n    tag_1:\n      0x00\n      dup1\n      revert\n        /* \"contracts/Database.sol\":1011:1648  function addDriver(... */\n    tag_2:\n      callvalue\n      dup1\n      iszero\n      tag_22\n      jumpi\n      0x00\n      dup1\n      revert\n    tag_22:\n      pop\n      tag_23\n      0x04\n      dup1\n      calldatasize\n      sub\n      dup2\n      add\n      swap1\n      tag_24\n      swap2\n      swap1\n      tag_25\n      jump\t// in\n    tag_24:\n      tag_26\n      jump\t// in\n    tag_23:\n      stop\n        /* \"contracts/Database.sol\":1872:2186  function addDriverDocument(string memory number,uint64 validateTime,string memory category) public {... */\n    tag_3:\n      callvalue\n      dup1\n      iszero\n      tag_27\n      jumpi\n      0x00\n      dup1\n      revert\n    tag_27:\n      pop\n      tag_28\n      0x04\n      dup1\n      calldatasize\n      sub\n      dup2\n      add\n      swap1\n      tag_29\n      swap2\n      swap1\n      tag_30\n      jump\t// in\n    tag_29:\n      tag_31\n      jump\t// in\n    tag_28:\n      stop\n        /* \"contracts/Database.sol\":590:631  mapping(address => Driver) public drivers */\n    tag_4:\n      callvalue\n      dup1\n      iszero\n      tag_32\n      jumpi\n      0x00\n      dup1\n      revert\n    tag_32:\n      pop\n      tag_33\n      0x04\n      dup1\n      calldatasize\n      sub\n      dup2\n      add\n      swap1\n      tag_34\n      swap2\n      swap1\n      tag_35\n      jump\t// in\n    tag_34:\n      tag_36\n      jump\t// in\n    tag_33:\n      mload(0x40)\n      tag_37\n      swap5\n      swap4\n      swap3\n      swap2\n      swap1\n      tag_38\n      jump\t// in\n    tag_37:\n      mload(0x40)\n      dup1\n      swap2\n      sub\n      swap1\n      return\n        /* \"contracts/Database.sol\":2192:2578  function payFine() public payable{... */\n    tag_5:\n      tag_39\n      tag_40\n      jump\t// in\n    tag_39:\n      stop\n        /* \"contracts/Database.sol\":479:521  mapping(string => LoginData) public logins */\n    tag_6:\n      callvalue\n      dup1\n      iszero\n      tag_41\n      jumpi\n      0x00\n      dup1\n      revert\n    tag_41:\n      pop\n      tag_42\n      0x04\n      dup1\n      calldatasize\n      sub\n      dup2\n      add\n      swap1\n      tag_43\n      swap2\n      swap1\n      tag_44\n      jump\t// in\n    tag_43:\n      tag_45\n      jump\t// in\n    tag_42:\n      mload(0x40)\n      tag_46\n      swap3\n      swap2\n      swap1\n      tag_47\n      jump\t// in\n    tag_46:\n      mload(0x40)\n      dup1\n      swap2\n      sub\n      swap1\n      return\n        /* \"contracts/Database.sol\":406:433  address payable public bank */\n    tag_7:\n      callvalue\n      dup1\n      iszero\n      tag_48\n      jumpi\n      0x00\n      dup1\n      revert\n    tag_48:\n      pop\n      tag_49\n      tag_50\n      jump\t// in\n    tag_49:\n      mload(0x40)\n      tag_51\n      swap2\n      swap1\n      tag_52\n      jump\t// in\n    tag_51:\n      mload(0x40)\n      dup1\n      swap2\n      sub\n      swap1\n      return\n        /* \"contracts/Database.sol\":2584:2778  function addFine(string memory number) public {... */\n    tag_8:\n      callvalue\n      dup1\n      iszero\n      tag_53\n      jumpi\n      0x00\n      dup1\n      revert\n    tag_53:\n      pop\n      tag_54\n      0x04\n      dup1\n      calldatasize\n      sub\n      dup2\n      add\n      swap1\n      tag_55\n      swap2\n      swap1\n      tag_44\n      jump\t// in\n    tag_55:\n      tag_56\n      jump\t// in\n    tag_54:\n      stop\n        /* \"contracts/Database.sol\":440:472  address payable public insurance */\n    tag_9:\n      callvalue\n      dup1\n      iszero\n      tag_57\n      jumpi\n      0x00\n      dup1\n      revert\n    tag_57:\n      pop\n      tag_58\n      tag_59\n      jump\t// in\n    tag_58:\n      mload(0x40)\n      tag_60\n      swap2\n      swap1\n      tag_52\n      jump\t// in\n    tag_60:\n      mload(0x40)\n      dup1\n      swap2\n      sub\n      swap1\n      return\n        /* \"contracts/Database.sol\":686:727  mapping(address => bool) public policeMan */\n    tag_10:\n      callvalue\n      dup1\n      iszero\n      tag_61\n      jumpi\n      0x00\n      dup1\n      revert\n    tag_61:\n      pop\n      tag_62\n      0x04\n      dup1\n      calldatasize\n      sub\n      dup2\n      add\n      swap1\n      tag_63\n      swap2\n      swap1\n      tag_35\n      jump\t// in\n    tag_63:\n      tag_64\n      jump\t// in\n    tag_62:\n      mload(0x40)\n      tag_65\n      swap2\n      swap1\n      tag_66\n      jump\t// in\n    tag_65:\n      mload(0x40)\n      dup1\n      swap2\n      sub\n      swap1\n      return\n        /* \"contracts/Database.sol\":2784:3528  function buyInsurance(uint amount) public {... */\n    tag_11:\n      callvalue\n      dup1\n      iszero\n      tag_67\n      jumpi\n      0x00\n      dup1\n      revert\n    tag_67:\n      pop\n      tag_68\n      0x04\n      dup1\n      calldatasize\n      sub\n      dup2\n      add\n      swap1\n      tag_69\n      swap2\n      swap1\n      tag_70\n      jump\t// in\n    tag_69:\n      tag_71\n      jump\t// in\n    tag_68:\n      stop\n        /* \"contracts/Database.sol\":734:779  mapping(address => uint[]) public driverFines */\n    tag_12:\n      callvalue\n      dup1\n      iszero\n      tag_72\n      jumpi\n      0x00\n      dup1\n      revert\n    tag_72:\n      pop\n      tag_73\n      0x04\n      dup1\n      calldatasize\n      sub\n      dup2\n      add\n      swap1\n      tag_74\n      swap2\n      swap1\n      tag_75\n      jump\t// in\n    tag_74:\n      tag_76\n      jump\t// in\n    tag_73:\n      mload(0x40)\n      tag_77\n      swap2\n      swap1\n      tag_78\n      jump\t// in\n    tag_77:\n      mload(0x40)\n      dup1\n      swap2\n      sub\n      swap1\n      return\n        /* \"contracts/Database.sol\":841:866  uint public insuranceLoan */\n    tag_13:\n      callvalue\n      dup1\n      iszero\n      tag_79\n      jumpi\n      0x00\n      dup1\n      revert\n    tag_79:\n      pop\n      tag_80\n      tag_81\n      jump\t// in\n    tag_80:\n      mload(0x40)\n      tag_82\n      swap2\n      swap1\n      tag_78\n      jump\t// in\n    tag_82:\n      mload(0x40)\n      dup1\n      swap2\n      sub\n      swap1\n      return\n        /* \"contracts/Database.sol\":3534:3715  function addDTP(string memory number) public {... */\n    tag_14:\n      callvalue\n      dup1\n      iszero\n      tag_83\n      jumpi\n      0x00\n      dup1\n      revert\n    tag_83:\n      pop\n      tag_84\n      0x04\n      dup1\n      calldatasize\n      sub\n      dup2\n      add\n      swap1\n      tag_85\n      swap2\n      swap1\n      tag_44\n      jump\t// in\n    tag_85:\n      tag_86\n      jump\t// in\n    tag_84:\n      stop\n        /* \"contracts/Database.sol\":1654:1866  function addDriverCar(string memory category, uint32 cost,uint32 ageCount) public {... */\n    tag_15:\n      callvalue\n      dup1\n      iszero\n      tag_87\n      jumpi\n      0x00\n      dup1\n      revert\n    tag_87:\n      pop\n      tag_88\n      0x04\n      dup1\n      calldatasize\n      sub\n      dup2\n      add\n      swap1\n      tag_89\n      swap2\n      swap1\n      tag_90\n      jump\t// in\n    tag_89:\n      tag_91\n      jump\t// in\n    tag_88:\n      stop\n        /* \"contracts/Database.sol\":638:679  mapping(address => Car) public driverCars */\n    tag_16:\n      callvalue\n      dup1\n      iszero\n      tag_92\n      jumpi\n      0x00\n      dup1\n      revert\n    tag_92:\n      pop\n      tag_93\n      0x04\n      dup1\n      calldatasize\n      sub\n      dup2\n      add\n      swap1\n      tag_94\n      swap2\n      swap1\n      tag_35\n      jump\t// in\n    tag_94:\n      tag_95\n      jump\t// in\n    tag_93:\n      mload(0x40)\n      tag_96\n      swap4\n      swap3\n      swap2\n      swap1\n      tag_97\n      jump\t// in\n    tag_96:\n      mload(0x40)\n      dup1\n      swap2\n      sub\n      swap1\n      return\n        /* \"contracts/Database.sol\":528:578  mapping(string => address) public driverDocNumbers */\n    tag_17:\n      callvalue\n      dup1\n      iszero\n      tag_98\n      jumpi\n      0x00\n      dup1\n      revert\n    tag_98:\n      pop\n      tag_99\n      0x04\n      dup1\n      calldatasize\n      sub\n      dup2\n      add\n      swap1\n      tag_100\n      swap2\n      swap1\n      tag_44\n      jump\t// in\n    tag_100:\n      tag_101\n      jump\t// in\n    tag_99:\n      mload(0x40)\n      tag_102\n      swap2\n      swap1\n      tag_103\n      jump\t// in\n    tag_102:\n      mload(0x40)\n      dup1\n      swap2\n      sub\n      swap1\n      return\n        /* \"contracts/Database.sol\":786:834  mapping(address => uint) public driverInsurances */\n    tag_18:\n      callvalue\n      dup1\n      iszero\n      tag_104\n      jumpi\n      0x00\n      dup1\n      revert\n    tag_104:\n      pop\n      tag_105\n      0x04\n      dup1\n      calldatasize\n      sub\n      dup2\n      add\n      swap1\n      tag_106\n      swap2\n      swap1\n      tag_35\n      jump\t// in\n    tag_106:\n      tag_107\n      jump\t// in\n    tag_105:\n      mload(0x40)\n      tag_108\n      swap2\n      swap1\n      tag_78\n      jump\t// in\n    tag_108:\n      mload(0x40)\n      dup1\n      swap2\n      sub\n      swap1\n      return\n        /* \"contracts/Database.sol\":1011:1648  function addDriver(... */\n    tag_26:\n        /* \"contracts/Database.sol\":1211:1238  Document memory newDocument */\n      0x00\n        /* \"contracts/Database.sol\":1241:1258  Document(\"\",0,\"\") */\n      mload(0x40)\n      dup1\n      0x60\n      add\n      0x40\n      mstore\n      dup1\n      mload(0x40)\n      dup1\n      0x20\n      add\n      0x40\n      mstore\n      dup1\n      0x00\n      dup2\n      mstore\n      pop\n      dup2\n      mstore\n      0x20\n      add\n        /* \"contracts/Database.sol\":1253:1254  0 */\n      0x00\n        /* \"contracts/Database.sol\":1241:1258  Document(\"\",0,\"\") */\n      0xffffffffffffffff\n      and\n      dup2\n      mstore\n      0x20\n      add\n      mload(0x40)\n      dup1\n      0x20\n      add\n      0x40\n      mstore\n      dup1\n      0x00\n      dup2\n      mstore\n      pop\n      dup2\n      mstore\n      pop\n        /* \"contracts/Database.sol\":1211:1258  Document memory newDocument = Document(\"\",0,\"\") */\n      swap1\n      pop\n        /* \"contracts/Database.sol\":1268:1297  LoginData memory newLoginData */\n      0x00\n        /* \"contracts/Database.sol\":1300:1346  LoginData({addr:msg.sender,password:password}) */\n      mload(0x40)\n      dup1\n      0x40\n      add\n      0x40\n      mstore\n      dup1\n        /* \"contracts/Database.sol\":1316:1326  msg.sender */\n      caller\n        /* \"contracts/Database.sol\":1300:1346  LoginData({addr:msg.sender,password:password}) */\n      0xffffffffffffffffffffffffffffffffffffffff\n      and\n      dup2\n      mstore\n      0x20\n      add\n        /* \"contracts/Database.sol\":1336:1344  password */\n      dup5\n        /* \"contracts/Database.sol\":1300:1346  LoginData({addr:msg.sender,password:password}) */\n      dup2\n      mstore\n      pop\n        /* \"contracts/Database.sol\":1268:1346  LoginData memory newLoginData = LoginData({addr:msg.sender,password:password}) */\n      swap1\n      pop\n        /* \"contracts/Database.sol\":1356:1379  Driver memory newDriver */\n      0x00\n        /* \"contracts/Database.sol\":1382:1446  Driver({fio:fio,exp:exp,dtpCount:dtpCount,document:newDocument}) */\n      mload(0x40)\n      dup1\n      0x80\n      add\n      0x40\n      mstore\n      dup1\n        /* \"contracts/Database.sol\":1394:1397  fio */\n      dup11\n        /* \"contracts/Database.sol\":1382:1446  Driver({fio:fio,exp:exp,dtpCount:dtpCount,document:newDocument}) */\n      dup2\n      mstore\n      0x20\n      add\n        /* \"contracts/Database.sol\":1433:1444  newDocument */\n      dup5\n        /* \"contracts/Database.sol\":1382:1446  Driver({fio:fio,exp:exp,dtpCount:dtpCount,document:newDocument}) */\n      dup2\n      mstore\n      0x20\n      add\n        /* \"contracts/Database.sol\":1402:1405  exp */\n      dup10\n        /* \"contracts/Database.sol\":1382:1446  Driver({fio:fio,exp:exp,dtpCount:dtpCount,document:newDocument}) */\n      0xff\n      and\n      dup2\n      mstore\n      0x20\n      add\n        /* \"contracts/Database.sol\":1415:1423  dtpCount */\n      dup9\n        /* \"contracts/Database.sol\":1382:1446  Driver({fio:fio,exp:exp,dtpCount:dtpCount,document:newDocument}) */\n      0xffffffff\n      and\n      dup2\n      mstore\n      pop\n        /* \"contracts/Database.sol\":1356:1446  Driver memory newDriver = Driver({fio:fio,exp:exp,dtpCount:dtpCount,document:newDocument}) */\n      swap1\n      pop\n        /* \"contracts/Database.sol\":1478:1487  newDriver */\n      dup1\n        /* \"contracts/Database.sol\":1456:1463  drivers */\n      0x04\n        /* \"contracts/Database.sol\":1456:1475  drivers[msg.sender] */\n      0x00\n        /* \"contracts/Database.sol\":1464:1474  msg.sender */\n      caller\n        /* \"contracts/Database.sol\":1456:1475  drivers[msg.sender] */\n      0xffffffffffffffffffffffffffffffffffffffff\n      and\n      0xffffffffffffffffffffffffffffffffffffffff\n      and\n      dup2\n      mstore\n      0x20\n      add\n      swap1\n      dup2\n      mstore\n      0x20\n      add\n      0x00\n      keccak256\n        /* \"contracts/Database.sol\":1456:1487  drivers[msg.sender] = newDriver */\n      0x00\n      dup3\n      add\n      mload\n      dup2\n      0x00\n      add\n      swap1\n      dup1\n      mload\n      swap1\n      0x20\n      add\n      swap1\n      tag_110\n      swap3\n      swap2\n      swap1\n      tag_111\n      jump\t// in\n    tag_110:\n      pop\n      0x20\n      dup3\n      add\n      mload\n      dup2\n      0x01\n      add\n      0x00\n      dup3\n      add\n      mload\n      dup2\n      0x00\n      add\n      swap1\n      dup1\n      mload\n      swap1\n      0x20\n      add\n      swap1\n      tag_112\n      swap3\n      swap2\n      swap1\n      tag_111\n      jump\t// in\n    tag_112:\n      pop\n      0x20\n      dup3\n      add\n      mload\n      dup2\n      0x01\n      add\n      exp(0x0100, 0x00)\n      dup2\n      sload\n      dup2\n      0xffffffffffffffff\n      mul\n      not\n      and\n      swap1\n      dup4\n      0xffffffffffffffff\n      and\n      mul\n      or\n      swap1\n      sstore\n      pop\n      0x40\n      dup3\n      add\n      mload\n      dup2\n      0x02\n      add\n      swap1\n      dup1\n      mload\n      swap1\n      0x20\n      add\n      swap1\n      tag_113\n      swap3\n      swap2\n      swap1\n      tag_111\n      jump\t// in\n    tag_113:\n      pop\n      pop\n      pop\n      0x40\n      dup3\n      add\n      mload\n      dup2\n      0x04\n      add\n      exp(0x0100, 0x00)\n      dup2\n      sload\n      dup2\n      0xff\n      mul\n      not\n      and\n      swap1\n      dup4\n      0xff\n      and\n      mul\n      or\n      swap1\n      sstore\n      pop\n      0x60\n      dup3\n      add\n      mload\n      dup2\n      0x04\n      add\n      exp(0x0100, 0x01)\n      dup2\n      sload\n      dup2\n      0xffffffff\n      mul\n      not\n      and\n      swap1\n      dup4\n      0xffffffff\n      and\n      mul\n      or\n      swap1\n      sstore\n      pop\n      swap1\n      pop\n      pop\n        /* \"contracts/Database.sol\":1513:1525  newLoginData */\n      dup2\n        /* \"contracts/Database.sol\":1497:1503  logins */\n      0x02\n        /* \"contracts/Database.sol\":1504:1509  login */\n      dup7\n        /* \"contracts/Database.sol\":1497:1510  logins[login] */\n      mload(0x40)\n      tag_114\n      swap2\n      swap1\n      tag_115\n      jump\t// in\n    tag_114:\n      swap1\n      dup2\n      mstore\n      0x20\n      add\n      mload(0x40)\n      dup1\n      swap2\n      sub\n      swap1\n      keccak256\n        /* \"contracts/Database.sol\":1497:1525  logins[login] = newLoginData */\n      0x00\n      dup3\n      add\n      mload\n      dup2\n      0x00\n      add\n      exp(0x0100, 0x00)\n      dup2\n      sload\n      dup2\n      0xffffffffffffffffffffffffffffffffffffffff\n      mul\n      not\n      and\n      swap1\n      dup4\n      0xffffffffffffffffffffffffffffffffffffffff\n      and\n      mul\n      or\n      swap1\n      sstore\n      pop\n      0x20\n      dup3\n      add\n      mload\n      dup2\n      0x01\n      add\n      swap1\n      dup1\n      mload\n      swap1\n      0x20\n      add\n      swap1\n      tag_116\n      swap3\n      swap2\n      swap1\n      tag_111\n      jump\t// in\n    tag_116:\n      pop\n      swap1\n      pop\n      pop\n        /* \"contracts/Database.sol\":1541:1547  uint i */\n      0x00\n        /* \"contracts/Database.sol\":1536:1642  for (uint i = 0; i < fineCount; i++){... */\n    tag_117:\n        /* \"contracts/Database.sol\":1557:1566  fineCount */\n      dup7\n        /* \"contracts/Database.sol\":1553:1566  i < fineCount */\n      0xffffffff\n      and\n        /* \"contracts/Database.sol\":1553:1554  i */\n      dup2\n        /* \"contracts/Database.sol\":1553:1566  i < fineCount */\n      lt\n        /* \"contracts/Database.sol\":1536:1642  for (uint i = 0; i < fineCount; i++){... */\n      iszero\n      tag_118\n      jumpi\n        /* \"contracts/Database.sol\":1586:1597  driverFines */\n      0x07\n        /* \"contracts/Database.sol\":1586:1609  driverFines[msg.sender] */\n      0x00\n        /* \"contracts/Database.sol\":1598:1608  msg.sender */\n      caller\n        /* \"contracts/Database.sol\":1586:1609  driverFines[msg.sender] */\n      0xffffffffffffffffffffffffffffffffffffffff\n      and\n      0xffffffffffffffffffffffffffffffffffffffff\n      and\n      dup2\n      mstore\n      0x20\n      add\n      swap1\n      dup2\n      mstore\n      0x20\n      add\n      0x00\n      keccak256\n        /* \"contracts/Database.sol\":1615:1630  block.timestamp */\n      timestamp\n        /* \"contracts/Database.sol\":1586:1631  driverFines[msg.sender].push(block.timestamp) */\n      swap1\n      dup1\n      0x01\n      dup2\n      sload\n      add\n      dup1\n      dup3\n      sstore\n      dup1\n      swap2\n      pop\n      pop\n      0x01\n      swap1\n      sub\n      swap1\n      0x00\n      mstore\n      keccak256(0x00, 0x20)\n      add\n      0x00\n      swap1\n      swap2\n      swap1\n      swap2\n      swap1\n      swap2\n      pop\n      sstore\n        /* \"contracts/Database.sol\":1568:1571  i++ */\n      dup1\n      dup1\n      tag_121\n      swap1\n      tag_122\n      jump\t// in\n    tag_121:\n      swap2\n      pop\n      pop\n        /* \"contracts/Database.sol\":1536:1642  for (uint i = 0; i < fineCount; i++){... */\n      jump(tag_117)\n    tag_118:\n      pop\n        /* \"contracts/Database.sol\":1201:1648  {... */\n      pop\n      pop\n      pop\n        /* \"contracts/Database.sol\":1011:1648  function addDriver(... */\n      pop\n      pop\n      pop\n      pop\n      pop\n      pop\n      jump\t// out\n        /* \"contracts/Database.sol\":1872:2186  function addDriverDocument(string memory number,uint64 validateTime,string memory category) public {... */\n    tag_31:\n        /* \"contracts/Database.sol\":1981:2008  Document memory newDocument */\n      0x00\n        /* \"contracts/Database.sol\":2011:2080  Document({number:number,validateTime:validateTime,category:category}) */\n      mload(0x40)\n      dup1\n      0x60\n      add\n      0x40\n      mstore\n      dup1\n        /* \"contracts/Database.sol\":2028:2034  number */\n      dup6\n        /* \"contracts/Database.sol\":2011:2080  Document({number:number,validateTime:validateTime,category:category}) */\n      dup2\n      mstore\n      0x20\n      add\n        /* \"contracts/Database.sol\":2048:2060  validateTime */\n      dup5\n        /* \"contracts/Database.sol\":2011:2080  Document({number:number,validateTime:validateTime,category:category}) */\n      0xffffffffffffffff\n      and\n      dup2\n      mstore\n      0x20\n      add\n        /* \"contracts/Database.sol\":2070:2078  category */\n      dup4\n        /* \"contracts/Database.sol\":2011:2080  Document({number:number,validateTime:validateTime,category:category}) */\n      dup2\n      mstore\n      pop\n        /* \"contracts/Database.sol\":1981:2080  Document memory newDocument = Document({number:number,validateTime:validateTime,category:category}) */\n      swap1\n      pop\n        /* \"contracts/Database.sol\":2117:2127  msg.sender */\n      caller\n        /* \"contracts/Database.sol\":2090:2106  driverDocNumbers */\n      0x03\n        /* \"contracts/Database.sol\":2107:2113  number */\n      dup6\n        /* \"contracts/Database.sol\":2090:2114  driverDocNumbers[number] */\n      mload(0x40)\n      tag_124\n      swap2\n      swap1\n      tag_115\n      jump\t// in\n    tag_124:\n      swap1\n      dup2\n      mstore\n      0x20\n      add\n      mload(0x40)\n      dup1\n      swap2\n      sub\n      swap1\n      keccak256\n      0x00\n        /* \"contracts/Database.sol\":2090:2127  driverDocNumbers[number] = msg.sender */\n      0x0100\n      exp\n      dup2\n      sload\n      dup2\n      0xffffffffffffffffffffffffffffffffffffffff\n      mul\n      not\n      and\n      swap1\n      dup4\n      0xffffffffffffffffffffffffffffffffffffffff\n      and\n      mul\n      or\n      swap1\n      sstore\n      pop\n        /* \"contracts/Database.sol\":2168:2179  newDocument */\n      dup1\n        /* \"contracts/Database.sol\":2137:2144  drivers */\n      0x04\n        /* \"contracts/Database.sol\":2137:2156  drivers[msg.sender] */\n      0x00\n        /* \"contracts/Database.sol\":2145:2155  msg.sender */\n      caller\n        /* \"contracts/Database.sol\":2137:2156  drivers[msg.sender] */\n      0xffffffffffffffffffffffffffffffffffffffff\n      and\n      0xffffffffffffffffffffffffffffffffffffffff\n      and\n      dup2\n      mstore\n      0x20\n      add\n      swap1\n      dup2\n      mstore\n      0x20\n      add\n      0x00\n      keccak256\n        /* \"contracts/Database.sol\":2137:2165  drivers[msg.sender].document */\n      0x01\n      add\n        /* \"contracts/Database.sol\":2137:2179  drivers[msg.sender].document = newDocument */\n      0x00\n      dup3\n      add\n      mload\n      dup2\n      0x00\n      add\n      swap1\n      dup1\n      mload\n      swap1\n      0x20\n      add\n      swap1\n      tag_125\n      swap3\n      swap2\n      swap1\n      tag_111\n      jump\t// in\n    tag_125:\n      pop\n      0x20\n      dup3\n      add\n      mload\n      dup2\n      0x01\n      add\n      exp(0x0100, 0x00)\n      dup2\n      sload\n      dup2\n      0xffffffffffffffff\n      mul\n      not\n      and\n      swap1\n      dup4\n      0xffffffffffffffff\n      and\n      mul\n      or\n      swap1\n      sstore\n      pop\n      0x40\n      dup3\n      add\n      mload\n      dup2\n      0x02\n      add\n      swap1\n      dup1\n      mload\n      swap1\n      0x20\n      add\n      swap1\n      tag_126\n      swap3\n      swap2\n      swap1\n      tag_111\n      jump\t// in\n    tag_126:\n      pop\n      swap1\n      pop\n      pop\n        /* \"contracts/Database.sol\":1971:2186  {... */\n      pop\n        /* \"contracts/Database.sol\":1872:2186  function addDriverDocument(string memory number,uint64 validateTime,string memory category) public {... */\n      pop\n      pop\n      pop\n      jump\t// out\n        /* \"contracts/Database.sol\":590:631  mapping(address => Driver) public drivers */\n    tag_36:\n      mstore(0x20, 0x04)\n      dup1\n      0x00\n      mstore\n      keccak256(0x00, 0x40)\n      0x00\n      swap2\n      pop\n      swap1\n      pop\n      dup1\n      0x00\n      add\n      dup1\n      sload\n      tag_127\n      swap1\n      tag_128\n      jump\t// in\n    tag_127:\n      dup1\n      0x1f\n      add\n      0x20\n      dup1\n      swap2\n      div\n      mul\n      0x20\n      add\n      mload(0x40)\n      swap1\n      dup2\n      add\n      0x40\n      mstore\n      dup1\n      swap3\n      swap2\n      swap1\n      dup2\n      dup2\n      mstore\n      0x20\n      add\n      dup3\n      dup1\n      sload\n      tag_129\n      swap1\n      tag_128\n      jump\t// in\n    tag_129:\n      dup1\n      iszero\n      tag_130\n      jumpi\n      dup1\n      0x1f\n      lt\n      tag_131\n      jumpi\n      0x0100\n      dup1\n      dup4\n      sload\n      div\n      mul\n      dup4\n      mstore\n      swap2\n      0x20\n      add\n      swap2\n      jump(tag_130)\n    tag_131:\n      dup3\n      add\n      swap2\n      swap1\n      0x00\n      mstore\n      keccak256(0x00, 0x20)\n      swap1\n    tag_132:\n      dup2\n      sload\n      dup2\n      mstore\n      swap1\n      0x01\n      add\n      swap1\n      0x20\n      add\n      dup1\n      dup4\n      gt\n      tag_132\n      jumpi\n      dup3\n      swap1\n      sub\n      0x1f\n      and\n      dup3\n      add\n      swap2\n    tag_130:\n      pop\n      pop\n      pop\n      pop\n      pop\n      swap1\n      dup1\n      0x01\n      add\n      mload(0x40)\n      dup1\n      0x60\n      add\n      0x40\n      mstore\n      swap1\n      dup2\n      0x00\n      dup3\n      add\n      dup1\n      sload\n      tag_133\n      swap1\n      tag_128\n      jump\t// in\n    tag_133:\n      dup1\n      0x1f\n      add\n      0x20\n      dup1\n      swap2\n      div\n      mul\n      0x20\n      add\n      mload(0x40)\n      swap1\n      dup2\n      add\n      0x40\n      mstore\n      dup1\n      swap3\n      swap2\n      swap1\n      dup2\n      dup2\n      mstore\n      0x20\n      add\n      dup3\n      dup1\n      sload\n      tag_134\n      swap1\n      tag_128\n      jump\t// in\n    tag_134:\n      dup1\n      iszero\n      tag_135\n      jumpi\n      dup1\n      0x1f\n      lt\n      tag_136\n      jumpi\n      0x0100\n      dup1\n      dup4\n      sload\n      div\n      mul\n      dup4\n      mstore\n      swap2\n      0x20\n      add\n      swap2\n      jump(tag_135)\n    tag_136:\n      dup3\n      add\n      swap2\n      swap1\n      0x00\n      mstore\n      keccak256(0x00, 0x20)\n      swap1\n    tag_137:\n      dup2\n      sload\n      dup2\n      mstore\n      swap1\n      0x01\n      add\n      swap1\n      0x20\n      add\n      dup1\n      dup4\n      gt\n      tag_137\n      jumpi\n      dup3\n      swap1\n      sub\n      0x1f\n      and\n      dup3\n      add\n      swap2\n    tag_135:\n      pop\n      pop\n      pop\n      pop\n      pop\n      dup2\n      mstore\n      0x20\n      add\n      0x01\n      dup3\n      add\n      0x00\n      swap1\n      sload\n      swap1\n      0x0100\n      exp\n      swap1\n      div\n      0xffffffffffffffff\n      and\n      0xffffffffffffffff\n      and\n      0xffffffffffffffff\n      and\n      dup2\n      mstore\n      0x20\n      add\n      0x02\n      dup3\n      add\n      dup1\n      sload\n      tag_138\n      swap1\n      tag_128\n      jump\t// in\n    tag_138:\n      dup1\n      0x1f\n      add\n      0x20\n      dup1\n      swap2\n      div\n      mul\n      0x20\n      add\n      mload(0x40)\n      swap1\n      dup2\n      add\n      0x40\n      mstore\n      dup1\n      swap3\n      swap2\n      swap1\n      dup2\n      dup2\n      mstore\n      0x20\n      add\n      dup3\n      dup1\n      sload\n      tag_139\n      swap1\n      tag_128\n      jump\t// in\n    tag_139:\n      dup1\n      iszero\n      tag_140\n      jumpi\n      dup1\n      0x1f\n      lt\n      tag_141\n      jumpi\n      0x0100\n      dup1\n      dup4\n      sload\n      div\n      mul\n      dup4\n      mstore\n      swap2\n      0x20\n      add\n      swap2\n      jump(tag_140)\n    tag_141:\n      dup3\n      add\n      swap2\n      swap1\n      0x00\n      mstore\n      keccak256(0x00, 0x20)\n      swap1\n    tag_142:\n      dup2\n      sload\n      dup2\n      mstore\n      swap1\n      0x01\n      add\n      swap1\n      0x20\n      add\n      dup1\n      dup4\n      gt\n      tag_142\n      jumpi\n      dup3\n      swap1\n      sub\n      0x1f\n      and\n      dup3\n      add\n      swap2\n    tag_140:\n      pop\n      pop\n      pop\n      pop\n      pop\n      dup2\n      mstore\n      pop\n      pop\n      swap1\n      dup1\n      0x04\n      add\n      0x00\n      swap1\n      sload\n      swap1\n      0x0100\n      exp\n      swap1\n      div\n      0xff\n      and\n      swap1\n      dup1\n      0x04\n      add\n      0x01\n      swap1\n      sload\n      swap1\n      0x0100\n      exp\n      swap1\n      div\n      0xffffffff\n      and\n      swap1\n      pop\n      dup5\n      jump\t// out\n        /* \"contracts/Database.sol\":2192:2578  function payFine() public payable{... */\n    tag_40:\n        /* \"contracts/Database.sol\":2235:2254  uint[] memory fines */\n      0x00\n        /* \"contracts/Database.sol\":2257:2268  driverFines */\n      0x07\n        /* \"contracts/Database.sol\":2257:2280  driverFines[msg.sender] */\n      0x00\n        /* \"contracts/Database.sol\":2269:2279  msg.sender */\n      caller\n        /* \"contracts/Database.sol\":2257:2280  driverFines[msg.sender] */\n      0xffffffffffffffffffffffffffffffffffffffff\n      and\n      0xffffffffffffffffffffffffffffffffffffffff\n      and\n      dup2\n      mstore\n      0x20\n      add\n      swap1\n      dup2\n      mstore\n      0x20\n      add\n      0x00\n      keccak256\n        /* \"contracts/Database.sol\":2235:2280  uint[] memory fines = driverFines[msg.sender] */\n      dup1\n      sload\n      dup1\n      0x20\n      mul\n      0x20\n      add\n      mload(0x40)\n      swap1\n      dup2\n      add\n      0x40\n      mstore\n      dup1\n      swap3\n      swap2\n      swap1\n      dup2\n      dup2\n      mstore\n      0x20\n      add\n      dup3\n      dup1\n      sload\n      dup1\n      iszero\n      tag_144\n      jumpi\n      0x20\n      mul\n      dup3\n      add\n      swap2\n      swap1\n      0x00\n      mstore\n      keccak256(0x00, 0x20)\n      swap1\n    tag_145:\n      dup2\n      sload\n      dup2\n      mstore\n      0x20\n      add\n      swap1\n      0x01\n      add\n      swap1\n      dup1\n      dup4\n      gt\n      tag_145\n      jumpi\n    tag_144:\n      pop\n      pop\n      pop\n      pop\n      pop\n      swap1\n      pop\n        /* \"contracts/Database.sol\":2290:2303  int checkTime */\n      0x00\n        /* \"contracts/Database.sol\":2333:2338  fines */\n      dup2\n        /* \"contracts/Database.sol\":2354:2355  1 */\n      0x01\n        /* \"contracts/Database.sol\":2339:2344  fines */\n      dup4\n        /* \"contracts/Database.sol\":2339:2351  fines.length */\n      mload\n        /* \"contracts/Database.sol\":2339:2355  fines.length - 1 */\n      tag_146\n      swap2\n      swap1\n      tag_147\n      jump\t// in\n    tag_146:\n        /* \"contracts/Database.sol\":2333:2356  fines[fines.length - 1] */\n      dup2\n      mload\n      dup2\n      lt\n      tag_148\n      jumpi\n      tag_149\n      tag_150\n      jump\t// in\n    tag_149:\n    tag_148:\n      0x20\n      mul\n      0x20\n      add\n      add\n      mload\n        /* \"contracts/Database.sol\":2310:2325  block.timestamp */\n      timestamp\n        /* \"contracts/Database.sol\":2306:2357  int(block.timestamp) - int(fines[fines.length - 1]) */\n      tag_151\n      swap2\n      swap1\n      tag_152\n      jump\t// in\n    tag_151:\n        /* \"contracts/Database.sol\":2290:2357  int checkTime = int(block.timestamp) - int(fines[fines.length - 1]) */\n      swap1\n      pop\n        /* \"contracts/Database.sol\":2383:2385  25 */\n      0x19\n        /* \"contracts/Database.sol\":2371:2380  checkTime */\n      dup2\n        /* \"contracts/Database.sol\":2371:2385  checkTime > 25 */\n      sgt\n        /* \"contracts/Database.sol\":2367:2572  if (checkTime > 25){... */\n      iszero\n      tag_153\n      jumpi\n        /* \"contracts/Database.sol\":2400:2404  bank */\n      0x00\n      dup1\n      sload\n      swap1\n      0x0100\n      exp\n      swap1\n      div\n      0xffffffffffffffffffffffffffffffffffffffff\n      and\n        /* \"contracts/Database.sol\":2400:2413  bank.transfer */\n      0xffffffffffffffffffffffffffffffffffffffff\n      and\n        /* \"contracts/Database.sol\":2400:2423  bank.transfer(10 ether) */\n      0x08fc\n        /* \"contracts/Database.sol\":2414:2422  10 ether */\n      0x8ac7230489e80000\n        /* \"contracts/Database.sol\":2400:2423  bank.transfer(10 ether) */\n      swap1\n      dup2\n      iszero\n      mul\n      swap1\n      mload(0x40)\n      0x00\n      mload(0x40)\n      dup1\n      dup4\n      sub\n      dup2\n      dup6\n      dup9\n      dup9\n      call\n      swap4\n      pop\n      pop\n      pop\n      pop\n      iszero\n      dup1\n      iszero\n      tag_155\n      jumpi\n      returndatasize\n      0x00\n      dup1\n      returndatacopy\n      revert(0x00, returndatasize)\n    tag_155:\n      pop\n        /* \"contracts/Database.sol\":2437:2448  driverFines */\n      0x07\n        /* \"contracts/Database.sol\":2437:2460  driverFines[msg.sender] */\n      0x00\n        /* \"contracts/Database.sol\":2449:2459  msg.sender */\n      caller\n        /* \"contracts/Database.sol\":2437:2460  driverFines[msg.sender] */\n      0xffffffffffffffffffffffffffffffffffffffff\n      and\n      0xffffffffffffffffffffffffffffffffffffffff\n      and\n      dup2\n      mstore\n      0x20\n      add\n      swap1\n      dup2\n      mstore\n      0x20\n      add\n      0x00\n      keccak256\n        /* \"contracts/Database.sol\":2437:2466  driverFines[msg.sender].pop() */\n      dup1\n      sload\n      dup1\n      tag_156\n      jumpi\n      tag_157\n      tag_158\n      jump\t// in\n    tag_157:\n    tag_156:\n      0x01\n      swap1\n      sub\n      dup2\n      dup2\n      swap1\n      0x00\n      mstore\n      keccak256(0x00, 0x20)\n      add\n      0x00\n      swap1\n      sstore\n      swap1\n      sstore\n        /* \"contracts/Database.sol\":2367:2572  if (checkTime > 25){... */\n      jump(tag_160)\n    tag_153:\n        /* \"contracts/Database.sol\":2496:2500  bank */\n      0x00\n      dup1\n      sload\n      swap1\n      0x0100\n      exp\n      swap1\n      div\n      0xffffffffffffffffffffffffffffffffffffffff\n      and\n        /* \"contracts/Database.sol\":2496:2509  bank.transfer */\n      0xffffffffffffffffffffffffffffffffffffffff\n      and\n        /* \"contracts/Database.sol\":2496:2518  bank.transfer(5 ether) */\n      0x08fc\n        /* \"contracts/Database.sol\":2510:2517  5 ether */\n      0x4563918244f40000\n        /* \"contracts/Database.sol\":2496:2518  bank.transfer(5 ether) */\n      swap1\n      dup2\n      iszero\n      mul\n      swap1\n      mload(0x40)\n      0x00\n      mload(0x40)\n      dup1\n      dup4\n      sub\n      dup2\n      dup6\n      dup9\n      dup9\n      call\n      swap4\n      pop\n      pop\n      pop\n      pop\n      iszero\n      dup1\n      iszero\n      tag_162\n      jumpi\n      returndatasize\n      0x00\n      dup1\n      returndatacopy\n      revert(0x00, returndatasize)\n    tag_162:\n      pop\n        /* \"contracts/Database.sol\":2532:2543  driverFines */\n      0x07\n        /* \"contracts/Database.sol\":2532:2555  driverFines[msg.sender] */\n      0x00\n        /* \"contracts/Database.sol\":2544:2554  msg.sender */\n      caller\n        /* \"contracts/Database.sol\":2532:2555  driverFines[msg.sender] */\n      0xffffffffffffffffffffffffffffffffffffffff\n      and\n      0xffffffffffffffffffffffffffffffffffffffff\n      and\n      dup2\n      mstore\n      0x20\n      add\n      swap1\n      dup2\n      mstore\n      0x20\n      add\n      0x00\n      keccak256\n        /* \"contracts/Database.sol\":2532:2561  driverFines[msg.sender].pop() */\n      dup1\n      sload\n      dup1\n      tag_163\n      jumpi\n      tag_164\n      tag_158\n      jump\t// in\n    tag_164:\n    tag_163:\n      0x01\n      swap1\n      sub\n      dup2\n      dup2\n      swap1\n      0x00\n      mstore\n      keccak256(0x00, 0x20)\n      add\n      0x00\n      swap1\n      sstore\n      swap1\n      sstore\n        /* \"contracts/Database.sol\":2367:2572  if (checkTime > 25){... */\n    tag_160:\n        /* \"contracts/Database.sol\":2225:2578  {... */\n      pop\n      pop\n        /* \"contracts/Database.sol\":2192:2578  function payFine() public payable{... */\n      jump\t// out\n        /* \"contracts/Database.sol\":479:521  mapping(string => LoginData) public logins */\n    tag_45:\n      0x02\n      dup2\n      dup1\n      mload\n      0x20\n      dup2\n      add\n      dup3\n      add\n      dup1\n      mload\n      dup5\n      dup3\n      mstore\n      0x20\n      dup4\n      add\n      0x20\n      dup6\n      add\n      keccak256\n      dup2\n      dup4\n      mstore\n      dup1\n      swap6\n      pop\n      pop\n      pop\n      pop\n      pop\n      pop\n      0x00\n      swap2\n      pop\n      swap1\n      pop\n      dup1\n      0x00\n      add\n      0x00\n      swap1\n      sload\n      swap1\n      0x0100\n      exp\n      swap1\n      div\n      0xffffffffffffffffffffffffffffffffffffffff\n      and\n      swap1\n      dup1\n      0x01\n      add\n      dup1\n      sload\n      tag_166\n      swap1\n      tag_128\n      jump\t// in\n    tag_166:\n      dup1\n      0x1f\n      add\n      0x20\n      dup1\n      swap2\n      div\n      mul\n      0x20\n      add\n      mload(0x40)\n      swap1\n      dup2\n      add\n      0x40\n      mstore\n      dup1\n      swap3\n      swap2\n      swap1\n      dup2\n      dup2\n      mstore\n      0x20\n      add\n      dup3\n      dup1\n      sload\n      tag_167\n      swap1\n      tag_128\n      jump\t// in\n    tag_167:\n      dup1\n      iszero\n      tag_168\n      jumpi\n      dup1\n      0x1f\n      lt\n      tag_169\n      jumpi\n      0x0100\n      dup1\n      dup4\n      sload\n      div\n      mul\n      dup4\n      mstore\n      swap2\n      0x20\n      add\n      swap2\n      jump(tag_168)\n    tag_169:\n      dup3\n      add\n      swap2\n      swap1\n      0x00\n      mstore\n      keccak256(0x00, 0x20)\n      swap1\n    tag_170:\n      dup2\n      sload\n      dup2\n      mstore\n      swap1\n      0x01\n      add\n      swap1\n      0x20\n      add\n      dup1\n      dup4\n      gt\n      tag_170\n      jumpi\n      dup3\n      swap1\n      sub\n      0x1f\n      and\n      dup3\n      add\n      swap2\n    tag_168:\n      pop\n      pop\n      pop\n      pop\n      pop\n      swap1\n      pop\n      dup3\n      jump\t// out\n        /* \"contracts/Database.sol\":406:433  address payable public bank */\n    tag_50:\n      0x00\n      dup1\n      sload\n      swap1\n      0x0100\n      exp\n      swap1\n      div\n      0xffffffffffffffffffffffffffffffffffffffff\n      and\n      dup2\n      jump\t// out\n        /* \"contracts/Database.sol\":2584:2778  function addFine(string memory number) public {... */\n    tag_56:\n        /* \"contracts/Database.sol\":2640:2654  address drAddr */\n      0x00\n        /* \"contracts/Database.sol\":2657:2673  driverDocNumbers */\n      0x03\n        /* \"contracts/Database.sol\":2674:2680  number */\n      dup3\n        /* \"contracts/Database.sol\":2657:2681  driverDocNumbers[number] */\n      mload(0x40)\n      tag_172\n      swap2\n      swap1\n      tag_115\n      jump\t// in\n    tag_172:\n      swap1\n      dup2\n      mstore\n      0x20\n      add\n      mload(0x40)\n      dup1\n      swap2\n      sub\n      swap1\n      keccak256\n      0x00\n      swap1\n      sload\n      swap1\n      0x0100\n      exp\n      swap1\n      div\n      0xffffffffffffffffffffffffffffffffffffffff\n      and\n        /* \"contracts/Database.sol\":2640:2681  address drAddr = driverDocNumbers[number] */\n      swap1\n      pop\n        /* \"contracts/Database.sol\":2717:2718  0 */\n      0x00\n        /* \"contracts/Database.sol\":2699:2719  drAddr != address(0) */\n      0xffffffffffffffffffffffffffffffffffffffff\n      and\n        /* \"contracts/Database.sol\":2699:2705  drAddr */\n      dup2\n        /* \"contracts/Database.sol\":2699:2719  drAddr != address(0) */\n      0xffffffffffffffffffffffffffffffffffffffff\n      and\n      eq\n      iszero\n        /* \"contracts/Database.sol\":2691:2720  require(drAddr != address(0)) */\n      tag_173\n      jumpi\n      0x00\n      dup1\n      revert\n    tag_173:\n        /* \"contracts/Database.sol\":2730:2741  driverFines */\n      0x07\n        /* \"contracts/Database.sol\":2730:2749  driverFines[drAddr] */\n      0x00\n        /* \"contracts/Database.sol\":2742:2748  drAddr */\n      dup3\n        /* \"contracts/Database.sol\":2730:2749  driverFines[drAddr] */\n      0xffffffffffffffffffffffffffffffffffffffff\n      and\n      0xffffffffffffffffffffffffffffffffffffffff\n      and\n      dup2\n      mstore\n      0x20\n      add\n      swap1\n      dup2\n      mstore\n      0x20\n      add\n      0x00\n      keccak256\n        /* \"contracts/Database.sol\":2755:2770  block.timestamp */\n      timestamp\n        /* \"contracts/Database.sol\":2730:2771  driverFines[drAddr].push(block.timestamp) */\n      swap1\n      dup1\n      0x01\n      dup2\n      sload\n      add\n      dup1\n      dup3\n      sstore\n      dup1\n      swap2\n      pop\n      pop\n      0x01\n      swap1\n      sub\n      swap1\n      0x00\n      mstore\n      keccak256(0x00, 0x20)\n      add\n      0x00\n      swap1\n      swap2\n      swap1\n      swap2\n      swap1\n      swap2\n      pop\n      sstore\n        /* \"contracts/Database.sol\":2630:2778  {... */\n      pop\n        /* \"contracts/Database.sol\":2584:2778  function addFine(string memory number) public {... */\n      pop\n      jump\t// out\n        /* \"contracts/Database.sol\":440:472  address payable public insurance */\n    tag_59:\n      0x01\n      0x00\n      swap1\n      sload\n      swap1\n      0x0100\n      exp\n      swap1\n      div\n      0xffffffffffffffffffffffffffffffffffffffff\n      and\n      dup2\n      jump\t// out\n        /* \"contracts/Database.sol\":686:727  mapping(address => bool) public policeMan */\n    tag_64:\n      mstore(0x20, 0x06)\n      dup1\n      0x00\n      mstore\n      keccak256(0x00, 0x40)\n      0x00\n      swap2\n      pop\n      sload\n      swap1\n      0x0100\n      exp\n      swap1\n      div\n      0xff\n      and\n      dup2\n      jump\t// out\n        /* \"contracts/Database.sol\":2784:3528  function buyInsurance(uint amount) public {... */\n    tag_71:\n        /* \"contracts/Database.sol\":2875:2881  amount */\n      dup1\n        /* \"contracts/Database.sol\":2852:2862  msg.sender */\n      caller\n        /* \"contracts/Database.sol\":2844:2871  payable(msg.sender).balance */\n      0xffffffffffffffffffffffffffffffffffffffff\n      and\n      balance\n        /* \"contracts/Database.sol\":2844:2881  payable(msg.sender).balance >= amount */\n      lt\n      iszero\n        /* \"contracts/Database.sol\":2836:2882  require(payable(msg.sender).balance >= amount) */\n      tag_176\n      jumpi\n      0x00\n      dup1\n      revert\n    tag_176:\n        /* \"contracts/Database.sol\":2932:2933  0 */\n      0x00\n        /* \"contracts/Database.sol\":2900:2916  driverInsurances */\n      0x08\n        /* \"contracts/Database.sol\":2900:2928  driverInsurances[msg.sender] */\n      0x00\n        /* \"contracts/Database.sol\":2917:2927  msg.sender */\n      caller\n        /* \"contracts/Database.sol\":2900:2928  driverInsurances[msg.sender] */\n      0xffffffffffffffffffffffffffffffffffffffff\n      and\n      0xffffffffffffffffffffffffffffffffffffffff\n      and\n      dup2\n      mstore\n      0x20\n      add\n      swap1\n      dup2\n      mstore\n      0x20\n      add\n      0x00\n      keccak256\n      sload\n        /* \"contracts/Database.sol\":2900:2933  driverInsurances[msg.sender] == 0 */\n      eq\n        /* \"contracts/Database.sol\":2892:2934  require(driverInsurances[msg.sender] == 0) */\n      tag_177\n      jumpi\n      0x00\n      dup1\n      revert\n    tag_177:\n        /* \"contracts/Database.sol\":2964:2970  amount */\n      dup1\n        /* \"contracts/Database.sol\":2948:2961  insuranceLoan */\n      sload(0x09)\n        /* \"contracts/Database.sol\":2948:2970  insuranceLoan > amount */\n      gt\n        /* \"contracts/Database.sol\":2944:3522  if (insuranceLoan > amount){... */\n      iszero\n      tag_178\n      jumpi\n        /* \"contracts/Database.sol\":2985:2989  bank */\n      0x00\n      dup1\n      sload\n      swap1\n      0x0100\n      exp\n      swap1\n      div\n      0xffffffffffffffffffffffffffffffffffffffff\n      and\n        /* \"contracts/Database.sol\":2985:2998  bank.transfer */\n      0xffffffffffffffffffffffffffffffffffffffff\n      and\n        /* \"contracts/Database.sol\":2985:3006  bank.transfer(amount) */\n      0x08fc\n        /* \"contracts/Database.sol\":2999:3005  amount */\n      dup3\n        /* \"contracts/Database.sol\":2985:3006  bank.transfer(amount) */\n      swap1\n      dup2\n      iszero\n      mul\n      swap1\n      mload(0x40)\n      0x00\n      mload(0x40)\n      dup1\n      dup4\n      sub\n      dup2\n      dup6\n      dup9\n      dup9\n      call\n      swap4\n      pop\n      pop\n      pop\n      pop\n      iszero\n      dup1\n      iszero\n      tag_180\n      jumpi\n      returndatasize\n      0x00\n      dup1\n      returndatacopy\n      revert(0x00, returndatasize)\n    tag_180:\n      pop\n        /* \"contracts/Database.sol\":3051:3057  amount */\n      dup1\n        /* \"contracts/Database.sol\":3020:3036  driverInsurances */\n      0x08\n        /* \"contracts/Database.sol\":3020:3048  driverInsurances[msg.sender] */\n      0x00\n        /* \"contracts/Database.sol\":3037:3047  msg.sender */\n      caller\n        /* \"contracts/Database.sol\":3020:3048  driverInsurances[msg.sender] */\n      0xffffffffffffffffffffffffffffffffffffffff\n      and\n      0xffffffffffffffffffffffffffffffffffffffff\n      and\n      dup2\n      mstore\n      0x20\n      add\n      swap1\n      dup2\n      mstore\n      0x20\n      add\n      0x00\n      keccak256\n        /* \"contracts/Database.sol\":3020:3057  driverInsurances[msg.sender] = amount */\n      dup2\n      swap1\n      sstore\n      pop\n        /* \"contracts/Database.sol\":3088:3094  amount */\n      dup1\n        /* \"contracts/Database.sol\":3071:3084  insuranceLoan */\n      0x09\n      0x00\n        /* \"contracts/Database.sol\":3071:3094  insuranceLoan -= amount */\n      dup3\n      dup3\n      sload\n      tag_181\n      swap2\n      swap1\n      tag_147\n      jump\t// in\n    tag_181:\n      swap3\n      pop\n      pop\n      dup2\n      swap1\n      sstore\n      pop\n        /* \"contracts/Database.sol\":2944:3522  if (insuranceLoan > amount){... */\n      jump(tag_182)\n    tag_178:\n        /* \"contracts/Database.sol\":3131:3137  amount */\n      dup1\n        /* \"contracts/Database.sol\":3115:3128  insuranceLoan */\n      sload(0x09)\n        /* \"contracts/Database.sol\":3115:3137  insuranceLoan < amount */\n      lt\n        /* \"contracts/Database.sol\":3111:3522  if (insuranceLoan < amount){... */\n      iszero\n      tag_183\n      jumpi\n        /* \"contracts/Database.sol\":3152:3161  uint diff */\n      0x00\n        /* \"contracts/Database.sol\":3173:3186  insuranceLoan */\n      sload(0x09)\n        /* \"contracts/Database.sol\":3164:3170  amount */\n      dup3\n        /* \"contracts/Database.sol\":3164:3186  amount - insuranceLoan */\n      tag_184\n      swap2\n      swap1\n      tag_147\n      jump\t// in\n    tag_184:\n        /* \"contracts/Database.sol\":3152:3186  uint diff = amount - insuranceLoan */\n      swap1\n      pop\n        /* \"contracts/Database.sol\":3200:3204  bank */\n      0x00\n      dup1\n      sload\n      swap1\n      0x0100\n      exp\n      swap1\n      div\n      0xffffffffffffffffffffffffffffffffffffffff\n      and\n        /* \"contracts/Database.sol\":3200:3213  bank.transfer */\n      0xffffffffffffffffffffffffffffffffffffffff\n      and\n        /* \"contracts/Database.sol\":3200:3228  bank.transfer(insuranceLoan) */\n      0x08fc\n        /* \"contracts/Database.sol\":3214:3227  insuranceLoan */\n      sload(0x09)\n        /* \"contracts/Database.sol\":3200:3228  bank.transfer(insuranceLoan) */\n      swap1\n      dup2\n      iszero\n      mul\n      swap1\n      mload(0x40)\n      0x00\n      mload(0x40)\n      dup1\n      dup4\n      sub\n      dup2\n      dup6\n      dup9\n      dup9\n      call\n      swap4\n      pop\n      pop\n      pop\n      pop\n      iszero\n      dup1\n      iszero\n      tag_186\n      jumpi\n      returndatasize\n      0x00\n      dup1\n      returndatacopy\n      revert(0x00, returndatasize)\n    tag_186:\n      pop\n        /* \"contracts/Database.sol\":3242:3251  insurance */\n      0x01\n      0x00\n      swap1\n      sload\n      swap1\n      0x0100\n      exp\n      swap1\n      div\n      0xffffffffffffffffffffffffffffffffffffffff\n      and\n        /* \"contracts/Database.sol\":3242:3260  insurance.transfer */\n      0xffffffffffffffffffffffffffffffffffffffff\n      and\n        /* \"contracts/Database.sol\":3242:3266  insurance.transfer(diff) */\n      0x08fc\n        /* \"contracts/Database.sol\":3261:3265  diff */\n      dup3\n        /* \"contracts/Database.sol\":3242:3266  insurance.transfer(diff) */\n      swap1\n      dup2\n      iszero\n      mul\n      swap1\n      mload(0x40)\n      0x00\n      mload(0x40)\n      dup1\n      dup4\n      sub\n      dup2\n      dup6\n      dup9\n      dup9\n      call\n      swap4\n      pop\n      pop\n      pop\n      pop\n      iszero\n      dup1\n      iszero\n      tag_188\n      jumpi\n      returndatasize\n      0x00\n      dup1\n      returndatacopy\n      revert(0x00, returndatasize)\n    tag_188:\n      pop\n        /* \"contracts/Database.sol\":3311:3317  amount */\n      dup2\n        /* \"contracts/Database.sol\":3280:3296  driverInsurances */\n      0x08\n        /* \"contracts/Database.sol\":3280:3308  driverInsurances[msg.sender] */\n      0x00\n        /* \"contracts/Database.sol\":3297:3307  msg.sender */\n      caller\n        /* \"contracts/Database.sol\":3280:3308  driverInsurances[msg.sender] */\n      0xffffffffffffffffffffffffffffffffffffffff\n      and\n      0xffffffffffffffffffffffffffffffffffffffff\n      and\n      dup2\n      mstore\n      0x20\n      add\n      swap1\n      dup2\n      mstore\n      0x20\n      add\n      0x00\n      keccak256\n        /* \"contracts/Database.sol\":3280:3317  driverInsurances[msg.sender] = amount */\n      dup2\n      swap1\n      sstore\n      pop\n        /* \"contracts/Database.sol\":3347:3348  0 */\n      0x00\n        /* \"contracts/Database.sol\":3331:3344  insuranceLoan */\n      0x09\n        /* \"contracts/Database.sol\":3331:3348  insuranceLoan = 0 */\n      dup2\n      swap1\n      sstore\n      pop\n        /* \"contracts/Database.sol\":3138:3359  {... */\n      pop\n        /* \"contracts/Database.sol\":3111:3522  if (insuranceLoan < amount){... */\n      jump(tag_189)\n    tag_183:\n        /* \"contracts/Database.sol\":3386:3392  amount */\n      dup1\n        /* \"contracts/Database.sol\":3369:3382  insuranceLoan */\n      sload(0x09)\n        /* \"contracts/Database.sol\":3369:3392  insuranceLoan == amount */\n      eq\n        /* \"contracts/Database.sol\":3365:3522  if (insuranceLoan == amount) {... */\n      iszero\n      tag_190\n      jumpi\n        /* \"contracts/Database.sol\":3408:3412  bank */\n      0x00\n      dup1\n      sload\n      swap1\n      0x0100\n      exp\n      swap1\n      div\n      0xffffffffffffffffffffffffffffffffffffffff\n      and\n        /* \"contracts/Database.sol\":3408:3421  bank.transfer */\n      0xffffffffffffffffffffffffffffffffffffffff\n      and\n        /* \"contracts/Database.sol\":3408:3429  bank.transfer(amount) */\n      0x08fc\n        /* \"contracts/Database.sol\":3422:3428  amount */\n      dup3\n        /* \"contracts/Database.sol\":3408:3429  bank.transfer(amount) */\n      swap1\n      dup2\n      iszero\n      mul\n      swap1\n      mload(0x40)\n      0x00\n      mload(0x40)\n      dup1\n      dup4\n      sub\n      dup2\n      dup6\n      dup9\n      dup9\n      call\n      swap4\n      pop\n      pop\n      pop\n      pop\n      iszero\n      dup1\n      iszero\n      tag_192\n      jumpi\n      returndatasize\n      0x00\n      dup1\n      returndatacopy\n      revert(0x00, returndatasize)\n    tag_192:\n      pop\n        /* \"contracts/Database.sol\":3474:3480  amount */\n      dup1\n        /* \"contracts/Database.sol\":3443:3459  driverInsurances */\n      0x08\n        /* \"contracts/Database.sol\":3443:3471  driverInsurances[msg.sender] */\n      0x00\n        /* \"contracts/Database.sol\":3460:3470  msg.sender */\n      caller\n        /* \"contracts/Database.sol\":3443:3471  driverInsurances[msg.sender] */\n      0xffffffffffffffffffffffffffffffffffffffff\n      and\n      0xffffffffffffffffffffffffffffffffffffffff\n      and\n      dup2\n      mstore\n      0x20\n      add\n      swap1\n      dup2\n      mstore\n      0x20\n      add\n      0x00\n      keccak256\n        /* \"contracts/Database.sol\":3443:3480  driverInsurances[msg.sender] = amount */\n      dup2\n      swap1\n      sstore\n      pop\n        /* \"contracts/Database.sol\":3510:3511  0 */\n      0x00\n        /* \"contracts/Database.sol\":3494:3507  insuranceLoan */\n      0x09\n        /* \"contracts/Database.sol\":3494:3511  insuranceLoan = 0 */\n      dup2\n      swap1\n      sstore\n      pop\n        /* \"contracts/Database.sol\":3365:3522  if (insuranceLoan == amount) {... */\n    tag_190:\n        /* \"contracts/Database.sol\":3111:3522  if (insuranceLoan < amount){... */\n    tag_189:\n        /* \"contracts/Database.sol\":2944:3522  if (insuranceLoan > amount){... */\n    tag_182:\n        /* \"contracts/Database.sol\":2784:3528  function buyInsurance(uint amount) public {... */\n      pop\n      jump\t// out\n        /* \"contracts/Database.sol\":734:779  mapping(address => uint[]) public driverFines */\n    tag_76:\n      mstore(0x20, 0x07)\n      dup2\n      0x00\n      mstore\n      keccak256(0x00, 0x40)\n      dup2\n      dup2\n      sload\n      dup2\n      lt\n      tag_193\n      jumpi\n      0x00\n      dup1\n      revert\n    tag_193:\n      swap1\n      0x00\n      mstore\n      keccak256(0x00, 0x20)\n      add\n      0x00\n      swap2\n      pop\n      swap2\n      pop\n      pop\n      sload\n      dup2\n      jump\t// out\n        /* \"contracts/Database.sol\":841:866  uint public insuranceLoan */\n    tag_81:\n      sload(0x09)\n      dup2\n      jump\t// out\n        /* \"contracts/Database.sol\":3534:3715  function addDTP(string memory number) public {... */\n    tag_86:\n        /* \"contracts/Database.sol\":3589:3603  address drAddr */\n      0x00\n        /* \"contracts/Database.sol\":3606:3622  driverDocNumbers */\n      0x03\n        /* \"contracts/Database.sol\":3623:3629  number */\n      dup3\n        /* \"contracts/Database.sol\":3606:3630  driverDocNumbers[number] */\n      mload(0x40)\n      tag_196\n      swap2\n      swap1\n      tag_115\n      jump\t// in\n    tag_196:\n      swap1\n      dup2\n      mstore\n      0x20\n      add\n      mload(0x40)\n      dup1\n      swap2\n      sub\n      swap1\n      keccak256\n      0x00\n      swap1\n      sload\n      swap1\n      0x0100\n      exp\n      swap1\n      div\n      0xffffffffffffffffffffffffffffffffffffffff\n      and\n        /* \"contracts/Database.sol\":3589:3630  address drAddr = driverDocNumbers[number] */\n      swap1\n      pop\n        /* \"contracts/Database.sol\":3666:3667  0 */\n      0x00\n        /* \"contracts/Database.sol\":3648:3668  drAddr != address(0) */\n      0xffffffffffffffffffffffffffffffffffffffff\n      and\n        /* \"contracts/Database.sol\":3648:3654  drAddr */\n      dup2\n        /* \"contracts/Database.sol\":3648:3668  drAddr != address(0) */\n      0xffffffffffffffffffffffffffffffffffffffff\n      and\n      eq\n      iszero\n        /* \"contracts/Database.sol\":3640:3669  require(drAddr != address(0)) */\n      tag_197\n      jumpi\n      0x00\n      dup1\n      revert\n    tag_197:\n        /* \"contracts/Database.sol\":3707:3708  1 */\n      0x01\n        /* \"contracts/Database.sol\":3679:3686  drivers */\n      0x04\n        /* \"contracts/Database.sol\":3679:3694  drivers[drAddr] */\n      0x00\n        /* \"contracts/Database.sol\":3687:3693  drAddr */\n      dup4\n        /* \"contracts/Database.sol\":3679:3694  drivers[drAddr] */\n      0xffffffffffffffffffffffffffffffffffffffff\n      and\n      0xffffffffffffffffffffffffffffffffffffffff\n      and\n      dup2\n      mstore\n      0x20\n      add\n      swap1\n      dup2\n      mstore\n      0x20\n      add\n      0x00\n      keccak256\n        /* \"contracts/Database.sol\":3679:3703  drivers[drAddr].dtpCount */\n      0x04\n      add\n      0x01\n        /* \"contracts/Database.sol\":3679:3708  drivers[drAddr].dtpCount += 1 */\n      dup3\n      dup3\n      dup3\n      swap1\n      sload\n      swap1\n      0x0100\n      exp\n      swap1\n      div\n      0xffffffff\n      and\n      tag_198\n      swap2\n      swap1\n      tag_199\n      jump\t// in\n    tag_198:\n      swap3\n      pop\n      0x0100\n      exp\n      dup2\n      sload\n      dup2\n      0xffffffff\n      mul\n      not\n      and\n      swap1\n      dup4\n      0xffffffff\n      and\n      mul\n      or\n      swap1\n      sstore\n      pop\n        /* \"contracts/Database.sol\":3579:3715  {... */\n      pop\n        /* \"contracts/Database.sol\":3534:3715  function addDTP(string memory number) public {... */\n      pop\n      jump\t// out\n        /* \"contracts/Database.sol\":1654:1866  function addDriverCar(string memory category, uint32 cost,uint32 ageCount) public {... */\n    tag_91:\n        /* \"contracts/Database.sol\":1746:1763  Car memory newCar */\n      0x00\n        /* \"contracts/Database.sol\":1766:1818  Car({category:category,cost:cost,ageCount:ageCount}) */\n      mload(0x40)\n      dup1\n      0x60\n      add\n      0x40\n      mstore\n      dup1\n        /* \"contracts/Database.sol\":1780:1788  category */\n      dup6\n        /* \"contracts/Database.sol\":1766:1818  Car({category:category,cost:cost,ageCount:ageCount}) */\n      dup2\n      mstore\n      0x20\n      add\n        /* \"contracts/Database.sol\":1794:1798  cost */\n      dup5\n        /* \"contracts/Database.sol\":1766:1818  Car({category:category,cost:cost,ageCount:ageCount}) */\n      0xffffffff\n      and\n      dup2\n      mstore\n      0x20\n      add\n        /* \"contracts/Database.sol\":1808:1816  ageCount */\n      dup4\n        /* \"contracts/Database.sol\":1766:1818  Car({category:category,cost:cost,ageCount:ageCount}) */\n      0xffffffff\n      and\n      dup2\n      mstore\n      pop\n        /* \"contracts/Database.sol\":1746:1818  Car memory newCar = Car({category:category,cost:cost,ageCount:ageCount}) */\n      swap1\n      pop\n        /* \"contracts/Database.sol\":1853:1859  newCar */\n      dup1\n        /* \"contracts/Database.sol\":1828:1838  driverCars */\n      0x05\n        /* \"contracts/Database.sol\":1828:1850  driverCars[msg.sender] */\n      0x00\n        /* \"contracts/Database.sol\":1839:1849  msg.sender */\n      caller\n        /* \"contracts/Database.sol\":1828:1850  driverCars[msg.sender] */\n      0xffffffffffffffffffffffffffffffffffffffff\n      and\n      0xffffffffffffffffffffffffffffffffffffffff\n      and\n      dup2\n      mstore\n      0x20\n      add\n      swap1\n      dup2\n      mstore\n      0x20\n      add\n      0x00\n      keccak256\n        /* \"contracts/Database.sol\":1828:1859  driverCars[msg.sender] = newCar */\n      0x00\n      dup3\n      add\n      mload\n      dup2\n      0x00\n      add\n      swap1\n      dup1\n      mload\n      swap1\n      0x20\n      add\n      swap1\n      tag_201\n      swap3\n      swap2\n      swap1\n      tag_111\n      jump\t// in\n    tag_201:\n      pop\n      0x20\n      dup3\n      add\n      mload\n      dup2\n      0x01\n      add\n      exp(0x0100, 0x00)\n      dup2\n      sload\n      dup2\n      0xffffffff\n      mul\n      not\n      and\n      swap1\n      dup4\n      0xffffffff\n      and\n      mul\n      or\n      swap1\n      sstore\n      pop\n      0x40\n      dup3\n      add\n      mload\n      dup2\n      0x01\n      add\n      exp(0x0100, 0x04)\n      dup2\n      sload\n      dup2\n      0xffffffff\n      mul\n      not\n      and\n      swap1\n      dup4\n      0xffffffff\n      and\n      mul\n      or\n      swap1\n      sstore\n      pop\n      swap1\n      pop\n      pop\n        /* \"contracts/Database.sol\":1736:1866  {... */\n      pop\n        /* \"contracts/Database.sol\":1654:1866  function addDriverCar(string memory category, uint32 cost,uint32 ageCount) public {... */\n      pop\n      pop\n      pop\n      jump\t// out\n        /* \"contracts/Database.sol\":638:679  mapping(address => Car) public driverCars */\n    tag_95:\n      mstore(0x20, 0x05)\n      dup1\n      0x00\n      mstore\n      keccak256(0x00, 0x40)\n      0x00\n      swap2\n      pop\n      swap1\n      pop\n      dup1\n      0x00\n      add\n      dup1\n      sload\n      tag_202\n      swap1\n      tag_128\n      jump\t// in\n    tag_202:\n      dup1\n      0x1f\n      add\n      0x20\n      dup1\n      swap2\n      div\n      mul\n      0x20\n      add\n      mload(0x40)\n      swap1\n      dup2\n      add\n      0x40\n      mstore\n      dup1\n      swap3\n      swap2\n      swap1\n      dup2\n      dup2\n      mstore\n      0x20\n      add\n      dup3\n      dup1\n      sload\n      tag_203\n      swap1\n      tag_128\n      jump\t// in\n    tag_203:\n      dup1\n      iszero\n      tag_204\n      jumpi\n      dup1\n      0x1f\n      lt\n      tag_205\n      jumpi\n      0x0100\n      dup1\n      dup4\n      sload\n      div\n      mul\n      dup4\n      mstore\n      swap2\n      0x20\n      add\n      swap2\n      jump(tag_204)\n    tag_205:\n      dup3\n      add\n      swap2\n      swap1\n      0x00\n      mstore\n      keccak256(0x00, 0x20)\n      swap1\n    tag_206:\n      dup2\n      sload\n      dup2\n      mstore\n      swap1\n      0x01\n      add\n      swap1\n      0x20\n      add\n      dup1\n      dup4\n      gt\n      tag_206\n      jumpi\n      dup3\n      swap1\n      sub\n      0x1f\n      and\n      dup3\n      add\n      swap2\n    tag_204:\n      pop\n      pop\n      pop\n      pop\n      pop\n      swap1\n      dup1\n      0x01\n      add\n      0x00\n      swap1\n      sload\n      swap1\n      0x0100\n      exp\n      swap1\n      div\n      0xffffffff\n      and\n      swap1\n      dup1\n      0x01\n      add\n      0x04\n      swap1\n      sload\n      swap1\n      0x0100\n      exp\n      swap1\n      div\n      0xffffffff\n      and\n      swap1\n      pop\n      dup4\n      jump\t// out\n        /* \"contracts/Database.sol\":528:578  mapping(string => address) public driverDocNumbers */\n    tag_101:\n      0x03\n      dup2\n      dup1\n      mload\n      0x20\n      dup2\n      add\n      dup3\n      add\n      dup1\n      mload\n      dup5\n      dup3\n      mstore\n      0x20\n      dup4\n      add\n      0x20\n      dup6\n      add\n      keccak256\n      dup2\n      dup4\n      mstore\n      dup1\n      swap6\n      pop\n      pop\n      pop\n      pop\n      pop\n      pop\n      0x00\n      swap2\n      pop\n      sload\n      swap1\n      0x0100\n      exp\n      swap1\n      div\n      0xffffffffffffffffffffffffffffffffffffffff\n      and\n      dup2\n      jump\t// out\n        /* \"contracts/Database.sol\":786:834  mapping(address => uint) public driverInsurances */\n    tag_107:\n      mstore(0x20, 0x08)\n      dup1\n      0x00\n      mstore\n      keccak256(0x00, 0x40)\n      0x00\n      swap2\n      pop\n      swap1\n      pop\n      sload\n      dup2\n      jump\t// out\n    tag_111:\n      dup3\n      dup1\n      sload\n      tag_207\n      swap1\n      tag_128\n      jump\t// in\n    tag_207:\n      swap1\n      0x00\n      mstore\n      keccak256(0x00, 0x20)\n      swap1\n      0x1f\n      add\n      0x20\n      swap1\n      div\n      dup2\n      add\n      swap3\n      dup3\n      tag_209\n      jumpi\n      0x00\n      dup6\n      sstore\n      jump(tag_208)\n    tag_209:\n      dup3\n      0x1f\n      lt\n      tag_210\n      jumpi\n      dup1\n      mload\n      not(0xff)\n      and\n      dup4\n      dup1\n      add\n      or\n      dup6\n      sstore\n      jump(tag_208)\n    tag_210:\n      dup3\n      dup1\n      add\n      0x01\n      add\n      dup6\n      sstore\n      dup3\n      iszero\n      tag_208\n      jumpi\n      swap2\n      dup3\n      add\n    tag_211:\n      dup3\n      dup2\n      gt\n      iszero\n      tag_212\n      jumpi\n      dup3\n      mload\n      dup3\n      sstore\n      swap2\n      0x20\n      add\n      swap2\n      swap1\n      0x01\n      add\n      swap1\n      jump(tag_211)\n    tag_212:\n    tag_208:\n      pop\n      swap1\n      pop\n      tag_213\n      swap2\n      swap1\n      tag_214\n      jump\t// in\n    tag_213:\n      pop\n      swap1\n      jump\t// out\n    tag_214:\n    tag_215:\n      dup1\n      dup3\n      gt\n      iszero\n      tag_216\n      jumpi\n      0x00\n      dup2\n      0x00\n      swap1\n      sstore\n      pop\n      0x01\n      add\n      jump(tag_215)\n    tag_216:\n      pop\n      swap1\n      jump\t// out\n        /* \"#utility.yul\":7:419   */\n    tag_218:\n        /* \"#utility.yul\":85:90   */\n      0x00\n        /* \"#utility.yul\":110:176   */\n      tag_220\n        /* \"#utility.yul\":126:175   */\n      tag_221\n        /* \"#utility.yul\":168:174   */\n      dup5\n        /* \"#utility.yul\":126:175   */\n      tag_222\n      jump\t// in\n    tag_221:\n        /* \"#utility.yul\":110:176   */\n      tag_223\n      jump\t// in\n    tag_220:\n        /* \"#utility.yul\":101:176   */\n      swap1\n      pop\n        /* \"#utility.yul\":199:205   */\n      dup3\n        /* \"#utility.yul\":192:197   */\n      dup2\n        /* \"#utility.yul\":185:206   */\n      mstore\n        /* \"#utility.yul\":237:241   */\n      0x20\n        /* \"#utility.yul\":230:235   */\n      dup2\n        /* \"#utility.yul\":226:242   */\n      add\n        /* \"#utility.yul\":275:278   */\n      dup5\n        /* \"#utility.yul\":266:272   */\n      dup5\n        /* \"#utility.yul\":261:264   */\n      dup5\n        /* \"#utility.yul\":257:273   */\n      add\n        /* \"#utility.yul\":254:279   */\n      gt\n        /* \"#utility.yul\":251:363   */\n      iszero\n      tag_224\n      jumpi\n        /* \"#utility.yul\":282:361   */\n      tag_225\n      tag_226\n      jump\t// in\n    tag_225:\n        /* \"#utility.yul\":251:363   */\n    tag_224:\n        /* \"#utility.yul\":372:413   */\n      tag_227\n        /* \"#utility.yul\":406:412   */\n      dup5\n        /* \"#utility.yul\":401:404   */\n      dup3\n        /* \"#utility.yul\":396:399   */\n      dup6\n        /* \"#utility.yul\":372:413   */\n      tag_228\n      jump\t// in\n    tag_227:\n        /* \"#utility.yul\":91:419   */\n      pop\n        /* \"#utility.yul\":7:419   */\n      swap4\n      swap3\n      pop\n      pop\n      pop\n      jump\t// out\n        /* \"#utility.yul\":425:564   */\n    tag_229:\n        /* \"#utility.yul\":471:476   */\n      0x00\n        /* \"#utility.yul\":509:515   */\n      dup2\n        /* \"#utility.yul\":496:516   */\n      calldataload\n        /* \"#utility.yul\":487:516   */\n      swap1\n      pop\n        /* \"#utility.yul\":525:558   */\n      tag_231\n        /* \"#utility.yul\":552:557   */\n      dup2\n        /* \"#utility.yul\":525:558   */\n      tag_232\n      jump\t// in\n    tag_231:\n        /* \"#utility.yul\":425:564   */\n      swap3\n      swap2\n      pop\n      pop\n      jump\t// out\n        /* \"#utility.yul\":584:924   */\n    tag_233:\n        /* \"#utility.yul\":640:645   */\n      0x00\n        /* \"#utility.yul\":689:692   */\n      dup3\n        /* \"#utility.yul\":682:686   */\n      0x1f\n        /* \"#utility.yul\":674:680   */\n      dup4\n        /* \"#utility.yul\":670:687   */\n      add\n        /* \"#utility.yul\":666:693   */\n      slt\n        /* \"#utility.yul\":656:778   */\n      tag_235\n      jumpi\n        /* \"#utility.yul\":697:776   */\n      tag_236\n      tag_237\n      jump\t// in\n    tag_236:\n        /* \"#utility.yul\":656:778   */\n    tag_235:\n        /* \"#utility.yul\":814:820   */\n      dup2\n        /* \"#utility.yul\":801:821   */\n      calldataload\n        /* \"#utility.yul\":839:918   */\n      tag_238\n        /* \"#utility.yul\":914:917   */\n      dup5\n        /* \"#utility.yul\":906:912   */\n      dup3\n        /* \"#utility.yul\":899:903   */\n      0x20\n        /* \"#utility.yul\":891:897   */\n      dup7\n        /* \"#utility.yul\":887:904   */\n      add\n        /* \"#utility.yul\":839:918   */\n      tag_218\n      jump\t// in\n    tag_238:\n        /* \"#utility.yul\":830:918   */\n      swap2\n      pop\n        /* \"#utility.yul\":646:924   */\n      pop\n        /* \"#utility.yul\":584:924   */\n      swap3\n      swap2\n      pop\n      pop\n      jump\t// out\n        /* \"#utility.yul\":930:1069   */\n    tag_239:\n        /* \"#utility.yul\":976:981   */\n      0x00\n        /* \"#utility.yul\":1014:1020   */\n      dup2\n        /* \"#utility.yul\":1001:1021   */\n      calldataload\n        /* \"#utility.yul\":992:1021   */\n      swap1\n      pop\n        /* \"#utility.yul\":1030:1063   */\n      tag_241\n        /* \"#utility.yul\":1057:1062   */\n      dup2\n        /* \"#utility.yul\":1030:1063   */\n      tag_242\n      jump\t// in\n    tag_241:\n        /* \"#utility.yul\":930:1069   */\n      swap3\n      swap2\n      pop\n      pop\n      jump\t// out\n        /* \"#utility.yul\":1075:1212   */\n    tag_243:\n        /* \"#utility.yul\":1120:1125   */\n      0x00\n        /* \"#utility.yul\":1158:1164   */\n      dup2\n        /* \"#utility.yul\":1145:1165   */\n      calldataload\n        /* \"#utility.yul\":1136:1165   */\n      swap1\n      pop\n        /* \"#utility.yul\":1174:1206   */\n      tag_245\n        /* \"#utility.yul\":1200:1205   */\n      dup2\n        /* \"#utility.yul\":1174:1206   */\n      tag_246\n      jump\t// in\n    tag_245:\n        /* \"#utility.yul\":1075:1212   */\n      swap3\n      swap2\n      pop\n      pop\n      jump\t// out\n        /* \"#utility.yul\":1218:1355   */\n    tag_247:\n        /* \"#utility.yul\":1263:1268   */\n      0x00\n        /* \"#utility.yul\":1301:1307   */\n      dup2\n        /* \"#utility.yul\":1288:1308   */\n      calldataload\n        /* \"#utility.yul\":1279:1308   */\n      swap1\n      pop\n        /* \"#utility.yul\":1317:1349   */\n      tag_249\n        /* \"#utility.yul\":1343:1348   */\n      dup2\n        /* \"#utility.yul\":1317:1349   */\n      tag_250\n      jump\t// in\n    tag_249:\n        /* \"#utility.yul\":1218:1355   */\n      swap3\n      swap2\n      pop\n      pop\n      jump\t// out\n        /* \"#utility.yul\":1361:1496   */\n    tag_251:\n        /* \"#utility.yul\":1405:1410   */\n      0x00\n        /* \"#utility.yul\":1443:1449   */\n      dup2\n        /* \"#utility.yul\":1430:1450   */\n      calldataload\n        /* \"#utility.yul\":1421:1450   */\n      swap1\n      pop\n        /* \"#utility.yul\":1459:1490   */\n      tag_253\n        /* \"#utility.yul\":1484:1489   */\n      dup2\n        /* \"#utility.yul\":1459:1490   */\n      tag_254\n      jump\t// in\n    tag_253:\n        /* \"#utility.yul\":1361:1496   */\n      swap3\n      swap2\n      pop\n      pop\n      jump\t// out\n        /* \"#utility.yul\":1502:1831   */\n    tag_35:\n        /* \"#utility.yul\":1561:1567   */\n      0x00\n        /* \"#utility.yul\":1610:1612   */\n      0x20\n        /* \"#utility.yul\":1598:1607   */\n      dup3\n        /* \"#utility.yul\":1589:1596   */\n      dup5\n        /* \"#utility.yul\":1585:1608   */\n      sub\n        /* \"#utility.yul\":1581:1613   */\n      slt\n        /* \"#utility.yul\":1578:1697   */\n      iszero\n      tag_256\n      jumpi\n        /* \"#utility.yul\":1616:1695   */\n      tag_257\n      tag_258\n      jump\t// in\n    tag_257:\n        /* \"#utility.yul\":1578:1697   */\n    tag_256:\n        /* \"#utility.yul\":1736:1737   */\n      0x00\n        /* \"#utility.yul\":1761:1814   */\n      tag_259\n        /* \"#utility.yul\":1806:1813   */\n      dup5\n        /* \"#utility.yul\":1797:1803   */\n      dup3\n        /* \"#utility.yul\":1786:1795   */\n      dup6\n        /* \"#utility.yul\":1782:1804   */\n      add\n        /* \"#utility.yul\":1761:1814   */\n      tag_229\n      jump\t// in\n    tag_259:\n        /* \"#utility.yul\":1751:1814   */\n      swap2\n      pop\n        /* \"#utility.yul\":1707:1824   */\n      pop\n        /* \"#utility.yul\":1502:1831   */\n      swap3\n      swap2\n      pop\n      pop\n      jump\t// out\n        /* \"#utility.yul\":1837:2311   */\n    tag_75:\n        /* \"#utility.yul\":1905:1911   */\n      0x00\n        /* \"#utility.yul\":1913:1919   */\n      dup1\n        /* \"#utility.yul\":1962:1964   */\n      0x40\n        /* \"#utility.yul\":1950:1959   */\n      dup4\n        /* \"#utility.yul\":1941:1948   */\n      dup6\n        /* \"#utility.yul\":1937:1960   */\n      sub\n        /* \"#utility.yul\":1933:1965   */\n      slt\n        /* \"#utility.yul\":1930:2049   */\n      iszero\n      tag_261\n      jumpi\n        /* \"#utility.yul\":1968:2047   */\n      tag_262\n      tag_258\n      jump\t// in\n    tag_262:\n        /* \"#utility.yul\":1930:2049   */\n    tag_261:\n        /* \"#utility.yul\":2088:2089   */\n      0x00\n        /* \"#utility.yul\":2113:2166   */\n      tag_263\n        /* \"#utility.yul\":2158:2165   */\n      dup6\n        /* \"#utility.yul\":2149:2155   */\n      dup3\n        /* \"#utility.yul\":2138:2147   */\n      dup7\n        /* \"#utility.yul\":2134:2156   */\n      add\n        /* \"#utility.yul\":2113:2166   */\n      tag_229\n      jump\t// in\n    tag_263:\n        /* \"#utility.yul\":2103:2166   */\n      swap3\n      pop\n        /* \"#utility.yul\":2059:2176   */\n      pop\n        /* \"#utility.yul\":2215:2217   */\n      0x20\n        /* \"#utility.yul\":2241:2294   */\n      tag_264\n        /* \"#utility.yul\":2286:2293   */\n      dup6\n        /* \"#utility.yul\":2277:2283   */\n      dup3\n        /* \"#utility.yul\":2266:2275   */\n      dup7\n        /* \"#utility.yul\":2262:2284   */\n      add\n        /* \"#utility.yul\":2241:2294   */\n      tag_239\n      jump\t// in\n    tag_264:\n        /* \"#utility.yul\":2231:2294   */\n      swap2\n      pop\n        /* \"#utility.yul\":2186:2304   */\n      pop\n        /* \"#utility.yul\":1837:2311   */\n      swap3\n      pop\n      swap3\n      swap1\n      pop\n      jump\t// out\n        /* \"#utility.yul\":2317:2826   */\n    tag_44:\n        /* \"#utility.yul\":2386:2392   */\n      0x00\n        /* \"#utility.yul\":2435:2437   */\n      0x20\n        /* \"#utility.yul\":2423:2432   */\n      dup3\n        /* \"#utility.yul\":2414:2421   */\n      dup5\n        /* \"#utility.yul\":2410:2433   */\n      sub\n        /* \"#utility.yul\":2406:2438   */\n      slt\n        /* \"#utility.yul\":2403:2522   */\n      iszero\n      tag_266\n      jumpi\n        /* \"#utility.yul\":2441:2520   */\n      tag_267\n      tag_258\n      jump\t// in\n    tag_267:\n        /* \"#utility.yul\":2403:2522   */\n    tag_266:\n        /* \"#utility.yul\":2589:2590   */\n      0x00\n        /* \"#utility.yul\":2578:2587   */\n      dup3\n        /* \"#utility.yul\":2574:2591   */\n      add\n        /* \"#utility.yul\":2561:2592   */\n      calldataload\n        /* \"#utility.yul\":2619:2637   */\n      0xffffffffffffffff\n        /* \"#utility.yul\":2611:2617   */\n      dup2\n        /* \"#utility.yul\":2608:2638   */\n      gt\n        /* \"#utility.yul\":2605:2722   */\n      iszero\n      tag_268\n      jumpi\n        /* \"#utility.yul\":2641:2720   */\n      tag_269\n      tag_270\n      jump\t// in\n    tag_269:\n        /* \"#utility.yul\":2605:2722   */\n    tag_268:\n        /* \"#utility.yul\":2746:2809   */\n      tag_271\n        /* \"#utility.yul\":2801:2808   */\n      dup5\n        /* \"#utility.yul\":2792:2798   */\n      dup3\n        /* \"#utility.yul\":2781:2790   */\n      dup6\n        /* \"#utility.yul\":2777:2799   */\n      add\n        /* \"#utility.yul\":2746:2809   */\n      tag_233\n      jump\t// in\n    tag_271:\n        /* \"#utility.yul\":2736:2809   */\n      swap2\n      pop\n        /* \"#utility.yul\":2532:2819   */\n      pop\n        /* \"#utility.yul\":2317:2826   */\n      swap3\n      swap2\n      pop\n      pop\n      jump\t// out\n        /* \"#utility.yul\":2832:3627   */\n    tag_90:\n        /* \"#utility.yul\":2917:2923   */\n      0x00\n        /* \"#utility.yul\":2925:2931   */\n      dup1\n        /* \"#utility.yul\":2933:2939   */\n      0x00\n        /* \"#utility.yul\":2982:2984   */\n      0x60\n        /* \"#utility.yul\":2970:2979   */\n      dup5\n        /* \"#utility.yul\":2961:2968   */\n      dup7\n        /* \"#utility.yul\":2957:2980   */\n      sub\n        /* \"#utility.yul\":2953:2985   */\n      slt\n        /* \"#utility.yul\":2950:3069   */\n      iszero\n      tag_273\n      jumpi\n        /* \"#utility.yul\":2988:3067   */\n      tag_274\n      tag_258\n      jump\t// in\n    tag_274:\n        /* \"#utility.yul\":2950:3069   */\n    tag_273:\n        /* \"#utility.yul\":3136:3137   */\n      0x00\n        /* \"#utility.yul\":3125:3134   */\n      dup5\n        /* \"#utility.yul\":3121:3138   */\n      add\n        /* \"#utility.yul\":3108:3139   */\n      calldataload\n        /* \"#utility.yul\":3166:3184   */\n      0xffffffffffffffff\n        /* \"#utility.yul\":3158:3164   */\n      dup2\n        /* \"#utility.yul\":3155:3185   */\n      gt\n        /* \"#utility.yul\":3152:3269   */\n      iszero\n      tag_275\n      jumpi\n        /* \"#utility.yul\":3188:3267   */\n      tag_276\n      tag_270\n      jump\t// in\n    tag_276:\n        /* \"#utility.yul\":3152:3269   */\n    tag_275:\n        /* \"#utility.yul\":3293:3356   */\n      tag_277\n        /* \"#utility.yul\":3348:3355   */\n      dup7\n        /* \"#utility.yul\":3339:3345   */\n      dup3\n        /* \"#utility.yul\":3328:3337   */\n      dup8\n        /* \"#utility.yul\":3324:3346   */\n      add\n        /* \"#utility.yul\":3293:3356   */\n      tag_233\n      jump\t// in\n    tag_277:\n        /* \"#utility.yul\":3283:3356   */\n      swap4\n      pop\n        /* \"#utility.yul\":3079:3366   */\n      pop\n        /* \"#utility.yul\":3405:3407   */\n      0x20\n        /* \"#utility.yul\":3431:3483   */\n      tag_278\n        /* \"#utility.yul\":3475:3482   */\n      dup7\n        /* \"#utility.yul\":3466:3472   */\n      dup3\n        /* \"#utility.yul\":3455:3464   */\n      dup8\n        /* \"#utility.yul\":3451:3473   */\n      add\n        /* \"#utility.yul\":3431:3483   */\n      tag_243\n      jump\t// in\n    tag_278:\n        /* \"#utility.yul\":3421:3483   */\n      swap3\n      pop\n        /* \"#utility.yul\":3376:3493   */\n      pop\n        /* \"#utility.yul\":3532:3534   */\n      0x40\n        /* \"#utility.yul\":3558:3610   */\n      tag_279\n        /* \"#utility.yul\":3602:3609   */\n      dup7\n        /* \"#utility.yul\":3593:3599   */\n      dup3\n        /* \"#utility.yul\":3582:3591   */\n      dup8\n        /* \"#utility.yul\":3578:3600   */\n      add\n        /* \"#utility.yul\":3558:3610   */\n      tag_243\n      jump\t// in\n    tag_279:\n        /* \"#utility.yul\":3548:3610   */\n      swap2\n      pop\n        /* \"#utility.yul\":3503:3620   */\n      pop\n        /* \"#utility.yul\":2832:3627   */\n      swap3\n      pop\n      swap3\n      pop\n      swap3\n      jump\t// out\n        /* \"#utility.yul\":3633:4610   */\n    tag_30:\n        /* \"#utility.yul\":3729:3735   */\n      0x00\n        /* \"#utility.yul\":3737:3743   */\n      dup1\n        /* \"#utility.yul\":3745:3751   */\n      0x00\n        /* \"#utility.yul\":3794:3796   */\n      0x60\n        /* \"#utility.yul\":3782:3791   */\n      dup5\n        /* \"#utility.yul\":3773:3780   */\n      dup7\n        /* \"#utility.yul\":3769:3792   */\n      sub\n        /* \"#utility.yul\":3765:3797   */\n      slt\n        /* \"#utility.yul\":3762:3881   */\n      iszero\n      tag_281\n      jumpi\n        /* \"#utility.yul\":3800:3879   */\n      tag_282\n      tag_258\n      jump\t// in\n    tag_282:\n        /* \"#utility.yul\":3762:3881   */\n    tag_281:\n        /* \"#utility.yul\":3948:3949   */\n      0x00\n        /* \"#utility.yul\":3937:3946   */\n      dup5\n        /* \"#utility.yul\":3933:3950   */\n      add\n        /* \"#utility.yul\":3920:3951   */\n      calldataload\n        /* \"#utility.yul\":3978:3996   */\n      0xffffffffffffffff\n        /* \"#utility.yul\":3970:3976   */\n      dup2\n        /* \"#utility.yul\":3967:3997   */\n      gt\n        /* \"#utility.yul\":3964:4081   */\n      iszero\n      tag_283\n      jumpi\n        /* \"#utility.yul\":4000:4079   */\n      tag_284\n      tag_270\n      jump\t// in\n    tag_284:\n        /* \"#utility.yul\":3964:4081   */\n    tag_283:\n        /* \"#utility.yul\":4105:4168   */\n      tag_285\n        /* \"#utility.yul\":4160:4167   */\n      dup7\n        /* \"#utility.yul\":4151:4157   */\n      dup3\n        /* \"#utility.yul\":4140:4149   */\n      dup8\n        /* \"#utility.yul\":4136:4158   */\n      add\n        /* \"#utility.yul\":4105:4168   */\n      tag_233\n      jump\t// in\n    tag_285:\n        /* \"#utility.yul\":4095:4168   */\n      swap4\n      pop\n        /* \"#utility.yul\":3891:4178   */\n      pop\n        /* \"#utility.yul\":4217:4219   */\n      0x20\n        /* \"#utility.yul\":4243:4295   */\n      tag_286\n        /* \"#utility.yul\":4287:4294   */\n      dup7\n        /* \"#utility.yul\":4278:4284   */\n      dup3\n        /* \"#utility.yul\":4267:4276   */\n      dup8\n        /* \"#utility.yul\":4263:4285   */\n      add\n        /* \"#utility.yul\":4243:4295   */\n      tag_247\n      jump\t// in\n    tag_286:\n        /* \"#utility.yul\":4233:4295   */\n      swap3\n      pop\n        /* \"#utility.yul\":4188:4305   */\n      pop\n        /* \"#utility.yul\":4372:4374   */\n      0x40\n        /* \"#utility.yul\":4361:4370   */\n      dup5\n        /* \"#utility.yul\":4357:4375   */\n      add\n        /* \"#utility.yul\":4344:4376   */\n      calldataload\n        /* \"#utility.yul\":4403:4421   */\n      0xffffffffffffffff\n        /* \"#utility.yul\":4395:4401   */\n      dup2\n        /* \"#utility.yul\":4392:4422   */\n      gt\n        /* \"#utility.yul\":4389:4506   */\n      iszero\n      tag_287\n      jumpi\n        /* \"#utility.yul\":4425:4504   */\n      tag_288\n      tag_270\n      jump\t// in\n    tag_288:\n        /* \"#utility.yul\":4389:4506   */\n    tag_287:\n        /* \"#utility.yul\":4530:4593   */\n      tag_289\n        /* \"#utility.yul\":4585:4592   */\n      dup7\n        /* \"#utility.yul\":4576:4582   */\n      dup3\n        /* \"#utility.yul\":4565:4574   */\n      dup8\n        /* \"#utility.yul\":4561:4583   */\n      add\n        /* \"#utility.yul\":4530:4593   */\n      tag_233\n      jump\t// in\n    tag_289:\n        /* \"#utility.yul\":4520:4593   */\n      swap2\n      pop\n        /* \"#utility.yul\":4315:4603   */\n      pop\n        /* \"#utility.yul\":3633:4610   */\n      swap3\n      pop\n      swap3\n      pop\n      swap3\n      jump\t// out\n        /* \"#utility.yul\":4616:6205   */\n    tag_25:\n        /* \"#utility.yul\":4746:4752   */\n      0x00\n        /* \"#utility.yul\":4754:4760   */\n      dup1\n        /* \"#utility.yul\":4762:4768   */\n      0x00\n        /* \"#utility.yul\":4770:4776   */\n      dup1\n        /* \"#utility.yul\":4778:4784   */\n      0x00\n        /* \"#utility.yul\":4786:4792   */\n      dup1\n        /* \"#utility.yul\":4835:4838   */\n      0xc0\n        /* \"#utility.yul\":4823:4832   */\n      dup8\n        /* \"#utility.yul\":4814:4821   */\n      dup10\n        /* \"#utility.yul\":4810:4833   */\n      sub\n        /* \"#utility.yul\":4806:4839   */\n      slt\n        /* \"#utility.yul\":4803:4923   */\n      iszero\n      tag_291\n      jumpi\n        /* \"#utility.yul\":4842:4921   */\n      tag_292\n      tag_258\n      jump\t// in\n    tag_292:\n        /* \"#utility.yul\":4803:4923   */\n    tag_291:\n        /* \"#utility.yul\":4990:4991   */\n      0x00\n        /* \"#utility.yul\":4979:4988   */\n      dup8\n        /* \"#utility.yul\":4975:4992   */\n      add\n        /* \"#utility.yul\":4962:4993   */\n      calldataload\n        /* \"#utility.yul\":5020:5038   */\n      0xffffffffffffffff\n        /* \"#utility.yul\":5012:5018   */\n      dup2\n        /* \"#utility.yul\":5009:5039   */\n      gt\n        /* \"#utility.yul\":5006:5123   */\n      iszero\n      tag_293\n      jumpi\n        /* \"#utility.yul\":5042:5121   */\n      tag_294\n      tag_270\n      jump\t// in\n    tag_294:\n        /* \"#utility.yul\":5006:5123   */\n    tag_293:\n        /* \"#utility.yul\":5147:5210   */\n      tag_295\n        /* \"#utility.yul\":5202:5209   */\n      dup10\n        /* \"#utility.yul\":5193:5199   */\n      dup3\n        /* \"#utility.yul\":5182:5191   */\n      dup11\n        /* \"#utility.yul\":5178:5200   */\n      add\n        /* \"#utility.yul\":5147:5210   */\n      tag_233\n      jump\t// in\n    tag_295:\n        /* \"#utility.yul\":5137:5210   */\n      swap7\n      pop\n        /* \"#utility.yul\":4933:5220   */\n      pop\n        /* \"#utility.yul\":5259:5261   */\n      0x20\n        /* \"#utility.yul\":5285:5336   */\n      tag_296\n        /* \"#utility.yul\":5328:5335   */\n      dup10\n        /* \"#utility.yul\":5319:5325   */\n      dup3\n        /* \"#utility.yul\":5308:5317   */\n      dup11\n        /* \"#utility.yul\":5304:5326   */\n      add\n        /* \"#utility.yul\":5285:5336   */\n      tag_251\n      jump\t// in\n    tag_296:\n        /* \"#utility.yul\":5275:5336   */\n      swap6\n      pop\n        /* \"#utility.yul\":5230:5346   */\n      pop\n        /* \"#utility.yul\":5385:5387   */\n      0x40\n        /* \"#utility.yul\":5411:5463   */\n      tag_297\n        /* \"#utility.yul\":5455:5462   */\n      dup10\n        /* \"#utility.yul\":5446:5452   */\n      dup3\n        /* \"#utility.yul\":5435:5444   */\n      dup11\n        /* \"#utility.yul\":5431:5453   */\n      add\n        /* \"#utility.yul\":5411:5463   */\n      tag_243\n      jump\t// in\n    tag_297:\n        /* \"#utility.yul\":5401:5463   */\n      swap5\n      pop\n        /* \"#utility.yul\":5356:5473   */\n      pop\n        /* \"#utility.yul\":5512:5514   */\n      0x60\n        /* \"#utility.yul\":5538:5590   */\n      tag_298\n        /* \"#utility.yul\":5582:5589   */\n      dup10\n        /* \"#utility.yul\":5573:5579   */\n      dup3\n        /* \"#utility.yul\":5562:5571   */\n      dup11\n        /* \"#utility.yul\":5558:5580   */\n      add\n        /* \"#utility.yul\":5538:5590   */\n      tag_243\n      jump\t// in\n    tag_298:\n        /* \"#utility.yul\":5528:5590   */\n      swap4\n      pop\n        /* \"#utility.yul\":5483:5600   */\n      pop\n        /* \"#utility.yul\":5667:5670   */\n      0x80\n        /* \"#utility.yul\":5656:5665   */\n      dup8\n        /* \"#utility.yul\":5652:5671   */\n      add\n        /* \"#utility.yul\":5639:5672   */\n      calldataload\n        /* \"#utility.yul\":5699:5717   */\n      0xffffffffffffffff\n        /* \"#utility.yul\":5691:5697   */\n      dup2\n        /* \"#utility.yul\":5688:5718   */\n      gt\n        /* \"#utility.yul\":5685:5802   */\n      iszero\n      tag_299\n      jumpi\n        /* \"#utility.yul\":5721:5800   */\n      tag_300\n      tag_270\n      jump\t// in\n    tag_300:\n        /* \"#utility.yul\":5685:5802   */\n    tag_299:\n        /* \"#utility.yul\":5826:5889   */\n      tag_301\n        /* \"#utility.yul\":5881:5888   */\n      dup10\n        /* \"#utility.yul\":5872:5878   */\n      dup3\n        /* \"#utility.yul\":5861:5870   */\n      dup11\n        /* \"#utility.yul\":5857:5879   */\n      add\n        /* \"#utility.yul\":5826:5889   */\n      tag_233\n      jump\t// in\n    tag_301:\n        /* \"#utility.yul\":5816:5889   */\n      swap3\n      pop\n        /* \"#utility.yul\":5610:5899   */\n      pop\n        /* \"#utility.yul\":5966:5969   */\n      0xa0\n        /* \"#utility.yul\":5955:5964   */\n      dup8\n        /* \"#utility.yul\":5951:5970   */\n      add\n        /* \"#utility.yul\":5938:5971   */\n      calldataload\n        /* \"#utility.yul\":5998:6016   */\n      0xffffffffffffffff\n        /* \"#utility.yul\":5990:5996   */\n      dup2\n        /* \"#utility.yul\":5987:6017   */\n      gt\n        /* \"#utility.yul\":5984:6101   */\n      iszero\n      tag_302\n      jumpi\n        /* \"#utility.yul\":6020:6099   */\n      tag_303\n      tag_270\n      jump\t// in\n    tag_303:\n        /* \"#utility.yul\":5984:6101   */\n    tag_302:\n        /* \"#utility.yul\":6125:6188   */\n      tag_304\n        /* \"#utility.yul\":6180:6187   */\n      dup10\n        /* \"#utility.yul\":6171:6177   */\n      dup3\n        /* \"#utility.yul\":6160:6169   */\n      dup11\n        /* \"#utility.yul\":6156:6178   */\n      add\n        /* \"#utility.yul\":6125:6188   */\n      tag_233\n      jump\t// in\n    tag_304:\n        /* \"#utility.yul\":6115:6188   */\n      swap2\n      pop\n        /* \"#utility.yul\":5909:6198   */\n      pop\n        /* \"#utility.yul\":4616:6205   */\n      swap3\n      swap6\n      pop\n      swap3\n      swap6\n      pop\n      swap3\n      swap6\n      jump\t// out\n        /* \"#utility.yul\":6211:6540   */\n    tag_70:\n        /* \"#utility.yul\":6270:6276   */\n      0x00\n        /* \"#utility.yul\":6319:6321   */\n      0x20\n        /* \"#utility.yul\":6307:6316   */\n      dup3\n        /* \"#utility.yul\":6298:6305   */\n      dup5\n        /* \"#utility.yul\":6294:6317   */\n      sub\n        /* \"#utility.yul\":6290:6322   */\n      slt\n        /* \"#utility.yul\":6287:6406   */\n      iszero\n      tag_306\n      jumpi\n        /* \"#utility.yul\":6325:6404   */\n      tag_307\n      tag_258\n      jump\t// in\n    tag_307:\n        /* \"#utility.yul\":6287:6406   */\n    tag_306:\n        /* \"#utility.yul\":6445:6446   */\n      0x00\n        /* \"#utility.yul\":6470:6523   */\n      tag_308\n        /* \"#utility.yul\":6515:6522   */\n      dup5\n        /* \"#utility.yul\":6506:6512   */\n      dup3\n        /* \"#utility.yul\":6495:6504   */\n      dup6\n        /* \"#utility.yul\":6491:6513   */\n      add\n        /* \"#utility.yul\":6470:6523   */\n      tag_239\n      jump\t// in\n    tag_308:\n        /* \"#utility.yul\":6460:6523   */\n      swap2\n      pop\n        /* \"#utility.yul\":6416:6533   */\n      pop\n        /* \"#utility.yul\":6211:6540   */\n      swap3\n      swap2\n      pop\n      pop\n      jump\t// out\n        /* \"#utility.yul\":6546:6688   */\n    tag_309:\n        /* \"#utility.yul\":6649:6681   */\n      tag_311\n        /* \"#utility.yul\":6675:6680   */\n      dup2\n        /* \"#utility.yul\":6649:6681   */\n      tag_312\n      jump\t// in\n    tag_311:\n        /* \"#utility.yul\":6644:6647   */\n      dup3\n        /* \"#utility.yul\":6637:6682   */\n      mstore\n        /* \"#utility.yul\":6546:6688   */\n      pop\n      pop\n      jump\t// out\n        /* \"#utility.yul\":6694:6812   */\n    tag_313:\n        /* \"#utility.yul\":6781:6805   */\n      tag_315\n        /* \"#utility.yul\":6799:6804   */\n      dup2\n        /* \"#utility.yul\":6781:6805   */\n      tag_316\n      jump\t// in\n    tag_315:\n        /* \"#utility.yul\":6776:6779   */\n      dup3\n        /* \"#utility.yul\":6769:6806   */\n      mstore\n        /* \"#utility.yul\":6694:6812   */\n      pop\n      pop\n      jump\t// out\n        /* \"#utility.yul\":6818:6927   */\n    tag_317:\n        /* \"#utility.yul\":6899:6920   */\n      tag_319\n        /* \"#utility.yul\":6914:6919   */\n      dup2\n        /* \"#utility.yul\":6899:6920   */\n      tag_320\n      jump\t// in\n    tag_319:\n        /* \"#utility.yul\":6894:6897   */\n      dup3\n        /* \"#utility.yul\":6887:6921   */\n      mstore\n        /* \"#utility.yul\":6818:6927   */\n      pop\n      pop\n      jump\t// out\n        /* \"#utility.yul\":6933:7277   */\n    tag_321:\n        /* \"#utility.yul\":7011:7014   */\n      0x00\n        /* \"#utility.yul\":7039:7078   */\n      tag_323\n        /* \"#utility.yul\":7072:7077   */\n      dup3\n        /* \"#utility.yul\":7039:7078   */\n      tag_324\n      jump\t// in\n    tag_323:\n        /* \"#utility.yul\":7094:7155   */\n      tag_325\n        /* \"#utility.yul\":7148:7154   */\n      dup2\n        /* \"#utility.yul\":7143:7146   */\n      dup6\n        /* \"#utility.yul\":7094:7155   */\n      tag_326\n      jump\t// in\n    tag_325:\n        /* \"#utility.yul\":7087:7155   */\n      swap4\n      pop\n        /* \"#utility.yul\":7164:7216   */\n      tag_327\n        /* \"#utility.yul\":7209:7215   */\n      dup2\n        /* \"#utility.yul\":7204:7207   */\n      dup6\n        /* \"#utility.yul\":7197:7201   */\n      0x20\n        /* \"#utility.yul\":7190:7195   */\n      dup7\n        /* \"#utility.yul\":7186:7202   */\n      add\n        /* \"#utility.yul\":7164:7216   */\n      tag_328\n      jump\t// in\n    tag_327:\n        /* \"#utility.yul\":7241:7270   */\n      tag_329\n        /* \"#utility.yul\":7263:7269   */\n      dup2\n        /* \"#utility.yul\":7241:7270   */\n      tag_330\n      jump\t// in\n    tag_329:\n        /* \"#utility.yul\":7236:7239   */\n      dup5\n        /* \"#utility.yul\":7232:7271   */\n      add\n        /* \"#utility.yul\":7225:7271   */\n      swap2\n      pop\n        /* \"#utility.yul\":7015:7277   */\n      pop\n        /* \"#utility.yul\":6933:7277   */\n      swap3\n      swap2\n      pop\n      pop\n      jump\t// out\n        /* \"#utility.yul\":7283:7647   */\n    tag_331:\n        /* \"#utility.yul\":7371:7374   */\n      0x00\n        /* \"#utility.yul\":7399:7438   */\n      tag_333\n        /* \"#utility.yul\":7432:7437   */\n      dup3\n        /* \"#utility.yul\":7399:7438   */\n      tag_324\n      jump\t// in\n    tag_333:\n        /* \"#utility.yul\":7454:7525   */\n      tag_334\n        /* \"#utility.yul\":7518:7524   */\n      dup2\n        /* \"#utility.yul\":7513:7516   */\n      dup6\n        /* \"#utility.yul\":7454:7525   */\n      tag_335\n      jump\t// in\n    tag_334:\n        /* \"#utility.yul\":7447:7525   */\n      swap4\n      pop\n        /* \"#utility.yul\":7534:7586   */\n      tag_336\n        /* \"#utility.yul\":7579:7585   */\n      dup2\n        /* \"#utility.yul\":7574:7577   */\n      dup6\n        /* \"#utility.yul\":7567:7571   */\n      0x20\n        /* \"#utility.yul\":7560:7565   */\n      dup7\n        /* \"#utility.yul\":7556:7572   */\n      add\n        /* \"#utility.yul\":7534:7586   */\n      tag_328\n      jump\t// in\n    tag_336:\n        /* \"#utility.yul\":7611:7640   */\n      tag_337\n        /* \"#utility.yul\":7633:7639   */\n      dup2\n        /* \"#utility.yul\":7611:7640   */\n      tag_330\n      jump\t// in\n    tag_337:\n        /* \"#utility.yul\":7606:7609   */\n      dup5\n        /* \"#utility.yul\":7602:7641   */\n      add\n        /* \"#utility.yul\":7595:7641   */\n      swap2\n      pop\n        /* \"#utility.yul\":7375:7647   */\n      pop\n        /* \"#utility.yul\":7283:7647   */\n      swap3\n      swap2\n      pop\n      pop\n      jump\t// out\n        /* \"#utility.yul\":7653:8030   */\n    tag_338:\n        /* \"#utility.yul\":7759:7762   */\n      0x00\n        /* \"#utility.yul\":7787:7826   */\n      tag_340\n        /* \"#utility.yul\":7820:7825   */\n      dup3\n        /* \"#utility.yul\":7787:7826   */\n      tag_324\n      jump\t// in\n    tag_340:\n        /* \"#utility.yul\":7842:7931   */\n      tag_341\n        /* \"#utility.yul\":7924:7930   */\n      dup2\n        /* \"#utility.yul\":7919:7922   */\n      dup6\n        /* \"#utility.yul\":7842:7931   */\n      tag_342\n      jump\t// in\n    tag_341:\n        /* \"#utility.yul\":7835:7931   */\n      swap4\n      pop\n        /* \"#utility.yul\":7940:7992   */\n      tag_343\n        /* \"#utility.yul\":7985:7991   */\n      dup2\n        /* \"#utility.yul\":7980:7983   */\n      dup6\n        /* \"#utility.yul\":7973:7977   */\n      0x20\n        /* \"#utility.yul\":7966:7971   */\n      dup7\n        /* \"#utility.yul\":7962:7978   */\n      add\n        /* \"#utility.yul\":7940:7992   */\n      tag_328\n      jump\t// in\n    tag_343:\n        /* \"#utility.yul\":8017:8023   */\n      dup1\n        /* \"#utility.yul\":8012:8015   */\n      dup5\n        /* \"#utility.yul\":8008:8024   */\n      add\n        /* \"#utility.yul\":8001:8024   */\n      swap2\n      pop\n        /* \"#utility.yul\":7763:8030   */\n      pop\n        /* \"#utility.yul\":7653:8030   */\n      swap3\n      swap2\n      pop\n      pop\n      jump\t// out\n        /* \"#utility.yul\":8078:8939   */\n    tag_344:\n        /* \"#utility.yul\":8195:8198   */\n      0x00\n        /* \"#utility.yul\":8231:8235   */\n      0x60\n        /* \"#utility.yul\":8226:8229   */\n      dup4\n        /* \"#utility.yul\":8222:8236   */\n      add\n        /* \"#utility.yul\":8320:8324   */\n      0x00\n        /* \"#utility.yul\":8313:8318   */\n      dup4\n        /* \"#utility.yul\":8309:8325   */\n      add\n        /* \"#utility.yul\":8303:8326   */\n      mload\n        /* \"#utility.yul\":8373:8376   */\n      dup5\n        /* \"#utility.yul\":8367:8371   */\n      dup3\n        /* \"#utility.yul\":8363:8377   */\n      sub\n        /* \"#utility.yul\":8356:8360   */\n      0x00\n        /* \"#utility.yul\":8351:8354   */\n      dup7\n        /* \"#utility.yul\":8347:8361   */\n      add\n        /* \"#utility.yul\":8340:8378   */\n      mstore\n        /* \"#utility.yul\":8399:8472   */\n      tag_346\n        /* \"#utility.yul\":8467:8471   */\n      dup3\n        /* \"#utility.yul\":8453:8465   */\n      dup3\n        /* \"#utility.yul\":8399:8472   */\n      tag_321\n      jump\t// in\n    tag_346:\n        /* \"#utility.yul\":8391:8472   */\n      swap2\n      pop\n        /* \"#utility.yul\":8246:8483   */\n      pop\n        /* \"#utility.yul\":8573:8577   */\n      0x20\n        /* \"#utility.yul\":8566:8571   */\n      dup4\n        /* \"#utility.yul\":8562:8578   */\n      add\n        /* \"#utility.yul\":8556:8579   */\n      mload\n        /* \"#utility.yul\":8592:8653   */\n      tag_347\n        /* \"#utility.yul\":8647:8651   */\n      0x20\n        /* \"#utility.yul\":8642:8645   */\n      dup7\n        /* \"#utility.yul\":8638:8652   */\n      add\n        /* \"#utility.yul\":8624:8636   */\n      dup3\n        /* \"#utility.yul\":8592:8653   */\n      tag_348\n      jump\t// in\n    tag_347:\n        /* \"#utility.yul\":8493:8663   */\n      pop\n        /* \"#utility.yul\":8749:8753   */\n      0x40\n        /* \"#utility.yul\":8742:8747   */\n      dup4\n        /* \"#utility.yul\":8738:8754   */\n      add\n        /* \"#utility.yul\":8732:8755   */\n      mload\n        /* \"#utility.yul\":8802:8805   */\n      dup5\n        /* \"#utility.yul\":8796:8800   */\n      dup3\n        /* \"#utility.yul\":8792:8806   */\n      sub\n        /* \"#utility.yul\":8785:8789   */\n      0x40\n        /* \"#utility.yul\":8780:8783   */\n      dup7\n        /* \"#utility.yul\":8776:8790   */\n      add\n        /* \"#utility.yul\":8769:8807   */\n      mstore\n        /* \"#utility.yul\":8828:8901   */\n      tag_349\n        /* \"#utility.yul\":8896:8900   */\n      dup3\n        /* \"#utility.yul\":8882:8894   */\n      dup3\n        /* \"#utility.yul\":8828:8901   */\n      tag_321\n      jump\t// in\n    tag_349:\n        /* \"#utility.yul\":8820:8901   */\n      swap2\n      pop\n        /* \"#utility.yul\":8673:8912   */\n      pop\n        /* \"#utility.yul\":8929:8933   */\n      dup1\n        /* \"#utility.yul\":8922:8933   */\n      swap2\n      pop\n        /* \"#utility.yul\":8200:8939   */\n      pop\n        /* \"#utility.yul\":8078:8939   */\n      swap3\n      swap2\n      pop\n      pop\n      jump\t// out\n        /* \"#utility.yul\":8945:9063   */\n    tag_350:\n        /* \"#utility.yul\":9032:9056   */\n      tag_352\n        /* \"#utility.yul\":9050:9055   */\n      dup2\n        /* \"#utility.yul\":9032:9056   */\n      tag_353\n      jump\t// in\n    tag_352:\n        /* \"#utility.yul\":9027:9030   */\n      dup3\n        /* \"#utility.yul\":9020:9057   */\n      mstore\n        /* \"#utility.yul\":8945:9063   */\n      pop\n      pop\n      jump\t// out\n        /* \"#utility.yul\":9069:9184   */\n    tag_354:\n        /* \"#utility.yul\":9154:9177   */\n      tag_356\n        /* \"#utility.yul\":9171:9176   */\n      dup2\n        /* \"#utility.yul\":9154:9177   */\n      tag_357\n      jump\t// in\n    tag_356:\n        /* \"#utility.yul\":9149:9152   */\n      dup3\n        /* \"#utility.yul\":9142:9178   */\n      mstore\n        /* \"#utility.yul\":9069:9184   */\n      pop\n      pop\n      jump\t// out\n        /* \"#utility.yul\":9190:9295   */\n    tag_348:\n        /* \"#utility.yul\":9265:9288   */\n      tag_359\n        /* \"#utility.yul\":9282:9287   */\n      dup2\n        /* \"#utility.yul\":9265:9288   */\n      tag_360\n      jump\t// in\n    tag_359:\n        /* \"#utility.yul\":9260:9263   */\n      dup3\n        /* \"#utility.yul\":9253:9289   */\n      mstore\n        /* \"#utility.yul\":9190:9295   */\n      pop\n      pop\n      jump\t// out\n        /* \"#utility.yul\":9301:9413   */\n    tag_361:\n        /* \"#utility.yul\":9384:9406   */\n      tag_363\n        /* \"#utility.yul\":9400:9405   */\n      dup2\n        /* \"#utility.yul\":9384:9406   */\n      tag_364\n      jump\t// in\n    tag_363:\n        /* \"#utility.yul\":9379:9382   */\n      dup3\n        /* \"#utility.yul\":9372:9407   */\n      mstore\n        /* \"#utility.yul\":9301:9413   */\n      pop\n      pop\n      jump\t// out\n        /* \"#utility.yul\":9419:9694   */\n    tag_115:\n        /* \"#utility.yul\":9551:9554   */\n      0x00\n        /* \"#utility.yul\":9573:9668   */\n      tag_366\n        /* \"#utility.yul\":9664:9667   */\n      dup3\n        /* \"#utility.yul\":9655:9661   */\n      dup5\n        /* \"#utility.yul\":9573:9668   */\n      tag_338\n      jump\t// in\n    tag_366:\n        /* \"#utility.yul\":9566:9668   */\n      swap2\n      pop\n        /* \"#utility.yul\":9685:9688   */\n      dup2\n        /* \"#utility.yul\":9678:9688   */\n      swap1\n      pop\n        /* \"#utility.yul\":9419:9694   */\n      swap3\n      swap2\n      pop\n      pop\n      jump\t// out\n        /* \"#utility.yul\":9700:9922   */\n    tag_103:\n        /* \"#utility.yul\":9793:9797   */\n      0x00\n        /* \"#utility.yul\":9831:9833   */\n      0x20\n        /* \"#utility.yul\":9820:9829   */\n      dup3\n        /* \"#utility.yul\":9816:9834   */\n      add\n        /* \"#utility.yul\":9808:9834   */\n      swap1\n      pop\n        /* \"#utility.yul\":9844:9915   */\n      tag_368\n        /* \"#utility.yul\":9912:9913   */\n      0x00\n        /* \"#utility.yul\":9901:9910   */\n      dup4\n        /* \"#utility.yul\":9897:9914   */\n      add\n        /* \"#utility.yul\":9888:9894   */\n      dup5\n        /* \"#utility.yul\":9844:9915   */\n      tag_313\n      jump\t// in\n    tag_368:\n        /* \"#utility.yul\":9700:9922   */\n      swap3\n      swap2\n      pop\n      pop\n      jump\t// out\n        /* \"#utility.yul\":9928:10182   */\n    tag_52:\n        /* \"#utility.yul\":10037:10041   */\n      0x00\n        /* \"#utility.yul\":10075:10077   */\n      0x20\n        /* \"#utility.yul\":10064:10073   */\n      dup3\n        /* \"#utility.yul\":10060:10078   */\n      add\n        /* \"#utility.yul\":10052:10078   */\n      swap1\n      pop\n        /* \"#utility.yul\":10088:10175   */\n      tag_370\n        /* \"#utility.yul\":10172:10173   */\n      0x00\n        /* \"#utility.yul\":10161:10170   */\n      dup4\n        /* \"#utility.yul\":10157:10174   */\n      add\n        /* \"#utility.yul\":10148:10154   */\n      dup5\n        /* \"#utility.yul\":10088:10175   */\n      tag_309\n      jump\t// in\n    tag_370:\n        /* \"#utility.yul\":9928:10182   */\n      swap3\n      swap2\n      pop\n      pop\n      jump\t// out\n        /* \"#utility.yul\":10188:10611   */\n    tag_47:\n        /* \"#utility.yul\":10329:10333   */\n      0x00\n        /* \"#utility.yul\":10367:10369   */\n      0x40\n        /* \"#utility.yul\":10356:10365   */\n      dup3\n        /* \"#utility.yul\":10352:10370   */\n      add\n        /* \"#utility.yul\":10344:10370   */\n      swap1\n      pop\n        /* \"#utility.yul\":10380:10451   */\n      tag_372\n        /* \"#utility.yul\":10448:10449   */\n      0x00\n        /* \"#utility.yul\":10437:10446   */\n      dup4\n        /* \"#utility.yul\":10433:10450   */\n      add\n        /* \"#utility.yul\":10424:10430   */\n      dup6\n        /* \"#utility.yul\":10380:10451   */\n      tag_313\n      jump\t// in\n    tag_372:\n        /* \"#utility.yul\":10498:10507   */\n      dup2\n        /* \"#utility.yul\":10492:10496   */\n      dup2\n        /* \"#utility.yul\":10488:10508   */\n      sub\n        /* \"#utility.yul\":10483:10485   */\n      0x20\n        /* \"#utility.yul\":10472:10481   */\n      dup4\n        /* \"#utility.yul\":10468:10486   */\n      add\n        /* \"#utility.yul\":10461:10509   */\n      mstore\n        /* \"#utility.yul\":10526:10604   */\n      tag_373\n        /* \"#utility.yul\":10599:10603   */\n      dup2\n        /* \"#utility.yul\":10590:10596   */\n      dup5\n        /* \"#utility.yul\":10526:10604   */\n      tag_331\n      jump\t// in\n    tag_373:\n        /* \"#utility.yul\":10518:10604   */\n      swap1\n      pop\n        /* \"#utility.yul\":10188:10611   */\n      swap4\n      swap3\n      pop\n      pop\n      pop\n      jump\t// out\n        /* \"#utility.yul\":10617:10827   */\n    tag_66:\n        /* \"#utility.yul\":10704:10708   */\n      0x00\n        /* \"#utility.yul\":10742:10744   */\n      0x20\n        /* \"#utility.yul\":10731:10740   */\n      dup3\n        /* \"#utility.yul\":10727:10745   */\n      add\n        /* \"#utility.yul\":10719:10745   */\n      swap1\n      pop\n        /* \"#utility.yul\":10755:10820   */\n      tag_375\n        /* \"#utility.yul\":10817:10818   */\n      0x00\n        /* \"#utility.yul\":10806:10815   */\n      dup4\n        /* \"#utility.yul\":10802:10819   */\n      add\n        /* \"#utility.yul\":10793:10799   */\n      dup5\n        /* \"#utility.yul\":10755:10820   */\n      tag_317\n      jump\t// in\n    tag_375:\n        /* \"#utility.yul\":10617:10827   */\n      swap3\n      swap2\n      pop\n      pop\n      jump\t// out\n        /* \"#utility.yul\":10833:11612   */\n    tag_38:\n        /* \"#utility.yul\":11072:11076   */\n      0x00\n        /* \"#utility.yul\":11110:11113   */\n      0x80\n        /* \"#utility.yul\":11099:11108   */\n      dup3\n        /* \"#utility.yul\":11095:11114   */\n      add\n        /* \"#utility.yul\":11087:11114   */\n      swap1\n      pop\n        /* \"#utility.yul\":11160:11169   */\n      dup2\n        /* \"#utility.yul\":11154:11158   */\n      dup2\n        /* \"#utility.yul\":11150:11170   */\n      sub\n        /* \"#utility.yul\":11146:11147   */\n      0x00\n        /* \"#utility.yul\":11135:11144   */\n      dup4\n        /* \"#utility.yul\":11131:11148   */\n      add\n        /* \"#utility.yul\":11124:11171   */\n      mstore\n        /* \"#utility.yul\":11188:11266   */\n      tag_377\n        /* \"#utility.yul\":11261:11265   */\n      dup2\n        /* \"#utility.yul\":11252:11258   */\n      dup8\n        /* \"#utility.yul\":11188:11266   */\n      tag_331\n      jump\t// in\n    tag_377:\n        /* \"#utility.yul\":11180:11266   */\n      swap1\n      pop\n        /* \"#utility.yul\":11313:11322   */\n      dup2\n        /* \"#utility.yul\":11307:11311   */\n      dup2\n        /* \"#utility.yul\":11303:11323   */\n      sub\n        /* \"#utility.yul\":11298:11300   */\n      0x20\n        /* \"#utility.yul\":11287:11296   */\n      dup4\n        /* \"#utility.yul\":11283:11301   */\n      add\n        /* \"#utility.yul\":11276:11324   */\n      mstore\n        /* \"#utility.yul\":11341:11447   */\n      tag_378\n        /* \"#utility.yul\":11442:11446   */\n      dup2\n        /* \"#utility.yul\":11433:11439   */\n      dup7\n        /* \"#utility.yul\":11341:11447   */\n      tag_344\n      jump\t// in\n    tag_378:\n        /* \"#utility.yul\":11333:11447   */\n      swap1\n      pop\n        /* \"#utility.yul\":11457:11525   */\n      tag_379\n        /* \"#utility.yul\":11521:11523   */\n      0x40\n        /* \"#utility.yul\":11510:11519   */\n      dup4\n        /* \"#utility.yul\":11506:11524   */\n      add\n        /* \"#utility.yul\":11497:11503   */\n      dup6\n        /* \"#utility.yul\":11457:11525   */\n      tag_361\n      jump\t// in\n    tag_379:\n        /* \"#utility.yul\":11535:11605   */\n      tag_380\n        /* \"#utility.yul\":11601:11603   */\n      0x60\n        /* \"#utility.yul\":11590:11599   */\n      dup4\n        /* \"#utility.yul\":11586:11604   */\n      add\n        /* \"#utility.yul\":11577:11583   */\n      dup5\n        /* \"#utility.yul\":11535:11605   */\n      tag_354\n      jump\t// in\n    tag_380:\n        /* \"#utility.yul\":10833:11612   */\n      swap6\n      swap5\n      pop\n      pop\n      pop\n      pop\n      pop\n      jump\t// out\n        /* \"#utility.yul\":11618:12143   */\n    tag_97:\n        /* \"#utility.yul\":11783:11787   */\n      0x00\n        /* \"#utility.yul\":11821:11823   */\n      0x60\n        /* \"#utility.yul\":11810:11819   */\n      dup3\n        /* \"#utility.yul\":11806:11824   */\n      add\n        /* \"#utility.yul\":11798:11824   */\n      swap1\n      pop\n        /* \"#utility.yul\":11870:11879   */\n      dup2\n        /* \"#utility.yul\":11864:11868   */\n      dup2\n        /* \"#utility.yul\":11860:11880   */\n      sub\n        /* \"#utility.yul\":11856:11857   */\n      0x00\n        /* \"#utility.yul\":11845:11854   */\n      dup4\n        /* \"#utility.yul\":11841:11858   */\n      add\n        /* \"#utility.yul\":11834:11881   */\n      mstore\n        /* \"#utility.yul\":11898:11976   */\n      tag_382\n        /* \"#utility.yul\":11971:11975   */\n      dup2\n        /* \"#utility.yul\":11962:11968   */\n      dup7\n        /* \"#utility.yul\":11898:11976   */\n      tag_331\n      jump\t// in\n    tag_382:\n        /* \"#utility.yul\":11890:11976   */\n      swap1\n      pop\n        /* \"#utility.yul\":11986:12056   */\n      tag_383\n        /* \"#utility.yul\":12052:12054   */\n      0x20\n        /* \"#utility.yul\":12041:12050   */\n      dup4\n        /* \"#utility.yul\":12037:12055   */\n      add\n        /* \"#utility.yul\":12028:12034   */\n      dup6\n        /* \"#utility.yul\":11986:12056   */\n      tag_354\n      jump\t// in\n    tag_383:\n        /* \"#utility.yul\":12066:12136   */\n      tag_384\n        /* \"#utility.yul\":12132:12134   */\n      0x40\n        /* \"#utility.yul\":12121:12130   */\n      dup4\n        /* \"#utility.yul\":12117:12135   */\n      add\n        /* \"#utility.yul\":12108:12114   */\n      dup5\n        /* \"#utility.yul\":12066:12136   */\n      tag_354\n      jump\t// in\n    tag_384:\n        /* \"#utility.yul\":11618:12143   */\n      swap5\n      swap4\n      pop\n      pop\n      pop\n      pop\n      jump\t// out\n        /* \"#utility.yul\":12149:12371   */\n    tag_78:\n        /* \"#utility.yul\":12242:12246   */\n      0x00\n        /* \"#utility.yul\":12280:12282   */\n      0x20\n        /* \"#utility.yul\":12269:12278   */\n      dup3\n        /* \"#utility.yul\":12265:12283   */\n      add\n        /* \"#utility.yul\":12257:12283   */\n      swap1\n      pop\n        /* \"#utility.yul\":12293:12364   */\n      tag_386\n        /* \"#utility.yul\":12361:12362   */\n      0x00\n        /* \"#utility.yul\":12350:12359   */\n      dup4\n        /* \"#utility.yul\":12346:12363   */\n      add\n        /* \"#utility.yul\":12337:12343   */\n      dup5\n        /* \"#utility.yul\":12293:12364   */\n      tag_350\n      jump\t// in\n    tag_386:\n        /* \"#utility.yul\":12149:12371   */\n      swap3\n      swap2\n      pop\n      pop\n      jump\t// out\n        /* \"#utility.yul\":12377:12506   */\n    tag_223:\n        /* \"#utility.yul\":12411:12417   */\n      0x00\n        /* \"#utility.yul\":12438:12458   */\n      tag_388\n      tag_389\n      jump\t// in\n    tag_388:\n        /* \"#utility.yul\":12428:12458   */\n      swap1\n      pop\n        /* \"#utility.yul\":12467:12500   */\n      tag_390\n        /* \"#utility.yul\":12495:12499   */\n      dup3\n        /* \"#utility.yul\":12487:12493   */\n      dup3\n        /* \"#utility.yul\":12467:12500   */\n      tag_391\n      jump\t// in\n    tag_390:\n        /* \"#utility.yul\":12377:12506   */\n      swap2\n      swap1\n      pop\n      jump\t// out\n        /* \"#utility.yul\":12512:12587   */\n    tag_389:\n        /* \"#utility.yul\":12545:12551   */\n      0x00\n        /* \"#utility.yul\":12578:12580   */\n      0x40\n        /* \"#utility.yul\":12572:12581   */\n      mload\n        /* \"#utility.yul\":12562:12581   */\n      swap1\n      pop\n        /* \"#utility.yul\":12512:12587   */\n      swap1\n      jump\t// out\n        /* \"#utility.yul\":12593:12901   */\n    tag_222:\n        /* \"#utility.yul\":12655:12659   */\n      0x00\n        /* \"#utility.yul\":12745:12763   */\n      0xffffffffffffffff\n        /* \"#utility.yul\":12737:12743   */\n      dup3\n        /* \"#utility.yul\":12734:12764   */\n      gt\n        /* \"#utility.yul\":12731:12787   */\n      iszero\n      tag_394\n      jumpi\n        /* \"#utility.yul\":12767:12785   */\n      tag_395\n      tag_396\n      jump\t// in\n    tag_395:\n        /* \"#utility.yul\":12731:12787   */\n    tag_394:\n        /* \"#utility.yul\":12805:12834   */\n      tag_397\n        /* \"#utility.yul\":12827:12833   */\n      dup3\n        /* \"#utility.yul\":12805:12834   */\n      tag_330\n      jump\t// in\n    tag_397:\n        /* \"#utility.yul\":12797:12834   */\n      swap1\n      pop\n        /* \"#utility.yul\":12889:12893   */\n      0x20\n        /* \"#utility.yul\":12883:12887   */\n      dup2\n        /* \"#utility.yul\":12879:12894   */\n      add\n        /* \"#utility.yul\":12871:12894   */\n      swap1\n      pop\n        /* \"#utility.yul\":12593:12901   */\n      swap2\n      swap1\n      pop\n      jump\t// out\n        /* \"#utility.yul\":12907:13006   */\n    tag_324:\n        /* \"#utility.yul\":12959:12965   */\n      0x00\n        /* \"#utility.yul\":12993:12998   */\n      dup2\n        /* \"#utility.yul\":12987:12999   */\n      mload\n        /* \"#utility.yul\":12977:12999   */\n      swap1\n      pop\n        /* \"#utility.yul\":12907:13006   */\n      swap2\n      swap1\n      pop\n      jump\t// out\n        /* \"#utility.yul\":13012:13171   */\n    tag_326:\n        /* \"#utility.yul\":13086:13097   */\n      0x00\n        /* \"#utility.yul\":13120:13126   */\n      dup3\n        /* \"#utility.yul\":13115:13118   */\n      dup3\n        /* \"#utility.yul\":13108:13127   */\n      mstore\n        /* \"#utility.yul\":13160:13164   */\n      0x20\n        /* \"#utility.yul\":13155:13158   */\n      dup3\n        /* \"#utility.yul\":13151:13165   */\n      add\n        /* \"#utility.yul\":13136:13165   */\n      swap1\n      pop\n        /* \"#utility.yul\":13012:13171   */\n      swap3\n      swap2\n      pop\n      pop\n      jump\t// out\n        /* \"#utility.yul\":13177:13346   */\n    tag_335:\n        /* \"#utility.yul\":13261:13272   */\n      0x00\n        /* \"#utility.yul\":13295:13301   */\n      dup3\n        /* \"#utility.yul\":13290:13293   */\n      dup3\n        /* \"#utility.yul\":13283:13302   */\n      mstore\n        /* \"#utility.yul\":13335:13339   */\n      0x20\n        /* \"#utility.yul\":13330:13333   */\n      dup3\n        /* \"#utility.yul\":13326:13340   */\n      add\n        /* \"#utility.yul\":13311:13340   */\n      swap1\n      pop\n        /* \"#utility.yul\":13177:13346   */\n      swap3\n      swap2\n      pop\n      pop\n      jump\t// out\n        /* \"#utility.yul\":13352:13500   */\n    tag_342:\n        /* \"#utility.yul\":13454:13465   */\n      0x00\n        /* \"#utility.yul\":13491:13494   */\n      dup2\n        /* \"#utility.yul\":13476:13494   */\n      swap1\n      pop\n        /* \"#utility.yul\":13352:13500   */\n      swap3\n      swap2\n      pop\n      pop\n      jump\t// out\n        /* \"#utility.yul\":13506:13752   */\n    tag_199:\n        /* \"#utility.yul\":13545:13548   */\n      0x00\n        /* \"#utility.yul\":13564:13583   */\n      tag_403\n        /* \"#utility.yul\":13581:13582   */\n      dup3\n        /* \"#utility.yul\":13564:13583   */\n      tag_357\n      jump\t// in\n    tag_403:\n        /* \"#utility.yul\":13559:13583   */\n      swap2\n      pop\n        /* \"#utility.yul\":13597:13616   */\n      tag_404\n        /* \"#utility.yul\":13614:13615   */\n      dup4\n        /* \"#utility.yul\":13597:13616   */\n      tag_357\n      jump\t// in\n    tag_404:\n        /* \"#utility.yul\":13592:13616   */\n      swap3\n      pop\n        /* \"#utility.yul\":13694:13695   */\n      dup3\n        /* \"#utility.yul\":13682:13692   */\n      0xffffffff\n        /* \"#utility.yul\":13678:13696   */\n      sub\n        /* \"#utility.yul\":13675:13676   */\n      dup3\n        /* \"#utility.yul\":13672:13697   */\n      gt\n        /* \"#utility.yul\":13669:13720   */\n      iszero\n      tag_405\n      jumpi\n        /* \"#utility.yul\":13700:13718   */\n      tag_406\n      tag_407\n      jump\t// in\n    tag_406:\n        /* \"#utility.yul\":13669:13720   */\n    tag_405:\n        /* \"#utility.yul\":13744:13745   */\n      dup3\n        /* \"#utility.yul\":13741:13742   */\n      dup3\n        /* \"#utility.yul\":13737:13746   */\n      add\n        /* \"#utility.yul\":13730:13746   */\n      swap1\n      pop\n        /* \"#utility.yul\":13506:13752   */\n      swap3\n      swap2\n      pop\n      pop\n      jump\t// out\n        /* \"#utility.yul\":13758:14285   */\n    tag_152:\n        /* \"#utility.yul\":13797:13801   */\n      0x00\n        /* \"#utility.yul\":13817:13836   */\n      tag_409\n        /* \"#utility.yul\":13834:13835   */\n      dup3\n        /* \"#utility.yul\":13817:13836   */\n      tag_410\n      jump\t// in\n    tag_409:\n        /* \"#utility.yul\":13812:13836   */\n      swap2\n      pop\n        /* \"#utility.yul\":13850:13869   */\n      tag_411\n        /* \"#utility.yul\":13867:13868   */\n      dup4\n        /* \"#utility.yul\":13850:13869   */\n      tag_410\n      jump\t// in\n    tag_411:\n        /* \"#utility.yul\":13845:13869   */\n      swap3\n      pop\n        /* \"#utility.yul\":14039:14040   */\n      dup3\n        /* \"#utility.yul\":13971:14037   */\n      0x8000000000000000000000000000000000000000000000000000000000000000\n        /* \"#utility.yul\":13967:14041   */\n      add\n        /* \"#utility.yul\":13964:13965   */\n      dup3\n        /* \"#utility.yul\":13960:14042   */\n      slt\n        /* \"#utility.yul\":13955:13956   */\n      0x00\n        /* \"#utility.yul\":13952:13953   */\n      dup5\n        /* \"#utility.yul\":13948:13957   */\n      slt\n        /* \"#utility.yul\":13941:13958   */\n      iszero\n        /* \"#utility.yul\":13937:14043   */\n      and\n        /* \"#utility.yul\":13934:14066   */\n      iszero\n      tag_412\n      jumpi\n        /* \"#utility.yul\":14046:14064   */\n      tag_413\n      tag_407\n      jump\t// in\n    tag_413:\n        /* \"#utility.yul\":13934:14066   */\n    tag_412:\n        /* \"#utility.yul\":14225:14226   */\n      dup3\n        /* \"#utility.yul\":14157:14223   */\n      0x7fffffffffffffffffffffffffffffffffffffffffffffffffffffffffffffff\n        /* \"#utility.yul\":14153:14227   */\n      add\n        /* \"#utility.yul\":14150:14151   */\n      dup3\n        /* \"#utility.yul\":14146:14228   */\n      sgt\n        /* \"#utility.yul\":14142:14143   */\n      0x00\n        /* \"#utility.yul\":14139:14140   */\n      dup5\n        /* \"#utility.yul\":14135:14144   */\n      slt\n        /* \"#utility.yul\":14131:14229   */\n      and\n        /* \"#utility.yul\":14128:14252   */\n      iszero\n      tag_414\n      jumpi\n        /* \"#utility.yul\":14232:14250   */\n      tag_415\n      tag_407\n      jump\t// in\n    tag_415:\n        /* \"#utility.yul\":14128:14252   */\n    tag_414:\n        /* \"#utility.yul\":14277:14278   */\n      dup3\n        /* \"#utility.yul\":14274:14275   */\n      dup3\n        /* \"#utility.yul\":14270:14279   */\n      sub\n        /* \"#utility.yul\":14262:14279   */\n      swap1\n      pop\n        /* \"#utility.yul\":13758:14285   */\n      swap3\n      swap2\n      pop\n      pop\n      jump\t// out\n        /* \"#utility.yul\":14291:14482   */\n    tag_147:\n        /* \"#utility.yul\":14331:14335   */\n      0x00\n        /* \"#utility.yul\":14351:14371   */\n      tag_417\n        /* \"#utility.yul\":14369:14370   */\n      dup3\n        /* \"#utility.yul\":14351:14371   */\n      tag_353\n      jump\t// in\n    tag_417:\n        /* \"#utility.yul\":14346:14371   */\n      swap2\n      pop\n        /* \"#utility.yul\":14385:14405   */\n      tag_418\n        /* \"#utility.yul\":14403:14404   */\n      dup4\n        /* \"#utility.yul\":14385:14405   */\n      tag_353\n      jump\t// in\n    tag_418:\n        /* \"#utility.yul\":14380:14405   */\n      swap3\n      pop\n        /* \"#utility.yul\":14424:14425   */\n      dup3\n        /* \"#utility.yul\":14421:14422   */\n      dup3\n        /* \"#utility.yul\":14418:14426   */\n      lt\n        /* \"#utility.yul\":14415:14449   */\n      iszero\n      tag_419\n      jumpi\n        /* \"#utility.yul\":14429:14447   */\n      tag_420\n      tag_407\n      jump\t// in\n    tag_420:\n        /* \"#utility.yul\":14415:14449   */\n    tag_419:\n        /* \"#utility.yul\":14474:14475   */\n      dup3\n        /* \"#utility.yul\":14471:14472   */\n      dup3\n        /* \"#utility.yul\":14467:14476   */\n      sub\n        /* \"#utility.yul\":14459:14476   */\n      swap1\n      pop\n        /* \"#utility.yul\":14291:14482   */\n      swap3\n      swap2\n      pop\n      pop\n      jump\t// out\n        /* \"#utility.yul\":14488:14584   */\n    tag_316:\n        /* \"#utility.yul\":14525:14532   */\n      0x00\n        /* \"#utility.yul\":14554:14578   */\n      tag_422\n        /* \"#utility.yul\":14572:14577   */\n      dup3\n        /* \"#utility.yul\":14554:14578   */\n      tag_423\n      jump\t// in\n    tag_422:\n        /* \"#utility.yul\":14543:14578   */\n      swap1\n      pop\n        /* \"#utility.yul\":14488:14584   */\n      swap2\n      swap1\n      pop\n      jump\t// out\n        /* \"#utility.yul\":14590:14694   */\n    tag_312:\n        /* \"#utility.yul\":14635:14642   */\n      0x00\n        /* \"#utility.yul\":14664:14688   */\n      tag_425\n        /* \"#utility.yul\":14682:14687   */\n      dup3\n        /* \"#utility.yul\":14664:14688   */\n      tag_423\n      jump\t// in\n    tag_425:\n        /* \"#utility.yul\":14653:14688   */\n      swap1\n      pop\n        /* \"#utility.yul\":14590:14694   */\n      swap2\n      swap1\n      pop\n      jump\t// out\n        /* \"#utility.yul\":14700:14790   */\n    tag_320:\n        /* \"#utility.yul\":14734:14741   */\n      0x00\n        /* \"#utility.yul\":14777:14782   */\n      dup2\n        /* \"#utility.yul\":14770:14783   */\n      iszero\n        /* \"#utility.yul\":14763:14784   */\n      iszero\n        /* \"#utility.yul\":14752:14784   */\n      swap1\n      pop\n        /* \"#utility.yul\":14700:14790   */\n      swap2\n      swap1\n      pop\n      jump\t// out\n        /* \"#utility.yul\":14796:14872   */\n    tag_410:\n        /* \"#utility.yul\":14832:14839   */\n      0x00\n        /* \"#utility.yul\":14861:14866   */\n      dup2\n        /* \"#utility.yul\":14850:14866   */\n      swap1\n      pop\n        /* \"#utility.yul\":14796:14872   */\n      swap2\n      swap1\n      pop\n      jump\t// out\n        /* \"#utility.yul\":14878:15004   */\n    tag_423:\n        /* \"#utility.yul\":14915:14922   */\n      0x00\n        /* \"#utility.yul\":14955:14997   */\n      0xffffffffffffffffffffffffffffffffffffffff\n        /* \"#utility.yul\":14948:14953   */\n      dup3\n        /* \"#utility.yul\":14944:14998   */\n      and\n        /* \"#utility.yul\":14933:14998   */\n      swap1\n      pop\n        /* \"#utility.yul\":14878:15004   */\n      swap2\n      swap1\n      pop\n      jump\t// out\n        /* \"#utility.yul\":15010:15087   */\n    tag_353:\n        /* \"#utility.yul\":15047:15054   */\n      0x00\n        /* \"#utility.yul\":15076:15081   */\n      dup2\n        /* \"#utility.yul\":15065:15081   */\n      swap1\n      pop\n        /* \"#utility.yul\":15010:15087   */\n      swap2\n      swap1\n      pop\n      jump\t// out\n        /* \"#utility.yul\":15093:15186   */\n    tag_357:\n        /* \"#utility.yul\":15129:15136   */\n      0x00\n        /* \"#utility.yul\":15169:15179   */\n      0xffffffff\n        /* \"#utility.yul\":15162:15167   */\n      dup3\n        /* \"#utility.yul\":15158:15180   */\n      and\n        /* \"#utility.yul\":15147:15180   */\n      swap1\n      pop\n        /* \"#utility.yul\":15093:15186   */\n      swap2\n      swap1\n      pop\n      jump\t// out\n        /* \"#utility.yul\":15192:15293   */\n    tag_360:\n        /* \"#utility.yul\":15228:15235   */\n      0x00\n        /* \"#utility.yul\":15268:15286   */\n      0xffffffffffffffff\n        /* \"#utility.yul\":15261:15266   */\n      dup3\n        /* \"#utility.yul\":15257:15287   */\n      and\n        /* \"#utility.yul\":15246:15287   */\n      swap1\n      pop\n        /* \"#utility.yul\":15192:15293   */\n      swap2\n      swap1\n      pop\n      jump\t// out\n        /* \"#utility.yul\":15299:15385   */\n    tag_364:\n        /* \"#utility.yul\":15334:15341   */\n      0x00\n        /* \"#utility.yul\":15374:15378   */\n      0xff\n        /* \"#utility.yul\":15367:15372   */\n      dup3\n        /* \"#utility.yul\":15363:15379   */\n      and\n        /* \"#utility.yul\":15352:15379   */\n      swap1\n      pop\n        /* \"#utility.yul\":15299:15385   */\n      swap2\n      swap1\n      pop\n      jump\t// out\n        /* \"#utility.yul\":15391:15545   */\n    tag_228:\n        /* \"#utility.yul\":15475:15481   */\n      dup3\n        /* \"#utility.yul\":15470:15473   */\n      dup2\n        /* \"#utility.yul\":15465:15468   */\n      dup4\n        /* \"#utility.yul\":15452:15482   */\n      calldatacopy\n        /* \"#utility.yul\":15537:15538   */\n      0x00\n        /* \"#utility.yul\":15528:15534   */\n      dup4\n        /* \"#utility.yul\":15523:15526   */\n      dup4\n        /* \"#utility.yul\":15519:15535   */\n      add\n        /* \"#utility.yul\":15512:15539   */\n      mstore\n        /* \"#utility.yul\":15391:15545   */\n      pop\n      pop\n      pop\n      jump\t// out\n        /* \"#utility.yul\":15551:15858   */\n    tag_328:\n        /* \"#utility.yul\":15619:15620   */\n      0x00\n        /* \"#utility.yul\":15629:15742   */\n    tag_435:\n        /* \"#utility.yul\":15643:15649   */\n      dup4\n        /* \"#utility.yul\":15640:15641   */\n      dup2\n        /* \"#utility.yul\":15637:15650   */\n      lt\n        /* \"#utility.yul\":15629:15742   */\n      iszero\n      tag_437\n      jumpi\n        /* \"#utility.yul\":15728:15729   */\n      dup1\n        /* \"#utility.yul\":15723:15726   */\n      dup3\n        /* \"#utility.yul\":15719:15730   */\n      add\n        /* \"#utility.yul\":15713:15731   */\n      mload\n        /* \"#utility.yul\":15709:15710   */\n      dup2\n        /* \"#utility.yul\":15704:15707   */\n      dup5\n        /* \"#utility.yul\":15700:15711   */\n      add\n        /* \"#utility.yul\":15693:15732   */\n      mstore\n        /* \"#utility.yul\":15665:15667   */\n      0x20\n        /* \"#utility.yul\":15662:15663   */\n      dup2\n        /* \"#utility.yul\":15658:15668   */\n      add\n        /* \"#utility.yul\":15653:15668   */\n      swap1\n      pop\n        /* \"#utility.yul\":15629:15742   */\n      jump(tag_435)\n    tag_437:\n        /* \"#utility.yul\":15760:15766   */\n      dup4\n        /* \"#utility.yul\":15757:15758   */\n      dup2\n        /* \"#utility.yul\":15754:15767   */\n      gt\n        /* \"#utility.yul\":15751:15852   */\n      iszero\n      tag_438\n      jumpi\n        /* \"#utility.yul\":15840:15841   */\n      0x00\n        /* \"#utility.yul\":15831:15837   */\n      dup5\n        /* \"#utility.yul\":15826:15829   */\n      dup5\n        /* \"#utility.yul\":15822:15838   */\n      add\n        /* \"#utility.yul\":15815:15842   */\n      mstore\n        /* \"#utility.yul\":15751:15852   */\n    tag_438:\n        /* \"#utility.yul\":15600:15858   */\n      pop\n        /* \"#utility.yul\":15551:15858   */\n      pop\n      pop\n      pop\n      jump\t// out\n        /* \"#utility.yul\":15864:16184   */\n    tag_128:\n        /* \"#utility.yul\":15908:15914   */\n      0x00\n        /* \"#utility.yul\":15945:15946   */\n      0x02\n        /* \"#utility.yul\":15939:15943   */\n      dup3\n        /* \"#utility.yul\":15935:15947   */\n      div\n        /* \"#utility.yul\":15925:15947   */\n      swap1\n      pop\n        /* \"#utility.yul\":15992:15993   */\n      0x01\n        /* \"#utility.yul\":15986:15990   */\n      dup3\n        /* \"#utility.yul\":15982:15994   */\n      and\n        /* \"#utility.yul\":16013:16031   */\n      dup1\n        /* \"#utility.yul\":16003:16084   */\n      tag_440\n      jumpi\n        /* \"#utility.yul\":16069:16073   */\n      0x7f\n        /* \"#utility.yul\":16061:16067   */\n      dup3\n        /* \"#utility.yul\":16057:16074   */\n      and\n        /* \"#utility.yul\":16047:16074   */\n      swap2\n      pop\n        /* \"#utility.yul\":16003:16084   */\n    tag_440:\n        /* \"#utility.yul\":16131:16133   */\n      0x20\n        /* \"#utility.yul\":16123:16129   */\n      dup3\n        /* \"#utility.yul\":16120:16134   */\n      lt\n        /* \"#utility.yul\":16100:16118   */\n      dup2\n        /* \"#utility.yul\":16097:16135   */\n      eq\n        /* \"#utility.yul\":16094:16178   */\n      iszero\n      tag_441\n      jumpi\n        /* \"#utility.yul\":16150:16168   */\n      tag_442\n      tag_443\n      jump\t// in\n    tag_442:\n        /* \"#utility.yul\":16094:16178   */\n    tag_441:\n        /* \"#utility.yul\":15915:16184   */\n      pop\n        /* \"#utility.yul\":15864:16184   */\n      swap2\n      swap1\n      pop\n      jump\t// out\n        /* \"#utility.yul\":16190:16471   */\n    tag_391:\n        /* \"#utility.yul\":16273:16300   */\n      tag_445\n        /* \"#utility.yul\":16295:16299   */\n      dup3\n        /* \"#utility.yul\":16273:16300   */\n      tag_330\n      jump\t// in\n    tag_445:\n        /* \"#utility.yul\":16265:16271   */\n      dup2\n        /* \"#utility.yul\":16261:16301   */\n      add\n        /* \"#utility.yul\":16403:16409   */\n      dup2\n        /* \"#utility.yul\":16391:16401   */\n      dup2\n        /* \"#utility.yul\":16388:16410   */\n      lt\n        /* \"#utility.yul\":16367:16385   */\n      0xffffffffffffffff\n        /* \"#utility.yul\":16355:16365   */\n      dup3\n        /* \"#utility.yul\":16352:16386   */\n      gt\n        /* \"#utility.yul\":16349:16411   */\n      or\n        /* \"#utility.yul\":16346:16434   */\n      iszero\n      tag_446\n      jumpi\n        /* \"#utility.yul\":16414:16432   */\n      tag_447\n      tag_396\n      jump\t// in\n    tag_447:\n        /* \"#utility.yul\":16346:16434   */\n    tag_446:\n        /* \"#utility.yul\":16454:16464   */\n      dup1\n        /* \"#utility.yul\":16450:16452   */\n      0x40\n        /* \"#utility.yul\":16443:16465   */\n      mstore\n        /* \"#utility.yul\":16233:16471   */\n      pop\n        /* \"#utility.yul\":16190:16471   */\n      pop\n      pop\n      jump\t// out\n        /* \"#utility.yul\":16477:16710   */\n    tag_122:\n        /* \"#utility.yul\":16516:16519   */\n      0x00\n        /* \"#utility.yul\":16539:16563   */\n      tag_449\n        /* \"#utility.yul\":16557:16562   */\n      dup3\n        /* \"#utility.yul\":16539:16563   */\n      tag_353\n      jump\t// in\n    tag_449:\n        /* \"#utility.yul\":16530:16563   */\n      swap2\n      pop\n        /* \"#utility.yul\":16585:16651   */\n      0xffffffffffffffffffffffffffffffffffffffffffffffffffffffffffffffff\n        /* \"#utility.yul\":16578:16583   */\n      dup3\n        /* \"#utility.yul\":16575:16652   */\n      eq\n        /* \"#utility.yul\":16572:16675   */\n      iszero\n      tag_450\n      jumpi\n        /* \"#utility.yul\":16655:16673   */\n      tag_451\n      tag_407\n      jump\t// in\n    tag_451:\n        /* \"#utility.yul\":16572:16675   */\n    tag_450:\n        /* \"#utility.yul\":16702:16703   */\n      0x01\n        /* \"#utility.yul\":16695:16700   */\n      dup3\n        /* \"#utility.yul\":16691:16704   */\n      add\n        /* \"#utility.yul\":16684:16704   */\n      swap1\n      pop\n        /* \"#utility.yul\":16477:16710   */\n      swap2\n      swap1\n      pop\n      jump\t// out\n        /* \"#utility.yul\":16716:16896   */\n    tag_407:\n        /* \"#utility.yul\":16764:16841   */\n      0x4e487b7100000000000000000000000000000000000000000000000000000000\n        /* \"#utility.yul\":16761:16762   */\n      0x00\n        /* \"#utility.yul\":16754:16842   */\n      mstore\n        /* \"#utility.yul\":16861:16865   */\n      0x11\n        /* \"#utility.yul\":16858:16859   */\n      0x04\n        /* \"#utility.yul\":16851:16866   */\n      mstore\n        /* \"#utility.yul\":16885:16889   */\n      0x24\n        /* \"#utility.yul\":16882:16883   */\n      0x00\n        /* \"#utility.yul\":16875:16890   */\n      revert\n        /* \"#utility.yul\":16902:17082   */\n    tag_443:\n        /* \"#utility.yul\":16950:17027   */\n      0x4e487b7100000000000000000000000000000000000000000000000000000000\n        /* \"#utility.yul\":16947:16948   */\n      0x00\n        /* \"#utility.yul\":16940:17028   */\n      mstore\n        /* \"#utility.yul\":17047:17051   */\n      0x22\n        /* \"#utility.yul\":17044:17045   */\n      0x04\n        /* \"#utility.yul\":17037:17052   */\n      mstore\n        /* \"#utility.yul\":17071:17075   */\n      0x24\n        /* \"#utility.yul\":17068:17069   */\n      0x00\n        /* \"#utility.yul\":17061:17076   */\n      revert\n        /* \"#utility.yul\":17088:17268   */\n    tag_158:\n        /* \"#utility.yul\":17136:17213   */\n      0x4e487b7100000000000000000000000000000000000000000000000000000000\n        /* \"#utility.yul\":17133:17134   */\n      0x00\n        /* \"#utility.yul\":17126:17214   */\n      mstore\n        /* \"#utility.yul\":17233:17237   */\n      0x31\n        /* \"#utility.yul\":17230:17231   */\n      0x04\n        /* \"#utility.yul\":17223:17238   */\n      mstore\n        /* \"#utility.yul\":17257:17261   */\n      0x24\n        /* \"#utility.yul\":17254:17255   */\n      0x00\n        /* \"#utility.yul\":17247:17262   */\n      revert\n        /* \"#utility.yul\":17274:17454   */\n    tag_150:\n        /* \"#utility.yul\":17322:17399   */\n      0x4e487b7100000000000000000000000000000000000000000000000000000000\n        /* \"#utility.yul\":17319:17320   */\n      0x00\n        /* \"#utility.yul\":17312:17400   */\n      mstore\n        /* \"#utility.yul\":17419:17423   */\n      0x32\n        /* \"#utility.yul\":17416:17417   */\n      0x04\n        /* \"#utility.yul\":17409:17424   */\n      mstore\n        /* \"#utility.yul\":17443:17447   */\n      0x24\n        /* \"#utility.yul\":17440:17441   */\n      0x00\n        /* \"#utility.yul\":17433:17448   */\n      revert\n        /* \"#utility.yul\":17460:17640   */\n    tag_396:\n        /* \"#utility.yul\":17508:17585   */\n      0x4e487b7100000000000000000000000000000000000000000000000000000000\n        /* \"#utility.yul\":17505:17506   */\n      0x00\n        /* \"#utility.yul\":17498:17586   */\n      mstore\n        /* \"#utility.yul\":17605:17609   */\n      0x41\n        /* \"#utility.yul\":17602:17603   */\n      0x04\n        /* \"#utility.yul\":17595:17610   */\n      mstore\n        /* \"#utility.yul\":17629:17633   */\n      0x24\n        /* \"#utility.yul\":17626:17627   */\n      0x00\n        /* \"#utility.yul\":17619:17634   */\n      revert\n        /* \"#utility.yul\":17646:17763   */\n    tag_237:\n        /* \"#utility.yul\":17755:17756   */\n      0x00\n        /* \"#utility.yul\":17752:17753   */\n      dup1\n        /* \"#utility.yul\":17745:17757   */\n      revert\n        /* \"#utility.yul\":17769:17886   */\n    tag_226:\n        /* \"#utility.yul\":17878:17879   */\n      0x00\n        /* \"#utility.yul\":17875:17876   */\n      dup1\n        /* \"#utility.yul\":17868:17880   */\n      revert\n        /* \"#utility.yul\":17892:18009   */\n    tag_270:\n        /* \"#utility.yul\":18001:18002   */\n      0x00\n        /* \"#utility.yul\":17998:17999   */\n      dup1\n        /* \"#utility.yul\":17991:18003   */\n      revert\n        /* \"#utility.yul\":18015:18132   */\n    tag_258:\n        /* \"#utility.yul\":18124:18125   */\n      0x00\n        /* \"#utility.yul\":18121:18122   */\n      dup1\n        /* \"#utility.yul\":18114:18126   */\n      revert\n        /* \"#utility.yul\":18138:18240   */\n    tag_330:\n        /* \"#utility.yul\":18179:18185   */\n      0x00\n        /* \"#utility.yul\":18230:18232   */\n      0x1f\n        /* \"#utility.yul\":18226:18233   */\n      not\n        /* \"#utility.yul\":18221:18223   */\n      0x1f\n        /* \"#utility.yul\":18214:18219   */\n      dup4\n        /* \"#utility.yul\":18210:18224   */\n      add\n        /* \"#utility.yul\":18206:18234   */\n      and\n        /* \"#utility.yul\":18196:18234   */\n      swap1\n      pop\n        /* \"#utility.yul\":18138:18240   */\n      swap2\n      swap1\n      pop\n      jump\t// out\n        /* \"#utility.yul\":18246:18368   */\n    tag_232:\n        /* \"#utility.yul\":18319:18343   */\n      tag_463\n        /* \"#utility.yul\":18337:18342   */\n      dup2\n        /* \"#utility.yul\":18319:18343   */\n      tag_316\n      jump\t// in\n    tag_463:\n        /* \"#utility.yul\":18312:18317   */\n      dup2\n        /* \"#utility.yul\":18309:18344   */\n      eq\n        /* \"#utility.yul\":18299:18362   */\n      tag_464\n      jumpi\n        /* \"#utility.yul\":18358:18359   */\n      0x00\n        /* \"#utility.yul\":18355:18356   */\n      dup1\n        /* \"#utility.yul\":18348:18360   */\n      revert\n        /* \"#utility.yul\":18299:18362   */\n    tag_464:\n        /* \"#utility.yul\":18246:18368   */\n      pop\n      jump\t// out\n        /* \"#utility.yul\":18374:18496   */\n    tag_242:\n        /* \"#utility.yul\":18447:18471   */\n      tag_466\n        /* \"#utility.yul\":18465:18470   */\n      dup2\n        /* \"#utility.yul\":18447:18471   */\n      tag_353\n      jump\t// in\n    tag_466:\n        /* \"#utility.yul\":18440:18445   */\n      dup2\n        /* \"#utility.yul\":18437:18472   */\n      eq\n        /* \"#utility.yul\":18427:18490   */\n      tag_467\n      jumpi\n        /* \"#utility.yul\":18486:18487   */\n      0x00\n        /* \"#utility.yul\":18483:18484   */\n      dup1\n        /* \"#utility.yul\":18476:18488   */\n      revert\n        /* \"#utility.yul\":18427:18490   */\n    tag_467:\n        /* \"#utility.yul\":18374:18496   */\n      pop\n      jump\t// out\n        /* \"#utility.yul\":18502:18622   */\n    tag_246:\n        /* \"#utility.yul\":18574:18597   */\n      tag_469\n        /* \"#utility.yul\":18591:18596   */\n      dup2\n        /* \"#utility.yul\":18574:18597   */\n      tag_357\n      jump\t// in\n    tag_469:\n        /* \"#utility.yul\":18567:18572   */\n      dup2\n        /* \"#utility.yul\":18564:18598   */\n      eq\n        /* \"#utility.yul\":18554:18616   */\n      tag_470\n      jumpi\n        /* \"#utility.yul\":18612:18613   */\n      0x00\n        /* \"#utility.yul\":18609:18610   */\n      dup1\n        /* \"#utility.yul\":18602:18614   */\n      revert\n        /* \"#utility.yul\":18554:18616   */\n    tag_470:\n        /* \"#utility.yul\":18502:18622   */\n      pop\n      jump\t// out\n        /* \"#utility.yul\":18628:18748   */\n    tag_250:\n        /* \"#utility.yul\":18700:18723   */\n      tag_472\n        /* \"#utility.yul\":18717:18722   */\n      dup2\n        /* \"#utility.yul\":18700:18723   */\n      tag_360\n      jump\t// in\n    tag_472:\n        /* \"#utility.yul\":18693:18698   */\n      dup2\n        /* \"#utility.yul\":18690:18724   */\n      eq\n        /* \"#utility.yul\":18680:18742   */\n      tag_473\n      jumpi\n        /* \"#utility.yul\":18738:18739   */\n      0x00\n        /* \"#utility.yul\":18735:18736   */\n      dup1\n        /* \"#utility.yul\":18728:18740   */\n      revert\n        /* \"#utility.yul\":18680:18742   */\n    tag_473:\n        /* \"#utility.yul\":18628:18748   */\n      pop\n      jump\t// out\n        /* \"#utility.yul\":18754:18872   */\n    tag_254:\n        /* \"#utility.yul\":18825:18847   */\n      tag_475\n        /* \"#utility.yul\":18841:18846   */\n      dup2\n        /* \"#utility.yul\":18825:18847   */\n      tag_364\n      jump\t// in\n    tag_475:\n        /* \"#utility.yul\":18818:18823   */\n      dup2\n        /* \"#utility.yul\":18815:18848   */\n      eq\n        /* \"#utility.yul\":18805:18866   */\n      tag_476\n      jumpi\n        /* \"#utility.yul\":18862:18863   */\n      0x00\n        /* \"#utility.yul\":18859:18860   */\n      dup1\n        /* \"#utility.yul\":18852:18864   */\n      revert\n        /* \"#utility.yul\":18805:18866   */\n    tag_476:\n        /* \"#utility.yul\":18754:18872   */\n      pop\n      jump\t// out\n\n    auxdata: 0xa264697066735822122085434899ad1a47de27e6b2b2c3e3f6bf34dd28b24a656ea6fb9487c80c5433c464736f6c63430008070033\n}\n",
				"bytecode": {
					"linkReferences": {},
					"object": "60806040523480156200001157600080fd5b50604051620022f7380380620022f78339818101604052810190620000379190620000d7565b816000806101000a81548173ffffffffffffffffffffffffffffffffffffffff021916908373ffffffffffffffffffffffffffffffffffffffff16021790555080600160006101000a81548173ffffffffffffffffffffffffffffffffffffffff021916908373ffffffffffffffffffffffffffffffffffffffff160217905550505062000171565b600081519050620000d18162000157565b92915050565b60008060408385031215620000f157620000f062000152565b5b60006200010185828601620000c0565b92505060206200011485828601620000c0565b9150509250929050565b60006200012b8262000132565b9050919050565b600073ffffffffffffffffffffffffffffffffffffffff82169050919050565b600080fd5b62000162816200011e565b81146200016e57600080fd5b50565b61217680620001816000396000f3fe6080604052600436106100fe5760003560e01c8063955f076611610095578063c8507e2911610064578063c8507e291461032a578063d0bf012c14610353578063f27b9fb41461037c578063feb6eae9146103bb578063ffd57d44146103f8576100fe565b8063955f07661461025c578063a86a658c14610299578063b8ebab86146102c2578063bf5fb249146102ff576100fe565b806373373d31116100d157806373373d311461019f57806376cdb03b146101dd57806381dbc87a1461020857806389cf320414610231576100fe565b80630a858e9014610103578063141c10a51461012c5780634aa60186146101555780636d531e8314610195575b600080fd5b34801561010f57600080fd5b5061012a600480360381019061012591906118f5565b610435565b005b34801561013857600080fd5b50610153600480360381019061014e919061186a565b610712565b005b34801561016157600080fd5b5061017c60048036038101906101779190611745565b61084d565b60405161018c9493929190611bfe565b60405180910390f35b61019d610a82565b005b3480156101ab57600080fd5b506101c660048036038101906101c191906117b2565b610d06565b6040516101d4929190611bb3565b60405180910390f35b3480156101e957600080fd5b506101f2610de8565b6040516101ff9190611b98565b60405180910390f35b34801561021457600080fd5b5061022f600480360381019061022a91906117b2565b610e0c565b005b34801561023d57600080fd5b50610246610ef3565b6040516102539190611b98565b60405180910390f35b34801561026857600080fd5b50610283600480360381019061027e9190611745565b610f19565b6040516102909190611be3565b60405180910390f35b3480156102a557600080fd5b506102c060048036038101906102bb91906119d6565b610f39565b005b3480156102ce57600080fd5b506102e960048036038101906102e49190611772565b61127f565b6040516102f69190611c8f565b60405180910390f35b34801561030b57600080fd5b506103146112b0565b6040516103219190611c8f565b60405180910390f35b34801561033657600080fd5b50610351600480360381019061034c91906117b2565b6112b6565b005b34801561035f57600080fd5b5061037a600480360381019061037591906117fb565b6113b7565b005b34801561038857600080fd5b506103a3600480360381019061039e9190611745565b611496565b6040516103b293929190611c51565b60405180910390f35b3480156103c757600080fd5b506103e260048036038101906103dd91906117b2565b611568565b6040516103ef9190611b7d565b60405180910390f35b34801561040457600080fd5b5061041f600480360381019061041a9190611745565b6115b1565b60405161042c9190611c8f565b60405180910390f35b60006040518060600160405280604051806020016040528060008152508152602001600067ffffffffffffffff168152602001604051806020016040528060008152508152509050600060405180604001604052803373ffffffffffffffffffffffffffffffffffffffff168152602001848152509050600060405180608001604052808a81526020018481526020018960ff1681526020018863ffffffff16815250905080600460003373ffffffffffffffffffffffffffffffffffffffff1673ffffffffffffffffffffffffffffffffffffffff16815260200190815260200160002060008201518160000190805190602001906105369291906115c9565b50602082015181600101600082015181600001908051906020019061055c9291906115c9565b5060208201518160010160006101000a81548167ffffffffffffffff021916908367ffffffffffffffff16021790555060408201518160020190805190602001906105a89291906115c9565b50505060408201518160040160006101000a81548160ff021916908360ff16021790555060608201518160040160016101000a81548163ffffffff021916908363ffffffff160217905550905050816002866040516106079190611b66565b908152602001604051809103902060008201518160000160006101000a81548173ffffffffffffffffffffffffffffffffffffffff021916908373ffffffffffffffffffffffffffffffffffffffff16021790555060208201518160010190805190602001906106789291906115c9565b5090505060005b8663ffffffff1681101561070657600760003373ffffffffffffffffffffffffffffffffffffffff1673ffffffffffffffffffffffffffffffffffffffff16815260200190815260200160002042908060018154018082558091505060019003906000526020600020016000909190919091505580806106fe90611f74565b91505061067f565b50505050505050505050565b600060405180606001604052808581526020018467ffffffffffffffff1681526020018381525090503360038560405161074c9190611b66565b908152602001604051809103902060006101000a81548173ffffffffffffffffffffffffffffffffffffffff021916908373ffffffffffffffffffffffffffffffffffffffff16021790555080600460003373ffffffffffffffffffffffffffffffffffffffff1673ffffffffffffffffffffffffffffffffffffffff16815260200190815260200160002060010160008201518160000190805190602001906107f79291906115c9565b5060208201518160010160006101000a81548167ffffffffffffffff021916908367ffffffffffffffff16021790555060408201518160020190805190602001906108439291906115c9565b5090505050505050565b600460205280600052604060002060009150905080600001805461087090611f11565b80601f016020809104026020016040519081016040528092919081815260200182805461089c90611f11565b80156108e95780601f106108be576101008083540402835291602001916108e9565b820191906000526020600020905b8154815290600101906020018083116108cc57829003601f168201915b5050505050908060010160405180606001604052908160008201805461090e90611f11565b80601f016020809104026020016040519081016040528092919081815260200182805461093a90611f11565b80156109875780601f1061095c57610100808354040283529160200191610987565b820191906000526020600020905b81548152906001019060200180831161096a57829003601f168201915b505050505081526020016001820160009054906101000a900467ffffffffffffffff1667ffffffffffffffff1667ffffffffffffffff1681526020016002820180546109d290611f11565b80601f01602080910402602001604051908101604052809291908181526020018280546109fe90611f11565b8015610a4b5780601f10610a2057610100808354040283529160200191610a4b565b820191906000526020600020905b815481529060010190602001808311610a2e57829003601f168201915b505050505081525050908060040160009054906101000a900460ff16908060040160019054906101000a900463ffffffff16905084565b6000600760003373ffffffffffffffffffffffffffffffffffffffff1673ffffffffffffffffffffffffffffffffffffffff168152602001908152602001600020805480602002602001604051908101604052809291908181526020018280548015610b0d57602002820191906000526020600020905b815481526020019060010190808311610af9575b5050505050905060008160018351610b259190611e06565b81518110610b3657610b3561204a565b5b602002602001015142610b499190611d72565b90506019811315610c2d5760008054906101000a900473ffffffffffffffffffffffffffffffffffffffff1673ffffffffffffffffffffffffffffffffffffffff166108fc678ac7230489e800009081150290604051600060405180830381858888f19350505050158015610bc2573d6000803e3d6000fd5b50600760003373ffffffffffffffffffffffffffffffffffffffff1673ffffffffffffffffffffffffffffffffffffffff168152602001908152602001600020805480610c1257610c1161201b565b5b60019003818190600052602060002001600090559055610d02565b60008054906101000a900473ffffffffffffffffffffffffffffffffffffffff1673ffffffffffffffffffffffffffffffffffffffff166108fc674563918244f400009081150290604051600060405180830381858888f19350505050158015610c9b573d6000803e3d6000fd5b50600760003373ffffffffffffffffffffffffffffffffffffffff1673ffffffffffffffffffffffffffffffffffffffff168152602001908152602001600020805480610ceb57610cea61201b565b5b600190038181906000526020600020016000905590555b5050565b6002818051602081018201805184825260208301602085012081835280955050505050506000915090508060000160009054906101000a900473ffffffffffffffffffffffffffffffffffffffff1690806001018054610d6590611f11565b80601f0160208091040260200160405190810160405280929190818152602001828054610d9190611f11565b8015610dde5780601f10610db357610100808354040283529160200191610dde565b820191906000526020600020905b815481529060010190602001808311610dc157829003601f168201915b5050505050905082565b60008054906101000a900473ffffffffffffffffffffffffffffffffffffffff1681565b6000600382604051610e1e9190611b66565b908152602001604051809103902060009054906101000a900473ffffffffffffffffffffffffffffffffffffffff169050600073ffffffffffffffffffffffffffffffffffffffff168173ffffffffffffffffffffffffffffffffffffffff161415610e8957600080fd5b600760008273ffffffffffffffffffffffffffffffffffffffff1673ffffffffffffffffffffffffffffffffffffffff1681526020019081526020016000204290806001815401808255809150506001900390600052602060002001600090919091909150555050565b600160009054906101000a900473ffffffffffffffffffffffffffffffffffffffff1681565b60066020528060005260406000206000915054906101000a900460ff1681565b803373ffffffffffffffffffffffffffffffffffffffff16311015610f5d57600080fd5b6000600860003373ffffffffffffffffffffffffffffffffffffffff1673ffffffffffffffffffffffffffffffffffffffff1681526020019081526020016000205414610fa957600080fd5b80600954111561107c5760008054906101000a900473ffffffffffffffffffffffffffffffffffffffff1673ffffffffffffffffffffffffffffffffffffffff166108fc829081150290604051600060405180830381858888f19350505050158015611019573d6000803e3d6000fd5b5080600860003373ffffffffffffffffffffffffffffffffffffffff1673ffffffffffffffffffffffffffffffffffffffff1681526020019081526020016000208190555080600960008282546110709190611e06565b9250508190555061127c565b8060095410156111bc576000600954826110969190611e06565b905060008054906101000a900473ffffffffffffffffffffffffffffffffffffffff1673ffffffffffffffffffffffffffffffffffffffff166108fc6009549081150290604051600060405180830381858888f19350505050158015611100573d6000803e3d6000fd5b50600160009054906101000a900473ffffffffffffffffffffffffffffffffffffffff1673ffffffffffffffffffffffffffffffffffffffff166108fc829081150290604051600060405180830381858888f19350505050158015611169573d6000803e3d6000fd5b5081600860003373ffffffffffffffffffffffffffffffffffffffff1673ffffffffffffffffffffffffffffffffffffffff1681526020019081526020016000208190555060006009819055505061127b565b80600954141561127a5760008054906101000a900473ffffffffffffffffffffffffffffffffffffffff1673ffffffffffffffffffffffffffffffffffffffff166108fc829081150290604051600060405180830381858888f1935050505015801561122c573d6000803e3d6000fd5b5080600860003373ffffffffffffffffffffffffffffffffffffffff1673ffffffffffffffffffffffffffffffffffffffff1681526020019081526020016000208190555060006009819055505b5b5b50565b6007602052816000526040600020818154811061129b57600080fd5b90600052602060002001600091509150505481565b60095481565b60006003826040516112c89190611b66565b908152602001604051809103902060009054906101000a900473ffffffffffffffffffffffffffffffffffffffff169050600073ffffffffffffffffffffffffffffffffffffffff168173ffffffffffffffffffffffffffffffffffffffff16141561133357600080fd5b6001600460008373ffffffffffffffffffffffffffffffffffffffff1673ffffffffffffffffffffffffffffffffffffffff16815260200190815260200160002060040160018282829054906101000a900463ffffffff166113959190611d38565b92506101000a81548163ffffffff021916908363ffffffff1602179055505050565b600060405180606001604052808581526020018463ffffffff1681526020018363ffffffff16815250905080600560003373ffffffffffffffffffffffffffffffffffffffff1673ffffffffffffffffffffffffffffffffffffffff168152602001908152602001600020600082015181600001908051906020019061143e9291906115c9565b5060208201518160010160006101000a81548163ffffffff021916908363ffffffff16021790555060408201518160010160046101000a81548163ffffffff021916908363ffffffff16021790555090505050505050565b60056020528060005260406000206000915090508060000180546114b990611f11565b80601f01602080910402602001604051908101604052809291908181526020018280546114e590611f11565b80156115325780601f1061150757610100808354040283529160200191611532565b820191906000526020600020905b81548152906001019060200180831161151557829003601f168201915b5050505050908060010160009054906101000a900463ffffffff16908060010160049054906101000a900463ffffffff16905083565b6003818051602081018201805184825260208301602085012081835280955050505050506000915054906101000a900473ffffffffffffffffffffffffffffffffffffffff1681565b60086020528060005260406000206000915090505481565b8280546115d590611f11565b90600052602060002090601f0160209004810192826115f7576000855561163e565b82601f1061161057805160ff191683800117855561163e565b8280016001018555821561163e579182015b8281111561163d578251825591602001919060010190611622565b5b50905061164b919061164f565b5090565b5b80821115611668576000816000905550600101611650565b5090565b600061167f61167a84611ccf565b611caa565b90508281526020810184848401111561169b5761169a6120ad565b5b6116a6848285611ecf565b509392505050565b6000813590506116bd816120cd565b92915050565b600082601f8301126116d8576116d76120a8565b5b81356116e884826020860161166c565b91505092915050565b600081359050611700816120e4565b92915050565b600081359050611715816120fb565b92915050565b60008135905061172a81612112565b92915050565b60008135905061173f81612129565b92915050565b60006020828403121561175b5761175a6120b7565b5b6000611769848285016116ae565b91505092915050565b60008060408385031215611789576117886120b7565b5b6000611797858286016116ae565b92505060206117a8858286016116f1565b9150509250929050565b6000602082840312156117c8576117c76120b7565b5b600082013567ffffffffffffffff8111156117e6576117e56120b2565b5b6117f2848285016116c3565b91505092915050565b600080600060608486031215611814576118136120b7565b5b600084013567ffffffffffffffff811115611832576118316120b2565b5b61183e868287016116c3565b935050602061184f86828701611706565b925050604061186086828701611706565b9150509250925092565b600080600060608486031215611883576118826120b7565b5b600084013567ffffffffffffffff8111156118a1576118a06120b2565b5b6118ad868287016116c3565b93505060206118be8682870161171b565b925050604084013567ffffffffffffffff8111156118df576118de6120b2565b5b6118eb868287016116c3565b9150509250925092565b60008060008060008060c08789031215611912576119116120b7565b5b600087013567ffffffffffffffff8111156119305761192f6120b2565b5b61193c89828a016116c3565b965050602061194d89828a01611730565b955050604061195e89828a01611706565b945050606061196f89828a01611706565b935050608087013567ffffffffffffffff8111156119905761198f6120b2565b5b61199c89828a016116c3565b92505060a087013567ffffffffffffffff8111156119bd576119bc6120b2565b5b6119c989828a016116c3565b9150509295509295509295565b6000602082840312156119ec576119eb6120b7565b5b60006119fa848285016116f1565b91505092915050565b611a0c81611e4c565b82525050565b611a1b81611e3a565b82525050565b611a2a81611e5e565b82525050565b6000611a3b82611d00565b611a458185611d0b565b9350611a55818560208601611ede565b611a5e816120bc565b840191505092915050565b6000611a7482611d00565b611a7e8185611d1c565b9350611a8e818560208601611ede565b611a97816120bc565b840191505092915050565b6000611aad82611d00565b611ab78185611d2d565b9350611ac7818560208601611ede565b80840191505092915050565b60006060830160008301518482036000860152611af08282611a30565b9150506020830151611b056020860182611b48565b5060408301518482036040860152611b1d8282611a30565b9150508091505092915050565b611b3381611e94565b82525050565b611b4281611e9e565b82525050565b611b5181611eae565b82525050565b611b6081611ec2565b82525050565b6000611b728284611aa2565b915081905092915050565b6000602082019050611b926000830184611a12565b92915050565b6000602082019050611bad6000830184611a03565b92915050565b6000604082019050611bc86000830185611a12565b8181036020830152611bda8184611a69565b90509392505050565b6000602082019050611bf86000830184611a21565b92915050565b60006080820190508181036000830152611c188187611a69565b90508181036020830152611c2c8186611ad3565b9050611c3b6040830185611b57565b611c486060830184611b39565b95945050505050565b60006060820190508181036000830152611c6b8186611a69565b9050611c7a6020830185611b39565b611c876040830184611b39565b949350505050565b6000602082019050611ca46000830184611b2a565b92915050565b6000611cb4611cc5565b9050611cc08282611f43565b919050565b6000604051905090565b600067ffffffffffffffff821115611cea57611ce9612079565b5b611cf3826120bc565b9050602081019050919050565b600081519050919050565b600082825260208201905092915050565b600082825260208201905092915050565b600081905092915050565b6000611d4382611e9e565b9150611d4e83611e9e565b92508263ffffffff03821115611d6757611d66611fbd565b5b828201905092915050565b6000611d7d82611e6a565b9150611d8883611e6a565b9250827f800000000000000000000000000000000000000000000000000000000000000001821260008412151615611dc357611dc2611fbd565b5b827f7fffffffffffffffffffffffffffffffffffffffffffffffffffffffffffffff018213600084121615611dfb57611dfa611fbd565b5b828203905092915050565b6000611e1182611e94565b9150611e1c83611e94565b925082821015611e2f57611e2e611fbd565b5b828203905092915050565b6000611e4582611e74565b9050919050565b6000611e5782611e74565b9050919050565b60008115159050919050565b6000819050919050565b600073ffffffffffffffffffffffffffffffffffffffff82169050919050565b6000819050919050565b600063ffffffff82169050919050565b600067ffffffffffffffff82169050919050565b600060ff82169050919050565b82818337600083830152505050565b60005b83811015611efc578082015181840152602081019050611ee1565b83811115611f0b576000848401525b50505050565b60006002820490506001821680611f2957607f821691505b60208210811415611f3d57611f3c611fec565b5b50919050565b611f4c826120bc565b810181811067ffffffffffffffff82111715611f6b57611f6a612079565b5b80604052505050565b6000611f7f82611e94565b91507fffffffffffffffffffffffffffffffffffffffffffffffffffffffffffffffff821415611fb257611fb1611fbd565b5b600182019050919050565b7f4e487b7100000000000000000000000000000000000000000000000000000000600052601160045260246000fd5b7f4e487b7100000000000000000000000000000000000000000000000000000000600052602260045260246000fd5b7f4e487b7100000000000000000000000000000000000000000000000000000000600052603160045260246000fd5b7f4e487b7100000000000000000000000000000000000000000000000000000000600052603260045260246000fd5b7f4e487b7100000000000000000000000000000000000000000000000000000000600052604160045260246000fd5b600080fd5b600080fd5b600080fd5b600080fd5b6000601f19601f8301169050919050565b6120d681611e3a565b81146120e157600080fd5b50565b6120ed81611e94565b81146120f857600080fd5b50565b61210481611e9e565b811461210f57600080fd5b50565b61211b81611eae565b811461212657600080fd5b50565b61213281611ec2565b811461213d57600080fd5b5056fea264697066735822122085434899ad1a47de27e6b2b2c3e3f6bf34dd28b24a656ea6fb9487c80c5433c464736f6c63430008070033",
					"opcodes": "PUSH1 0x80 PUSH1 0x40 MSTORE CALLVALUE DUP1 ISZERO PUSH3 0x11 JUMPI PUSH1 0x0 DUP1 REVERT JUMPDEST POP PUSH1 0x40 MLOAD PUSH3 0x22F7 CODESIZE SUB DUP1 PUSH3 0x22F7 DUP4 CODECOPY DUP2 DUP2 ADD PUSH1 0x40 MSTORE DUP2 ADD SWAP1 PUSH3 0x37 SWAP2 SWAP1 PUSH3 0xD7 JUMP JUMPDEST DUP2 PUSH1 0x0 DUP1 PUSH2 0x100 EXP DUP2 SLOAD DUP2 PUSH20 0xFFFFFFFFFFFFFFFFFFFFFFFFFFFFFFFFFFFFFFFF MUL NOT AND SWAP1 DUP4 PUSH20 0xFFFFFFFFFFFFFFFFFFFFFFFFFFFFFFFFFFFFFFFF AND MUL OR SWAP1 SSTORE POP DUP1 PUSH1 0x1 PUSH1 0x0 PUSH2 0x100 EXP DUP2 SLOAD DUP2 PUSH20 0xFFFFFFFFFFFFFFFFFFFFFFFFFFFFFFFFFFFFFFFF MUL NOT AND SWAP1 DUP4 PUSH20 0xFFFFFFFFFFFFFFFFFFFFFFFFFFFFFFFFFFFFFFFF AND MUL OR SWAP1 SSTORE POP POP POP PUSH3 0x171 JUMP JUMPDEST PUSH1 0x0 DUP2 MLOAD SWAP1 POP PUSH3 0xD1 DUP2 PUSH3 0x157 JUMP JUMPDEST SWAP3 SWAP2 POP POP JUMP JUMPDEST PUSH1 0x0 DUP1 PUSH1 0x40 DUP4 DUP6 SUB SLT ISZERO PUSH3 0xF1 JUMPI PUSH3 0xF0 PUSH3 0x152 JUMP JUMPDEST JUMPDEST PUSH1 0x0 PUSH3 0x101 DUP6 DUP3 DUP7 ADD PUSH3 0xC0 JUMP JUMPDEST SWAP3 POP POP PUSH1 0x20 PUSH3 0x114 DUP6 DUP3 DUP7 ADD PUSH3 0xC0 JUMP JUMPDEST SWAP2 POP POP SWAP3 POP SWAP3 SWAP1 POP JUMP JUMPDEST PUSH1 0x0 PUSH3 0x12B DUP3 PUSH3 0x132 JUMP JUMPDEST SWAP1 POP SWAP2 SWAP1 POP JUMP JUMPDEST PUSH1 0x0 PUSH20 0xFFFFFFFFFFFFFFFFFFFFFFFFFFFFFFFFFFFFFFFF DUP3 AND SWAP1 POP SWAP2 SWAP1 POP JUMP JUMPDEST PUSH1 0x0 DUP1 REVERT JUMPDEST PUSH3 0x162 DUP2 PUSH3 0x11E JUMP JUMPDEST DUP2 EQ PUSH3 0x16E JUMPI PUSH1 0x0 DUP1 REVERT JUMPDEST POP JUMP JUMPDEST PUSH2 0x2176 DUP1 PUSH3 0x181 PUSH1 0x0 CODECOPY PUSH1 0x0 RETURN INVALID PUSH1 0x80 PUSH1 0x40 MSTORE PUSH1 0x4 CALLDATASIZE LT PUSH2 0xFE JUMPI PUSH1 0x0 CALLDATALOAD PUSH1 0xE0 SHR DUP1 PUSH4 0x955F0766 GT PUSH2 0x95 JUMPI DUP1 PUSH4 0xC8507E29 GT PUSH2 0x64 JUMPI DUP1 PUSH4 0xC8507E29 EQ PUSH2 0x32A JUMPI DUP1 PUSH4 0xD0BF012C EQ PUSH2 0x353 JUMPI DUP1 PUSH4 0xF27B9FB4 EQ PUSH2 0x37C JUMPI DUP1 PUSH4 0xFEB6EAE9 EQ PUSH2 0x3BB JUMPI DUP1 PUSH4 0xFFD57D44 EQ PUSH2 0x3F8 JUMPI PUSH2 0xFE JUMP JUMPDEST DUP1 PUSH4 0x955F0766 EQ PUSH2 0x25C JUMPI DUP1 PUSH4 0xA86A658C EQ PUSH2 0x299 JUMPI DUP1 PUSH4 0xB8EBAB86 EQ PUSH2 0x2C2 JUMPI DUP1 PUSH4 0xBF5FB249 EQ PUSH2 0x2FF JUMPI PUSH2 0xFE JUMP JUMPDEST DUP1 PUSH4 0x73373D31 GT PUSH2 0xD1 JUMPI DUP1 PUSH4 0x73373D31 EQ PUSH2 0x19F JUMPI DUP1 PUSH4 0x76CDB03B EQ PUSH2 0x1DD JUMPI DUP1 PUSH4 0x81DBC87A EQ PUSH2 0x208 JUMPI DUP1 PUSH4 0x89CF3204 EQ PUSH2 0x231 JUMPI PUSH2 0xFE JUMP JUMPDEST DUP1 PUSH4 0xA858E90 EQ PUSH2 0x103 JUMPI DUP1 PUSH4 0x141C10A5 EQ PUSH2 0x12C JUMPI DUP1 PUSH4 0x4AA60186 EQ PUSH2 0x155 JUMPI DUP1 PUSH4 0x6D531E83 EQ PUSH2 0x195 JUMPI JUMPDEST PUSH1 0x0 DUP1 REVERT JUMPDEST CALLVALUE DUP1 ISZERO PUSH2 0x10F JUMPI PUSH1 0x0 DUP1 REVERT JUMPDEST POP PUSH2 0x12A PUSH1 0x4 DUP1 CALLDATASIZE SUB DUP2 ADD SWAP1 PUSH2 0x125 SWAP2 SWAP1 PUSH2 0x18F5 JUMP JUMPDEST PUSH2 0x435 JUMP JUMPDEST STOP JUMPDEST CALLVALUE DUP1 ISZERO PUSH2 0x138 JUMPI PUSH1 0x0 DUP1 REVERT JUMPDEST POP PUSH2 0x153 PUSH1 0x4 DUP1 CALLDATASIZE SUB DUP2 ADD SWAP1 PUSH2 0x14E SWAP2 SWAP1 PUSH2 0x186A JUMP JUMPDEST PUSH2 0x712 JUMP JUMPDEST STOP JUMPDEST CALLVALUE DUP1 ISZERO PUSH2 0x161 JUMPI PUSH1 0x0 DUP1 REVERT JUMPDEST POP PUSH2 0x17C PUSH1 0x4 DUP1 CALLDATASIZE SUB DUP2 ADD SWAP1 PUSH2 0x177 SWAP2 SWAP1 PUSH2 0x1745 JUMP JUMPDEST PUSH2 0x84D JUMP JUMPDEST PUSH1 0x40 MLOAD PUSH2 0x18C SWAP5 SWAP4 SWAP3 SWAP2 SWAP1 PUSH2 0x1BFE JUMP JUMPDEST PUSH1 0x40 MLOAD DUP1 SWAP2 SUB SWAP1 RETURN JUMPDEST PUSH2 0x19D PUSH2 0xA82 JUMP JUMPDEST STOP JUMPDEST CALLVALUE DUP1 ISZERO PUSH2 0x1AB JUMPI PUSH1 0x0 DUP1 REVERT JUMPDEST POP PUSH2 0x1C6 PUSH1 0x4 DUP1 CALLDATASIZE SUB DUP2 ADD SWAP1 PUSH2 0x1C1 SWAP2 SWAP1 PUSH2 0x17B2 JUMP JUMPDEST PUSH2 0xD06 JUMP JUMPDEST PUSH1 0x40 MLOAD PUSH2 0x1D4 SWAP3 SWAP2 SWAP1 PUSH2 0x1BB3 JUMP JUMPDEST PUSH1 0x40 MLOAD DUP1 SWAP2 SUB SWAP1 RETURN JUMPDEST CALLVALUE DUP1 ISZERO PUSH2 0x1E9 JUMPI PUSH1 0x0 DUP1 REVERT JUMPDEST POP PUSH2 0x1F2 PUSH2 0xDE8 JUMP JUMPDEST PUSH1 0x40 MLOAD PUSH2 0x1FF SWAP2 SWAP1 PUSH2 0x1B98 JUMP JUMPDEST PUSH1 0x40 MLOAD DUP1 SWAP2 SUB SWAP1 RETURN JUMPDEST CALLVALUE DUP1 ISZERO PUSH2 0x214 JUMPI PUSH1 0x0 DUP1 REVERT JUMPDEST POP PUSH2 0x22F PUSH1 0x4 DUP1 CALLDATASIZE SUB DUP2 ADD SWAP1 PUSH2 0x22A SWAP2 SWAP1 PUSH2 0x17B2 JUMP JUMPDEST PUSH2 0xE0C JUMP JUMPDEST STOP JUMPDEST CALLVALUE DUP1 ISZERO PUSH2 0x23D JUMPI PUSH1 0x0 DUP1 REVERT JUMPDEST POP PUSH2 0x246 PUSH2 0xEF3 JUMP JUMPDEST PUSH1 0x40 MLOAD PUSH2 0x253 SWAP2 SWAP1 PUSH2 0x1B98 JUMP JUMPDEST PUSH1 0x40 MLOAD DUP1 SWAP2 SUB SWAP1 RETURN JUMPDEST CALLVALUE DUP1 ISZERO PUSH2 0x268 JUMPI PUSH1 0x0 DUP1 REVERT JUMPDEST POP PUSH2 0x283 PUSH1 0x4 DUP1 CALLDATASIZE SUB DUP2 ADD SWAP1 PUSH2 0x27E SWAP2 SWAP1 PUSH2 0x1745 JUMP JUMPDEST PUSH2 0xF19 JUMP JUMPDEST PUSH1 0x40 MLOAD PUSH2 0x290 SWAP2 SWAP1 PUSH2 0x1BE3 JUMP JUMPDEST PUSH1 0x40 MLOAD DUP1 SWAP2 SUB SWAP1 RETURN JUMPDEST CALLVALUE DUP1 ISZERO PUSH2 0x2A5 JUMPI PUSH1 0x0 DUP1 REVERT JUMPDEST POP PUSH2 0x2C0 PUSH1 0x4 DUP1 CALLDATASIZE SUB DUP2 ADD SWAP1 PUSH2 0x2BB SWAP2 SWAP1 PUSH2 0x19D6 JUMP JUMPDEST PUSH2 0xF39 JUMP JUMPDEST STOP JUMPDEST CALLVALUE DUP1 ISZERO PUSH2 0x2CE JUMPI PUSH1 0x0 DUP1 REVERT JUMPDEST POP PUSH2 0x2E9 PUSH1 0x4 DUP1 CALLDATASIZE SUB DUP2 ADD SWAP1 PUSH2 0x2E4 SWAP2 SWAP1 PUSH2 0x1772 JUMP JUMPDEST PUSH2 0x127F JUMP JUMPDEST PUSH1 0x40 MLOAD PUSH2 0x2F6 SWAP2 SWAP1 PUSH2 0x1C8F JUMP JUMPDEST PUSH1 0x40 MLOAD DUP1 SWAP2 SUB SWAP1 RETURN JUMPDEST CALLVALUE DUP1 ISZERO PUSH2 0x30B JUMPI PUSH1 0x0 DUP1 REVERT JUMPDEST POP PUSH2 0x314 PUSH2 0x12B0 JUMP JUMPDEST PUSH1 0x40 MLOAD PUSH2 0x321 SWAP2 SWAP1 PUSH2 0x1C8F JUMP JUMPDEST PUSH1 0x40 MLOAD DUP1 SWAP2 SUB SWAP1 RETURN JUMPDEST CALLVALUE DUP1 ISZERO PUSH2 0x336 JUMPI PUSH1 0x0 DUP1 REVERT JUMPDEST POP PUSH2 0x351 PUSH1 0x4 DUP1 CALLDATASIZE SUB DUP2 ADD SWAP1 PUSH2 0x34C SWAP2 SWAP1 PUSH2 0x17B2 JUMP JUMPDEST PUSH2 0x12B6 JUMP JUMPDEST STOP JUMPDEST CALLVALUE DUP1 ISZERO PUSH2 0x35F JUMPI PUSH1 0x0 DUP1 REVERT JUMPDEST POP PUSH2 0x37A PUSH1 0x4 DUP1 CALLDATASIZE SUB DUP2 ADD SWAP1 PUSH2 0x375 SWAP2 SWAP1 PUSH2 0x17FB JUMP JUMPDEST PUSH2 0x13B7 JUMP JUMPDEST STOP JUMPDEST CALLVALUE DUP1 ISZERO PUSH2 0x388 JUMPI PUSH1 0x0 DUP1 REVERT JUMPDEST POP PUSH2 0x3A3 PUSH1 0x4 DUP1 CALLDATASIZE SUB DUP2 ADD SWAP1 PUSH2 0x39E SWAP2 SWAP1 PUSH2 0x1745 JUMP JUMPDEST PUSH2 0x1496 JUMP JUMPDEST PUSH1 0x40 MLOAD PUSH2 0x3B2 SWAP4 SWAP3 SWAP2 SWAP1 PUSH2 0x1C51 JUMP JUMPDEST PUSH1 0x40 MLOAD DUP1 SWAP2 SUB SWAP1 RETURN JUMPDEST CALLVALUE DUP1 ISZERO PUSH2 0x3C7 JUMPI PUSH1 0x0 DUP1 REVERT JUMPDEST POP PUSH2 0x3E2 PUSH1 0x4 DUP1 CALLDATASIZE SUB DUP2 ADD SWAP1 PUSH2 0x3DD SWAP2 SWAP1 PUSH2 0x17B2 JUMP JUMPDEST PUSH2 0x1568 JUMP JUMPDEST PUSH1 0x40 MLOAD PUSH2 0x3EF SWAP2 SWAP1 PUSH2 0x1B7D JUMP JUMPDEST PUSH1 0x40 MLOAD DUP1 SWAP2 SUB SWAP1 RETURN JUMPDEST CALLVALUE DUP1 ISZERO PUSH2 0x404 JUMPI PUSH1 0x0 DUP1 REVERT JUMPDEST POP PUSH2 0x41F PUSH1 0x4 DUP1 CALLDATASIZE SUB DUP2 ADD SWAP1 PUSH2 0x41A SWAP2 SWAP1 PUSH2 0x1745 JUMP JUMPDEST PUSH2 0x15B1 JUMP JUMPDEST PUSH1 0x40 MLOAD PUSH2 0x42C SWAP2 SWAP1 PUSH2 0x1C8F JUMP JUMPDEST PUSH1 0x40 MLOAD DUP1 SWAP2 SUB SWAP1 RETURN JUMPDEST PUSH1 0x0 PUSH1 0x40 MLOAD DUP1 PUSH1 0x60 ADD PUSH1 0x40 MSTORE DUP1 PUSH1 0x40 MLOAD DUP1 PUSH1 0x20 ADD PUSH1 0x40 MSTORE DUP1 PUSH1 0x0 DUP2 MSTORE POP DUP2 MSTORE PUSH1 0x20 ADD PUSH1 0x0 PUSH8 0xFFFFFFFFFFFFFFFF AND DUP2 MSTORE PUSH1 0x20 ADD PUSH1 0x40 MLOAD DUP1 PUSH1 0x20 ADD PUSH1 0x40 MSTORE DUP1 PUSH1 0x0 DUP2 MSTORE POP DUP2 MSTORE POP SWAP1 POP PUSH1 0x0 PUSH1 0x40 MLOAD DUP1 PUSH1 0x40 ADD PUSH1 0x40 MSTORE DUP1 CALLER PUSH20 0xFFFFFFFFFFFFFFFFFFFFFFFFFFFFFFFFFFFFFFFF AND DUP2 MSTORE PUSH1 0x20 ADD DUP5 DUP2 MSTORE POP SWAP1 POP PUSH1 0x0 PUSH1 0x40 MLOAD DUP1 PUSH1 0x80 ADD PUSH1 0x40 MSTORE DUP1 DUP11 DUP2 MSTORE PUSH1 0x20 ADD DUP5 DUP2 MSTORE PUSH1 0x20 ADD DUP10 PUSH1 0xFF AND DUP2 MSTORE PUSH1 0x20 ADD DUP9 PUSH4 0xFFFFFFFF AND DUP2 MSTORE POP SWAP1 POP DUP1 PUSH1 0x4 PUSH1 0x0 CALLER PUSH20 0xFFFFFFFFFFFFFFFFFFFFFFFFFFFFFFFFFFFFFFFF AND PUSH20 0xFFFFFFFFFFFFFFFFFFFFFFFFFFFFFFFFFFFFFFFF AND DUP2 MSTORE PUSH1 0x20 ADD SWAP1 DUP2 MSTORE PUSH1 0x20 ADD PUSH1 0x0 KECCAK256 PUSH1 0x0 DUP3 ADD MLOAD DUP2 PUSH1 0x0 ADD SWAP1 DUP1 MLOAD SWAP1 PUSH1 0x20 ADD SWAP1 PUSH2 0x536 SWAP3 SWAP2 SWAP1 PUSH2 0x15C9 JUMP JUMPDEST POP PUSH1 0x20 DUP3 ADD MLOAD DUP2 PUSH1 0x1 ADD PUSH1 0x0 DUP3 ADD MLOAD DUP2 PUSH1 0x0 ADD SWAP1 DUP1 MLOAD SWAP1 PUSH1 0x20 ADD SWAP1 PUSH2 0x55C SWAP3 SWAP2 SWAP1 PUSH2 0x15C9 JUMP JUMPDEST POP PUSH1 0x20 DUP3 ADD MLOAD DUP2 PUSH1 0x1 ADD PUSH1 0x0 PUSH2 0x100 EXP DUP2 SLOAD DUP2 PUSH8 0xFFFFFFFFFFFFFFFF MUL NOT AND SWAP1 DUP4 PUSH8 0xFFFFFFFFFFFFFFFF AND MUL OR SWAP1 SSTORE POP PUSH1 0x40 DUP3 ADD MLOAD DUP2 PUSH1 0x2 ADD SWAP1 DUP1 MLOAD SWAP1 PUSH1 0x20 ADD SWAP1 PUSH2 0x5A8 SWAP3 SWAP2 SWAP1 PUSH2 0x15C9 JUMP JUMPDEST POP POP POP PUSH1 0x40 DUP3 ADD MLOAD DUP2 PUSH1 0x4 ADD PUSH1 0x0 PUSH2 0x100 EXP DUP2 SLOAD DUP2 PUSH1 0xFF MUL NOT AND SWAP1 DUP4 PUSH1 0xFF AND MUL OR SWAP1 SSTORE POP PUSH1 0x60 DUP3 ADD MLOAD DUP2 PUSH1 0x4 ADD PUSH1 0x1 PUSH2 0x100 EXP DUP2 SLOAD DUP2 PUSH4 0xFFFFFFFF MUL NOT AND SWAP1 DUP4 PUSH4 0xFFFFFFFF AND MUL OR SWAP1 SSTORE POP SWAP1 POP POP DUP2 PUSH1 0x2 DUP7 PUSH1 0x40 MLOAD PUSH2 0x607 SWAP2 SWAP1 PUSH2 0x1B66 JUMP JUMPDEST SWAP1 DUP2 MSTORE PUSH1 0x20 ADD PUSH1 0x40 MLOAD DUP1 SWAP2 SUB SWAP1 KECCAK256 PUSH1 0x0 DUP3 ADD MLOAD DUP2 PUSH1 0x0 ADD PUSH1 0x0 PUSH2 0x100 EXP DUP2 SLOAD DUP2 PUSH20 0xFFFFFFFFFFFFFFFFFFFFFFFFFFFFFFFFFFFFFFFF MUL NOT AND SWAP1 DUP4 PUSH20 0xFFFFFFFFFFFFFFFFFFFFFFFFFFFFFFFFFFFFFFFF AND MUL OR SWAP1 SSTORE POP PUSH1 0x20 DUP3 ADD MLOAD DUP2 PUSH1 0x1 ADD SWAP1 DUP1 MLOAD SWAP1 PUSH1 0x20 ADD SWAP1 PUSH2 0x678 SWAP3 SWAP2 SWAP1 PUSH2 0x15C9 JUMP JUMPDEST POP SWAP1 POP POP PUSH1 0x0 JUMPDEST DUP7 PUSH4 0xFFFFFFFF AND DUP2 LT ISZERO PUSH2 0x706 JUMPI PUSH1 0x7 PUSH1 0x0 CALLER PUSH20 0xFFFFFFFFFFFFFFFFFFFFFFFFFFFFFFFFFFFFFFFF AND PUSH20 0xFFFFFFFFFFFFFFFFFFFFFFFFFFFFFFFFFFFFFFFF AND DUP2 MSTORE PUSH1 0x20 ADD SWAP1 DUP2 MSTORE PUSH1 0x20 ADD PUSH1 0x0 KECCAK256 TIMESTAMP SWAP1 DUP1 PUSH1 0x1 DUP2 SLOAD ADD DUP1 DUP3 SSTORE DUP1 SWAP2 POP POP PUSH1 0x1 SWAP1 SUB SWAP1 PUSH1 0x0 MSTORE PUSH1 0x20 PUSH1 0x0 KECCAK256 ADD PUSH1 0x0 SWAP1 SWAP2 SWAP1 SWAP2 SWAP1 SWAP2 POP SSTORE DUP1 DUP1 PUSH2 0x6FE SWAP1 PUSH2 0x1F74 JUMP JUMPDEST SWAP2 POP POP PUSH2 0x67F JUMP JUMPDEST POP POP POP POP POP POP POP POP POP POP JUMP JUMPDEST PUSH1 0x0 PUSH1 0x40 MLOAD DUP1 PUSH1 0x60 ADD PUSH1 0x40 MSTORE DUP1 DUP6 DUP2 MSTORE PUSH1 0x20 ADD DUP5 PUSH8 0xFFFFFFFFFFFFFFFF AND DUP2 MSTORE PUSH1 0x20 ADD DUP4 DUP2 MSTORE POP SWAP1 POP CALLER PUSH1 0x3 DUP6 PUSH1 0x40 MLOAD PUSH2 0x74C SWAP2 SWAP1 PUSH2 0x1B66 JUMP JUMPDEST SWAP1 DUP2 MSTORE PUSH1 0x20 ADD PUSH1 0x40 MLOAD DUP1 SWAP2 SUB SWAP1 KECCAK256 PUSH1 0x0 PUSH2 0x100 EXP DUP2 SLOAD DUP2 PUSH20 0xFFFFFFFFFFFFFFFFFFFFFFFFFFFFFFFFFFFFFFFF MUL NOT AND SWAP1 DUP4 PUSH20 0xFFFFFFFFFFFFFFFFFFFFFFFFFFFFFFFFFFFFFFFF AND MUL OR SWAP1 SSTORE POP DUP1 PUSH1 0x4 PUSH1 0x0 CALLER PUSH20 0xFFFFFFFFFFFFFFFFFFFFFFFFFFFFFFFFFFFFFFFF AND PUSH20 0xFFFFFFFFFFFFFFFFFFFFFFFFFFFFFFFFFFFFFFFF AND DUP2 MSTORE PUSH1 0x20 ADD SWAP1 DUP2 MSTORE PUSH1 0x20 ADD PUSH1 0x0 KECCAK256 PUSH1 0x1 ADD PUSH1 0x0 DUP3 ADD MLOAD DUP2 PUSH1 0x0 ADD SWAP1 DUP1 MLOAD SWAP1 PUSH1 0x20 ADD SWAP1 PUSH2 0x7F7 SWAP3 SWAP2 SWAP1 PUSH2 0x15C9 JUMP JUMPDEST POP PUSH1 0x20 DUP3 ADD MLOAD DUP2 PUSH1 0x1 ADD PUSH1 0x0 PUSH2 0x100 EXP DUP2 SLOAD DUP2 PUSH8 0xFFFFFFFFFFFFFFFF MUL NOT AND SWAP1 DUP4 PUSH8 0xFFFFFFFFFFFFFFFF AND MUL OR SWAP1 SSTORE POP PUSH1 0x40 DUP3 ADD MLOAD DUP2 PUSH1 0x2 ADD SWAP1 DUP1 MLOAD SWAP1 PUSH1 0x20 ADD SWAP1 PUSH2 0x843 SWAP3 SWAP2 SWAP1 PUSH2 0x15C9 JUMP JUMPDEST POP SWAP1 POP POP POP POP POP POP JUMP JUMPDEST PUSH1 0x4 PUSH1 0x20 MSTORE DUP1 PUSH1 0x0 MSTORE PUSH1 0x40 PUSH1 0x0 KECCAK256 PUSH1 0x0 SWAP2 POP SWAP1 POP DUP1 PUSH1 0x0 ADD DUP1 SLOAD PUSH2 0x870 SWAP1 PUSH2 0x1F11 JUMP JUMPDEST DUP1 PUSH1 0x1F ADD PUSH1 0x20 DUP1 SWAP2 DIV MUL PUSH1 0x20 ADD PUSH1 0x40 MLOAD SWAP1 DUP2 ADD PUSH1 0x40 MSTORE DUP1 SWAP3 SWAP2 SWAP1 DUP2 DUP2 MSTORE PUSH1 0x20 ADD DUP3 DUP1 SLOAD PUSH2 0x89C SWAP1 PUSH2 0x1F11 JUMP JUMPDEST DUP1 ISZERO PUSH2 0x8E9 JUMPI DUP1 PUSH1 0x1F LT PUSH2 0x8BE JUMPI PUSH2 0x100 DUP1 DUP4 SLOAD DIV MUL DUP4 MSTORE SWAP2 PUSH1 0x20 ADD SWAP2 PUSH2 0x8E9 JUMP JUMPDEST DUP3 ADD SWAP2 SWAP1 PUSH1 0x0 MSTORE PUSH1 0x20 PUSH1 0x0 KECCAK256 SWAP1 JUMPDEST DUP2 SLOAD DUP2 MSTORE SWAP1 PUSH1 0x1 ADD SWAP1 PUSH1 0x20 ADD DUP1 DUP4 GT PUSH2 0x8CC JUMPI DUP3 SWAP1 SUB PUSH1 0x1F AND DUP3 ADD SWAP2 JUMPDEST POP POP POP POP POP SWAP1 DUP1 PUSH1 0x1 ADD PUSH1 0x40 MLOAD DUP1 PUSH1 0x60 ADD PUSH1 0x40 MSTORE SWAP1 DUP2 PUSH1 0x0 DUP3 ADD DUP1 SLOAD PUSH2 0x90E SWAP1 PUSH2 0x1F11 JUMP JUMPDEST DUP1 PUSH1 0x1F ADD PUSH1 0x20 DUP1 SWAP2 DIV MUL PUSH1 0x20 ADD PUSH1 0x40 MLOAD SWAP1 DUP2 ADD PUSH1 0x40 MSTORE DUP1 SWAP3 SWAP2 SWAP1 DUP2 DUP2 MSTORE PUSH1 0x20 ADD DUP3 DUP1 SLOAD PUSH2 0x93A SWAP1 PUSH2 0x1F11 JUMP JUMPDEST DUP1 ISZERO PUSH2 0x987 JUMPI DUP1 PUSH1 0x1F LT PUSH2 0x95C JUMPI PUSH2 0x100 DUP1 DUP4 SLOAD DIV MUL DUP4 MSTORE SWAP2 PUSH1 0x20 ADD SWAP2 PUSH2 0x987 JUMP JUMPDEST DUP3 ADD SWAP2 SWAP1 PUSH1 0x0 MSTORE PUSH1 0x20 PUSH1 0x0 KECCAK256 SWAP1 JUMPDEST DUP2 SLOAD DUP2 MSTORE SWAP1 PUSH1 0x1 ADD SWAP1 PUSH1 0x20 ADD DUP1 DUP4 GT PUSH2 0x96A JUMPI DUP3 SWAP1 SUB PUSH1 0x1F AND DUP3 ADD SWAP2 JUMPDEST POP POP POP POP POP DUP2 MSTORE PUSH1 0x20 ADD PUSH1 0x1 DUP3 ADD PUSH1 0x0 SWAP1 SLOAD SWAP1 PUSH2 0x100 EXP SWAP1 DIV PUSH8 0xFFFFFFFFFFFFFFFF AND PUSH8 0xFFFFFFFFFFFFFFFF AND PUSH8 0xFFFFFFFFFFFFFFFF AND DUP2 MSTORE PUSH1 0x20 ADD PUSH1 0x2 DUP3 ADD DUP1 SLOAD PUSH2 0x9D2 SWAP1 PUSH2 0x1F11 JUMP JUMPDEST DUP1 PUSH1 0x1F ADD PUSH1 0x20 DUP1 SWAP2 DIV MUL PUSH1 0x20 ADD PUSH1 0x40 MLOAD SWAP1 DUP2 ADD PUSH1 0x40 MSTORE DUP1 SWAP3 SWAP2 SWAP1 DUP2 DUP2 MSTORE PUSH1 0x20 ADD DUP3 DUP1 SLOAD PUSH2 0x9FE SWAP1 PUSH2 0x1F11 JUMP JUMPDEST DUP1 ISZERO PUSH2 0xA4B JUMPI DUP1 PUSH1 0x1F LT PUSH2 0xA20 JUMPI PUSH2 0x100 DUP1 DUP4 SLOAD DIV MUL DUP4 MSTORE SWAP2 PUSH1 0x20 ADD SWAP2 PUSH2 0xA4B JUMP JUMPDEST DUP3 ADD SWAP2 SWAP1 PUSH1 0x0 MSTORE PUSH1 0x20 PUSH1 0x0 KECCAK256 SWAP1 JUMPDEST DUP2 SLOAD DUP2 MSTORE SWAP1 PUSH1 0x1 ADD SWAP1 PUSH1 0x20 ADD DUP1 DUP4 GT PUSH2 0xA2E JUMPI DUP3 SWAP1 SUB PUSH1 0x1F AND DUP3 ADD SWAP2 JUMPDEST POP POP POP POP POP DUP2 MSTORE POP POP SWAP1 DUP1 PUSH1 0x4 ADD PUSH1 0x0 SWAP1 SLOAD SWAP1 PUSH2 0x100 EXP SWAP1 DIV PUSH1 0xFF AND SWAP1 DUP1 PUSH1 0x4 ADD PUSH1 0x1 SWAP1 SLOAD SWAP1 PUSH2 0x100 EXP SWAP1 DIV PUSH4 0xFFFFFFFF AND SWAP1 POP DUP5 JUMP JUMPDEST PUSH1 0x0 PUSH1 0x7 PUSH1 0x0 CALLER PUSH20 0xFFFFFFFFFFFFFFFFFFFFFFFFFFFFFFFFFFFFFFFF AND PUSH20 0xFFFFFFFFFFFFFFFFFFFFFFFFFFFFFFFFFFFFFFFF AND DUP2 MSTORE PUSH1 0x20 ADD SWAP1 DUP2 MSTORE PUSH1 0x20 ADD PUSH1 0x0 KECCAK256 DUP1 SLOAD DUP1 PUSH1 0x20 MUL PUSH1 0x20 ADD PUSH1 0x40 MLOAD SWAP1 DUP2 ADD PUSH1 0x40 MSTORE DUP1 SWAP3 SWAP2 SWAP1 DUP2 DUP2 MSTORE PUSH1 0x20 ADD DUP3 DUP1 SLOAD DUP1 ISZERO PUSH2 0xB0D JUMPI PUSH1 0x20 MUL DUP3 ADD SWAP2 SWAP1 PUSH1 0x0 MSTORE PUSH1 0x20 PUSH1 0x0 KECCAK256 SWAP1 JUMPDEST DUP2 SLOAD DUP2 MSTORE PUSH1 0x20 ADD SWAP1 PUSH1 0x1 ADD SWAP1 DUP1 DUP4 GT PUSH2 0xAF9 JUMPI JUMPDEST POP POP POP POP POP SWAP1 POP PUSH1 0x0 DUP2 PUSH1 0x1 DUP4 MLOAD PUSH2 0xB25 SWAP2 SWAP1 PUSH2 0x1E06 JUMP JUMPDEST DUP2 MLOAD DUP2 LT PUSH2 0xB36 JUMPI PUSH2 0xB35 PUSH2 0x204A JUMP JUMPDEST JUMPDEST PUSH1 0x20 MUL PUSH1 0x20 ADD ADD MLOAD TIMESTAMP PUSH2 0xB49 SWAP2 SWAP1 PUSH2 0x1D72 JUMP JUMPDEST SWAP1 POP PUSH1 0x19 DUP2 SGT ISZERO PUSH2 0xC2D JUMPI PUSH1 0x0 DUP1 SLOAD SWAP1 PUSH2 0x100 EXP SWAP1 DIV PUSH20 0xFFFFFFFFFFFFFFFFFFFFFFFFFFFFFFFFFFFFFFFF AND PUSH20 0xFFFFFFFFFFFFFFFFFFFFFFFFFFFFFFFFFFFFFFFF AND PUSH2 0x8FC PUSH8 0x8AC7230489E80000 SWAP1 DUP2 ISZERO MUL SWAP1 PUSH1 0x40 MLOAD PUSH1 0x0 PUSH1 0x40 MLOAD DUP1 DUP4 SUB DUP2 DUP6 DUP9 DUP9 CALL SWAP4 POP POP POP POP ISZERO DUP1 ISZERO PUSH2 0xBC2 JUMPI RETURNDATASIZE PUSH1 0x0 DUP1 RETURNDATACOPY RETURNDATASIZE PUSH1 0x0 REVERT JUMPDEST POP PUSH1 0x7 PUSH1 0x0 CALLER PUSH20 0xFFFFFFFFFFFFFFFFFFFFFFFFFFFFFFFFFFFFFFFF AND PUSH20 0xFFFFFFFFFFFFFFFFFFFFFFFFFFFFFFFFFFFFFFFF AND DUP2 MSTORE PUSH1 0x20 ADD SWAP1 DUP2 MSTORE PUSH1 0x20 ADD PUSH1 0x0 KECCAK256 DUP1 SLOAD DUP1 PUSH2 0xC12 JUMPI PUSH2 0xC11 PUSH2 0x201B JUMP JUMPDEST JUMPDEST PUSH1 0x1 SWAP1 SUB DUP2 DUP2 SWAP1 PUSH1 0x0 MSTORE PUSH1 0x20 PUSH1 0x0 KECCAK256 ADD PUSH1 0x0 SWAP1 SSTORE SWAP1 SSTORE PUSH2 0xD02 JUMP JUMPDEST PUSH1 0x0 DUP1 SLOAD SWAP1 PUSH2 0x100 EXP SWAP1 DIV PUSH20 0xFFFFFFFFFFFFFFFFFFFFFFFFFFFFFFFFFFFFFFFF AND PUSH20 0xFFFFFFFFFFFFFFFFFFFFFFFFFFFFFFFFFFFFFFFF AND PUSH2 0x8FC PUSH8 0x4563918244F40000 SWAP1 DUP2 ISZERO MUL SWAP1 PUSH1 0x40 MLOAD PUSH1 0x0 PUSH1 0x40 MLOAD DUP1 DUP4 SUB DUP2 DUP6 DUP9 DUP9 CALL SWAP4 POP POP POP POP ISZERO DUP1 ISZERO PUSH2 0xC9B JUMPI RETURNDATASIZE PUSH1 0x0 DUP1 RETURNDATACOPY RETURNDATASIZE PUSH1 0x0 REVERT JUMPDEST POP PUSH1 0x7 PUSH1 0x0 CALLER PUSH20 0xFFFFFFFFFFFFFFFFFFFFFFFFFFFFFFFFFFFFFFFF AND PUSH20 0xFFFFFFFFFFFFFFFFFFFFFFFFFFFFFFFFFFFFFFFF AND DUP2 MSTORE PUSH1 0x20 ADD SWAP1 DUP2 MSTORE PUSH1 0x20 ADD PUSH1 0x0 KECCAK256 DUP1 SLOAD DUP1 PUSH2 0xCEB JUMPI PUSH2 0xCEA PUSH2 0x201B JUMP JUMPDEST JUMPDEST PUSH1 0x1 SWAP1 SUB DUP2 DUP2 SWAP1 PUSH1 0x0 MSTORE PUSH1 0x20 PUSH1 0x0 KECCAK256 ADD PUSH1 0x0 SWAP1 SSTORE SWAP1 SSTORE JUMPDEST POP POP JUMP JUMPDEST PUSH1 0x2 DUP2 DUP1 MLOAD PUSH1 0x20 DUP2 ADD DUP3 ADD DUP1 MLOAD DUP5 DUP3 MSTORE PUSH1 0x20 DUP4 ADD PUSH1 0x20 DUP6 ADD KECCAK256 DUP2 DUP4 MSTORE DUP1 SWAP6 POP POP POP POP POP POP PUSH1 0x0 SWAP2 POP SWAP1 POP DUP1 PUSH1 0x0 ADD PUSH1 0x0 SWAP1 SLOAD SWAP1 PUSH2 0x100 EXP SWAP1 DIV PUSH20 0xFFFFFFFFFFFFFFFFFFFFFFFFFFFFFFFFFFFFFFFF AND SWAP1 DUP1 PUSH1 0x1 ADD DUP1 SLOAD PUSH2 0xD65 SWAP1 PUSH2 0x1F11 JUMP JUMPDEST DUP1 PUSH1 0x1F ADD PUSH1 0x20 DUP1 SWAP2 DIV MUL PUSH1 0x20 ADD PUSH1 0x40 MLOAD SWAP1 DUP2 ADD PUSH1 0x40 MSTORE DUP1 SWAP3 SWAP2 SWAP1 DUP2 DUP2 MSTORE PUSH1 0x20 ADD DUP3 DUP1 SLOAD PUSH2 0xD91 SWAP1 PUSH2 0x1F11 JUMP JUMPDEST DUP1 ISZERO PUSH2 0xDDE JUMPI DUP1 PUSH1 0x1F LT PUSH2 0xDB3 JUMPI PUSH2 0x100 DUP1 DUP4 SLOAD DIV MUL DUP4 MSTORE SWAP2 PUSH1 0x20 ADD SWAP2 PUSH2 0xDDE JUMP JUMPDEST DUP3 ADD SWAP2 SWAP1 PUSH1 0x0 MSTORE PUSH1 0x20 PUSH1 0x0 KECCAK256 SWAP1 JUMPDEST DUP2 SLOAD DUP2 MSTORE SWAP1 PUSH1 0x1 ADD SWAP1 PUSH1 0x20 ADD DUP1 DUP4 GT PUSH2 0xDC1 JUMPI DUP3 SWAP1 SUB PUSH1 0x1F AND DUP3 ADD SWAP2 JUMPDEST POP POP POP POP POP SWAP1 POP DUP3 JUMP JUMPDEST PUSH1 0x0 DUP1 SLOAD SWAP1 PUSH2 0x100 EXP SWAP1 DIV PUSH20 0xFFFFFFFFFFFFFFFFFFFFFFFFFFFFFFFFFFFFFFFF AND DUP2 JUMP JUMPDEST PUSH1 0x0 PUSH1 0x3 DUP3 PUSH1 0x40 MLOAD PUSH2 0xE1E SWAP2 SWAP1 PUSH2 0x1B66 JUMP JUMPDEST SWAP1 DUP2 MSTORE PUSH1 0x20 ADD PUSH1 0x40 MLOAD DUP1 SWAP2 SUB SWAP1 KECCAK256 PUSH1 0x0 SWAP1 SLOAD SWAP1 PUSH2 0x100 EXP SWAP1 DIV PUSH20 0xFFFFFFFFFFFFFFFFFFFFFFFFFFFFFFFFFFFFFFFF AND SWAP1 POP PUSH1 0x0 PUSH20 0xFFFFFFFFFFFFFFFFFFFFFFFFFFFFFFFFFFFFFFFF AND DUP2 PUSH20 0xFFFFFFFFFFFFFFFFFFFFFFFFFFFFFFFFFFFFFFFF AND EQ ISZERO PUSH2 0xE89 JUMPI PUSH1 0x0 DUP1 REVERT JUMPDEST PUSH1 0x7 PUSH1 0x0 DUP3 PUSH20 0xFFFFFFFFFFFFFFFFFFFFFFFFFFFFFFFFFFFFFFFF AND PUSH20 0xFFFFFFFFFFFFFFFFFFFFFFFFFFFFFFFFFFFFFFFF AND DUP2 MSTORE PUSH1 0x20 ADD SWAP1 DUP2 MSTORE PUSH1 0x20 ADD PUSH1 0x0 KECCAK256 TIMESTAMP SWAP1 DUP1 PUSH1 0x1 DUP2 SLOAD ADD DUP1 DUP3 SSTORE DUP1 SWAP2 POP POP PUSH1 0x1 SWAP1 SUB SWAP1 PUSH1 0x0 MSTORE PUSH1 0x20 PUSH1 0x0 KECCAK256 ADD PUSH1 0x0 SWAP1 SWAP2 SWAP1 SWAP2 SWAP1 SWAP2 POP SSTORE POP POP JUMP JUMPDEST PUSH1 0x1 PUSH1 0x0 SWAP1 SLOAD SWAP1 PUSH2 0x100 EXP SWAP1 DIV PUSH20 0xFFFFFFFFFFFFFFFFFFFFFFFFFFFFFFFFFFFFFFFF AND DUP2 JUMP JUMPDEST PUSH1 0x6 PUSH1 0x20 MSTORE DUP1 PUSH1 0x0 MSTORE PUSH1 0x40 PUSH1 0x0 KECCAK256 PUSH1 0x0 SWAP2 POP SLOAD SWAP1 PUSH2 0x100 EXP SWAP1 DIV PUSH1 0xFF AND DUP2 JUMP JUMPDEST DUP1 CALLER PUSH20 0xFFFFFFFFFFFFFFFFFFFFFFFFFFFFFFFFFFFFFFFF AND BALANCE LT ISZERO PUSH2 0xF5D JUMPI PUSH1 0x0 DUP1 REVERT JUMPDEST PUSH1 0x0 PUSH1 0x8 PUSH1 0x0 CALLER PUSH20 0xFFFFFFFFFFFFFFFFFFFFFFFFFFFFFFFFFFFFFFFF AND PUSH20 0xFFFFFFFFFFFFFFFFFFFFFFFFFFFFFFFFFFFFFFFF AND DUP2 MSTORE PUSH1 0x20 ADD SWAP1 DUP2 MSTORE PUSH1 0x20 ADD PUSH1 0x0 KECCAK256 SLOAD EQ PUSH2 0xFA9 JUMPI PUSH1 0x0 DUP1 REVERT JUMPDEST DUP1 PUSH1 0x9 SLOAD GT ISZERO PUSH2 0x107C JUMPI PUSH1 0x0 DUP1 SLOAD SWAP1 PUSH2 0x100 EXP SWAP1 DIV PUSH20 0xFFFFFFFFFFFFFFFFFFFFFFFFFFFFFFFFFFFFFFFF AND PUSH20 0xFFFFFFFFFFFFFFFFFFFFFFFFFFFFFFFFFFFFFFFF AND PUSH2 0x8FC DUP3 SWAP1 DUP2 ISZERO MUL SWAP1 PUSH1 0x40 MLOAD PUSH1 0x0 PUSH1 0x40 MLOAD DUP1 DUP4 SUB DUP2 DUP6 DUP9 DUP9 CALL SWAP4 POP POP POP POP ISZERO DUP1 ISZERO PUSH2 0x1019 JUMPI RETURNDATASIZE PUSH1 0x0 DUP1 RETURNDATACOPY RETURNDATASIZE PUSH1 0x0 REVERT JUMPDEST POP DUP1 PUSH1 0x8 PUSH1 0x0 CALLER PUSH20 0xFFFFFFFFFFFFFFFFFFFFFFFFFFFFFFFFFFFFFFFF AND PUSH20 0xFFFFFFFFFFFFFFFFFFFFFFFFFFFFFFFFFFFFFFFF AND DUP2 MSTORE PUSH1 0x20 ADD SWAP1 DUP2 MSTORE PUSH1 0x20 ADD PUSH1 0x0 KECCAK256 DUP2 SWAP1 SSTORE POP DUP1 PUSH1 0x9 PUSH1 0x0 DUP3 DUP3 SLOAD PUSH2 0x1070 SWAP2 SWAP1 PUSH2 0x1E06 JUMP JUMPDEST SWAP3 POP POP DUP2 SWAP1 SSTORE POP PUSH2 0x127C JUMP JUMPDEST DUP1 PUSH1 0x9 SLOAD LT ISZERO PUSH2 0x11BC JUMPI PUSH1 0x0 PUSH1 0x9 SLOAD DUP3 PUSH2 0x1096 SWAP2 SWAP1 PUSH2 0x1E06 JUMP JUMPDEST SWAP1 POP PUSH1 0x0 DUP1 SLOAD SWAP1 PUSH2 0x100 EXP SWAP1 DIV PUSH20 0xFFFFFFFFFFFFFFFFFFFFFFFFFFFFFFFFFFFFFFFF AND PUSH20 0xFFFFFFFFFFFFFFFFFFFFFFFFFFFFFFFFFFFFFFFF AND PUSH2 0x8FC PUSH1 0x9 SLOAD SWAP1 DUP2 ISZERO MUL SWAP1 PUSH1 0x40 MLOAD PUSH1 0x0 PUSH1 0x40 MLOAD DUP1 DUP4 SUB DUP2 DUP6 DUP9 DUP9 CALL SWAP4 POP POP POP POP ISZERO DUP1 ISZERO PUSH2 0x1100 JUMPI RETURNDATASIZE PUSH1 0x0 DUP1 RETURNDATACOPY RETURNDATASIZE PUSH1 0x0 REVERT JUMPDEST POP PUSH1 0x1 PUSH1 0x0 SWAP1 SLOAD SWAP1 PUSH2 0x100 EXP SWAP1 DIV PUSH20 0xFFFFFFFFFFFFFFFFFFFFFFFFFFFFFFFFFFFFFFFF AND PUSH20 0xFFFFFFFFFFFFFFFFFFFFFFFFFFFFFFFFFFFFFFFF AND PUSH2 0x8FC DUP3 SWAP1 DUP2 ISZERO MUL SWAP1 PUSH1 0x40 MLOAD PUSH1 0x0 PUSH1 0x40 MLOAD DUP1 DUP4 SUB DUP2 DUP6 DUP9 DUP9 CALL SWAP4 POP POP POP POP ISZERO DUP1 ISZERO PUSH2 0x1169 JUMPI RETURNDATASIZE PUSH1 0x0 DUP1 RETURNDATACOPY RETURNDATASIZE PUSH1 0x0 REVERT JUMPDEST POP DUP2 PUSH1 0x8 PUSH1 0x0 CALLER PUSH20 0xFFFFFFFFFFFFFFFFFFFFFFFFFFFFFFFFFFFFFFFF AND PUSH20 0xFFFFFFFFFFFFFFFFFFFFFFFFFFFFFFFFFFFFFFFF AND DUP2 MSTORE PUSH1 0x20 ADD SWAP1 DUP2 MSTORE PUSH1 0x20 ADD PUSH1 0x0 KECCAK256 DUP2 SWAP1 SSTORE POP PUSH1 0x0 PUSH1 0x9 DUP2 SWAP1 SSTORE POP POP PUSH2 0x127B JUMP JUMPDEST DUP1 PUSH1 0x9 SLOAD EQ ISZERO PUSH2 0x127A JUMPI PUSH1 0x0 DUP1 SLOAD SWAP1 PUSH2 0x100 EXP SWAP1 DIV PUSH20 0xFFFFFFFFFFFFFFFFFFFFFFFFFFFFFFFFFFFFFFFF AND PUSH20 0xFFFFFFFFFFFFFFFFFFFFFFFFFFFFFFFFFFFFFFFF AND PUSH2 0x8FC DUP3 SWAP1 DUP2 ISZERO MUL SWAP1 PUSH1 0x40 MLOAD PUSH1 0x0 PUSH1 0x40 MLOAD DUP1 DUP4 SUB DUP2 DUP6 DUP9 DUP9 CALL SWAP4 POP POP POP POP ISZERO DUP1 ISZERO PUSH2 0x122C JUMPI RETURNDATASIZE PUSH1 0x0 DUP1 RETURNDATACOPY RETURNDATASIZE PUSH1 0x0 REVERT JUMPDEST POP DUP1 PUSH1 0x8 PUSH1 0x0 CALLER PUSH20 0xFFFFFFFFFFFFFFFFFFFFFFFFFFFFFFFFFFFFFFFF AND PUSH20 0xFFFFFFFFFFFFFFFFFFFFFFFFFFFFFFFFFFFFFFFF AND DUP2 MSTORE PUSH1 0x20 ADD SWAP1 DUP2 MSTORE PUSH1 0x20 ADD PUSH1 0x0 KECCAK256 DUP2 SWAP1 SSTORE POP PUSH1 0x0 PUSH1 0x9 DUP2 SWAP1 SSTORE POP JUMPDEST JUMPDEST JUMPDEST POP JUMP JUMPDEST PUSH1 0x7 PUSH1 0x20 MSTORE DUP2 PUSH1 0x0 MSTORE PUSH1 0x40 PUSH1 0x0 KECCAK256 DUP2 DUP2 SLOAD DUP2 LT PUSH2 0x129B JUMPI PUSH1 0x0 DUP1 REVERT JUMPDEST SWAP1 PUSH1 0x0 MSTORE PUSH1 0x20 PUSH1 0x0 KECCAK256 ADD PUSH1 0x0 SWAP2 POP SWAP2 POP POP SLOAD DUP2 JUMP JUMPDEST PUSH1 0x9 SLOAD DUP2 JUMP JUMPDEST PUSH1 0x0 PUSH1 0x3 DUP3 PUSH1 0x40 MLOAD PUSH2 0x12C8 SWAP2 SWAP1 PUSH2 0x1B66 JUMP JUMPDEST SWAP1 DUP2 MSTORE PUSH1 0x20 ADD PUSH1 0x40 MLOAD DUP1 SWAP2 SUB SWAP1 KECCAK256 PUSH1 0x0 SWAP1 SLOAD SWAP1 PUSH2 0x100 EXP SWAP1 DIV PUSH20 0xFFFFFFFFFFFFFFFFFFFFFFFFFFFFFFFFFFFFFFFF AND SWAP1 POP PUSH1 0x0 PUSH20 0xFFFFFFFFFFFFFFFFFFFFFFFFFFFFFFFFFFFFFFFF AND DUP2 PUSH20 0xFFFFFFFFFFFFFFFFFFFFFFFFFFFFFFFFFFFFFFFF AND EQ ISZERO PUSH2 0x1333 JUMPI PUSH1 0x0 DUP1 REVERT JUMPDEST PUSH1 0x1 PUSH1 0x4 PUSH1 0x0 DUP4 PUSH20 0xFFFFFFFFFFFFFFFFFFFFFFFFFFFFFFFFFFFFFFFF AND PUSH20 0xFFFFFFFFFFFFFFFFFFFFFFFFFFFFFFFFFFFFFFFF AND DUP2 MSTORE PUSH1 0x20 ADD SWAP1 DUP2 MSTORE PUSH1 0x20 ADD PUSH1 0x0 KECCAK256 PUSH1 0x4 ADD PUSH1 0x1 DUP3 DUP3 DUP3 SWAP1 SLOAD SWAP1 PUSH2 0x100 EXP SWAP1 DIV PUSH4 0xFFFFFFFF AND PUSH2 0x1395 SWAP2 SWAP1 PUSH2 0x1D38 JUMP JUMPDEST SWAP3 POP PUSH2 0x100 EXP DUP2 SLOAD DUP2 PUSH4 0xFFFFFFFF MUL NOT AND SWAP1 DUP4 PUSH4 0xFFFFFFFF AND MUL OR SWAP1 SSTORE POP POP POP JUMP JUMPDEST PUSH1 0x0 PUSH1 0x40 MLOAD DUP1 PUSH1 0x60 ADD PUSH1 0x40 MSTORE DUP1 DUP6 DUP2 MSTORE PUSH1 0x20 ADD DUP5 PUSH4 0xFFFFFFFF AND DUP2 MSTORE PUSH1 0x20 ADD DUP4 PUSH4 0xFFFFFFFF AND DUP2 MSTORE POP SWAP1 POP DUP1 PUSH1 0x5 PUSH1 0x0 CALLER PUSH20 0xFFFFFFFFFFFFFFFFFFFFFFFFFFFFFFFFFFFFFFFF AND PUSH20 0xFFFFFFFFFFFFFFFFFFFFFFFFFFFFFFFFFFFFFFFF AND DUP2 MSTORE PUSH1 0x20 ADD SWAP1 DUP2 MSTORE PUSH1 0x20 ADD PUSH1 0x0 KECCAK256 PUSH1 0x0 DUP3 ADD MLOAD DUP2 PUSH1 0x0 ADD SWAP1 DUP1 MLOAD SWAP1 PUSH1 0x20 ADD SWAP1 PUSH2 0x143E SWAP3 SWAP2 SWAP1 PUSH2 0x15C9 JUMP JUMPDEST POP PUSH1 0x20 DUP3 ADD MLOAD DUP2 PUSH1 0x1 ADD PUSH1 0x0 PUSH2 0x100 EXP DUP2 SLOAD DUP2 PUSH4 0xFFFFFFFF MUL NOT AND SWAP1 DUP4 PUSH4 0xFFFFFFFF AND MUL OR SWAP1 SSTORE POP PUSH1 0x40 DUP3 ADD MLOAD DUP2 PUSH1 0x1 ADD PUSH1 0x4 PUSH2 0x100 EXP DUP2 SLOAD DUP2 PUSH4 0xFFFFFFFF MUL NOT AND SWAP1 DUP4 PUSH4 0xFFFFFFFF AND MUL OR SWAP1 SSTORE POP SWAP1 POP POP POP POP POP POP JUMP JUMPDEST PUSH1 0x5 PUSH1 0x20 MSTORE DUP1 PUSH1 0x0 MSTORE PUSH1 0x40 PUSH1 0x0 KECCAK256 PUSH1 0x0 SWAP2 POP SWAP1 POP DUP1 PUSH1 0x0 ADD DUP1 SLOAD PUSH2 0x14B9 SWAP1 PUSH2 0x1F11 JUMP JUMPDEST DUP1 PUSH1 0x1F ADD PUSH1 0x20 DUP1 SWAP2 DIV MUL PUSH1 0x20 ADD PUSH1 0x40 MLOAD SWAP1 DUP2 ADD PUSH1 0x40 MSTORE DUP1 SWAP3 SWAP2 SWAP1 DUP2 DUP2 MSTORE PUSH1 0x20 ADD DUP3 DUP1 SLOAD PUSH2 0x14E5 SWAP1 PUSH2 0x1F11 JUMP JUMPDEST DUP1 ISZERO PUSH2 0x1532 JUMPI DUP1 PUSH1 0x1F LT PUSH2 0x1507 JUMPI PUSH2 0x100 DUP1 DUP4 SLOAD DIV MUL DUP4 MSTORE SWAP2 PUSH1 0x20 ADD SWAP2 PUSH2 0x1532 JUMP JUMPDEST DUP3 ADD SWAP2 SWAP1 PUSH1 0x0 MSTORE PUSH1 0x20 PUSH1 0x0 KECCAK256 SWAP1 JUMPDEST DUP2 SLOAD DUP2 MSTORE SWAP1 PUSH1 0x1 ADD SWAP1 PUSH1 0x20 ADD DUP1 DUP4 GT PUSH2 0x1515 JUMPI DUP3 SWAP1 SUB PUSH1 0x1F AND DUP3 ADD SWAP2 JUMPDEST POP POP POP POP POP SWAP1 DUP1 PUSH1 0x1 ADD PUSH1 0x0 SWAP1 SLOAD SWAP1 PUSH2 0x100 EXP SWAP1 DIV PUSH4 0xFFFFFFFF AND SWAP1 DUP1 PUSH1 0x1 ADD PUSH1 0x4 SWAP1 SLOAD SWAP1 PUSH2 0x100 EXP SWAP1 DIV PUSH4 0xFFFFFFFF AND SWAP1 POP DUP4 JUMP JUMPDEST PUSH1 0x3 DUP2 DUP1 MLOAD PUSH1 0x20 DUP2 ADD DUP3 ADD DUP1 MLOAD DUP5 DUP3 MSTORE PUSH1 0x20 DUP4 ADD PUSH1 0x20 DUP6 ADD KECCAK256 DUP2 DUP4 MSTORE DUP1 SWAP6 POP POP POP POP POP POP PUSH1 0x0 SWAP2 POP SLOAD SWAP1 PUSH2 0x100 EXP SWAP1 DIV PUSH20 0xFFFFFFFFFFFFFFFFFFFFFFFFFFFFFFFFFFFFFFFF AND DUP2 JUMP JUMPDEST PUSH1 0x8 PUSH1 0x20 MSTORE DUP1 PUSH1 0x0 MSTORE PUSH1 0x40 PUSH1 0x0 KECCAK256 PUSH1 0x0 SWAP2 POP SWAP1 POP SLOAD DUP2 JUMP JUMPDEST DUP3 DUP1 SLOAD PUSH2 0x15D5 SWAP1 PUSH2 0x1F11 JUMP JUMPDEST SWAP1 PUSH1 0x0 MSTORE PUSH1 0x20 PUSH1 0x0 KECCAK256 SWAP1 PUSH1 0x1F ADD PUSH1 0x20 SWAP1 DIV DUP2 ADD SWAP3 DUP3 PUSH2 0x15F7 JUMPI PUSH1 0x0 DUP6 SSTORE PUSH2 0x163E JUMP JUMPDEST DUP3 PUSH1 0x1F LT PUSH2 0x1610 JUMPI DUP1 MLOAD PUSH1 0xFF NOT AND DUP4 DUP1 ADD OR DUP6 SSTORE PUSH2 0x163E JUMP JUMPDEST DUP3 DUP1 ADD PUSH1 0x1 ADD DUP6 SSTORE DUP3 ISZERO PUSH2 0x163E JUMPI SWAP2 DUP3 ADD JUMPDEST DUP3 DUP2 GT ISZERO PUSH2 0x163D JUMPI DUP3 MLOAD DUP3 SSTORE SWAP2 PUSH1 0x20 ADD SWAP2 SWAP1 PUSH1 0x1 ADD SWAP1 PUSH2 0x1622 JUMP JUMPDEST JUMPDEST POP SWAP1 POP PUSH2 0x164B SWAP2 SWAP1 PUSH2 0x164F JUMP JUMPDEST POP SWAP1 JUMP JUMPDEST JUMPDEST DUP1 DUP3 GT ISZERO PUSH2 0x1668 JUMPI PUSH1 0x0 DUP2 PUSH1 0x0 SWAP1 SSTORE POP PUSH1 0x1 ADD PUSH2 0x1650 JUMP JUMPDEST POP SWAP1 JUMP JUMPDEST PUSH1 0x0 PUSH2 0x167F PUSH2 0x167A DUP5 PUSH2 0x1CCF JUMP JUMPDEST PUSH2 0x1CAA JUMP JUMPDEST SWAP1 POP DUP3 DUP2 MSTORE PUSH1 0x20 DUP2 ADD DUP5 DUP5 DUP5 ADD GT ISZERO PUSH2 0x169B JUMPI PUSH2 0x169A PUSH2 0x20AD JUMP JUMPDEST JUMPDEST PUSH2 0x16A6 DUP5 DUP3 DUP6 PUSH2 0x1ECF JUMP JUMPDEST POP SWAP4 SWAP3 POP POP POP JUMP JUMPDEST PUSH1 0x0 DUP2 CALLDATALOAD SWAP1 POP PUSH2 0x16BD DUP2 PUSH2 0x20CD JUMP JUMPDEST SWAP3 SWAP2 POP POP JUMP JUMPDEST PUSH1 0x0 DUP3 PUSH1 0x1F DUP4 ADD SLT PUSH2 0x16D8 JUMPI PUSH2 0x16D7 PUSH2 0x20A8 JUMP JUMPDEST JUMPDEST DUP2 CALLDATALOAD PUSH2 0x16E8 DUP5 DUP3 PUSH1 0x20 DUP7 ADD PUSH2 0x166C JUMP JUMPDEST SWAP2 POP POP SWAP3 SWAP2 POP POP JUMP JUMPDEST PUSH1 0x0 DUP2 CALLDATALOAD SWAP1 POP PUSH2 0x1700 DUP2 PUSH2 0x20E4 JUMP JUMPDEST SWAP3 SWAP2 POP POP JUMP JUMPDEST PUSH1 0x0 DUP2 CALLDATALOAD SWAP1 POP PUSH2 0x1715 DUP2 PUSH2 0x20FB JUMP JUMPDEST SWAP3 SWAP2 POP POP JUMP JUMPDEST PUSH1 0x0 DUP2 CALLDATALOAD SWAP1 POP PUSH2 0x172A DUP2 PUSH2 0x2112 JUMP JUMPDEST SWAP3 SWAP2 POP POP JUMP JUMPDEST PUSH1 0x0 DUP2 CALLDATALOAD SWAP1 POP PUSH2 0x173F DUP2 PUSH2 0x2129 JUMP JUMPDEST SWAP3 SWAP2 POP POP JUMP JUMPDEST PUSH1 0x0 PUSH1 0x20 DUP3 DUP5 SUB SLT ISZERO PUSH2 0x175B JUMPI PUSH2 0x175A PUSH2 0x20B7 JUMP JUMPDEST JUMPDEST PUSH1 0x0 PUSH2 0x1769 DUP5 DUP3 DUP6 ADD PUSH2 0x16AE JUMP JUMPDEST SWAP2 POP POP SWAP3 SWAP2 POP POP JUMP JUMPDEST PUSH1 0x0 DUP1 PUSH1 0x40 DUP4 DUP6 SUB SLT ISZERO PUSH2 0x1789 JUMPI PUSH2 0x1788 PUSH2 0x20B7 JUMP JUMPDEST JUMPDEST PUSH1 0x0 PUSH2 0x1797 DUP6 DUP3 DUP7 ADD PUSH2 0x16AE JUMP JUMPDEST SWAP3 POP POP PUSH1 0x20 PUSH2 0x17A8 DUP6 DUP3 DUP7 ADD PUSH2 0x16F1 JUMP JUMPDEST SWAP2 POP POP SWAP3 POP SWAP3 SWAP1 POP JUMP JUMPDEST PUSH1 0x0 PUSH1 0x20 DUP3 DUP5 SUB SLT ISZERO PUSH2 0x17C8 JUMPI PUSH2 0x17C7 PUSH2 0x20B7 JUMP JUMPDEST JUMPDEST PUSH1 0x0 DUP3 ADD CALLDATALOAD PUSH8 0xFFFFFFFFFFFFFFFF DUP2 GT ISZERO PUSH2 0x17E6 JUMPI PUSH2 0x17E5 PUSH2 0x20B2 JUMP JUMPDEST JUMPDEST PUSH2 0x17F2 DUP5 DUP3 DUP6 ADD PUSH2 0x16C3 JUMP JUMPDEST SWAP2 POP POP SWAP3 SWAP2 POP POP JUMP JUMPDEST PUSH1 0x0 DUP1 PUSH1 0x0 PUSH1 0x60 DUP5 DUP7 SUB SLT ISZERO PUSH2 0x1814 JUMPI PUSH2 0x1813 PUSH2 0x20B7 JUMP JUMPDEST JUMPDEST PUSH1 0x0 DUP5 ADD CALLDATALOAD PUSH8 0xFFFFFFFFFFFFFFFF DUP2 GT ISZERO PUSH2 0x1832 JUMPI PUSH2 0x1831 PUSH2 0x20B2 JUMP JUMPDEST JUMPDEST PUSH2 0x183E DUP7 DUP3 DUP8 ADD PUSH2 0x16C3 JUMP JUMPDEST SWAP4 POP POP PUSH1 0x20 PUSH2 0x184F DUP7 DUP3 DUP8 ADD PUSH2 0x1706 JUMP JUMPDEST SWAP3 POP POP PUSH1 0x40 PUSH2 0x1860 DUP7 DUP3 DUP8 ADD PUSH2 0x1706 JUMP JUMPDEST SWAP2 POP POP SWAP3 POP SWAP3 POP SWAP3 JUMP JUMPDEST PUSH1 0x0 DUP1 PUSH1 0x0 PUSH1 0x60 DUP5 DUP7 SUB SLT ISZERO PUSH2 0x1883 JUMPI PUSH2 0x1882 PUSH2 0x20B7 JUMP JUMPDEST JUMPDEST PUSH1 0x0 DUP5 ADD CALLDATALOAD PUSH8 0xFFFFFFFFFFFFFFFF DUP2 GT ISZERO PUSH2 0x18A1 JUMPI PUSH2 0x18A0 PUSH2 0x20B2 JUMP JUMPDEST JUMPDEST PUSH2 0x18AD DUP7 DUP3 DUP8 ADD PUSH2 0x16C3 JUMP JUMPDEST SWAP4 POP POP PUSH1 0x20 PUSH2 0x18BE DUP7 DUP3 DUP8 ADD PUSH2 0x171B JUMP JUMPDEST SWAP3 POP POP PUSH1 0x40 DUP5 ADD CALLDATALOAD PUSH8 0xFFFFFFFFFFFFFFFF DUP2 GT ISZERO PUSH2 0x18DF JUMPI PUSH2 0x18DE PUSH2 0x20B2 JUMP JUMPDEST JUMPDEST PUSH2 0x18EB DUP7 DUP3 DUP8 ADD PUSH2 0x16C3 JUMP JUMPDEST SWAP2 POP POP SWAP3 POP SWAP3 POP SWAP3 JUMP JUMPDEST PUSH1 0x0 DUP1 PUSH1 0x0 DUP1 PUSH1 0x0 DUP1 PUSH1 0xC0 DUP8 DUP10 SUB SLT ISZERO PUSH2 0x1912 JUMPI PUSH2 0x1911 PUSH2 0x20B7 JUMP JUMPDEST JUMPDEST PUSH1 0x0 DUP8 ADD CALLDATALOAD PUSH8 0xFFFFFFFFFFFFFFFF DUP2 GT ISZERO PUSH2 0x1930 JUMPI PUSH2 0x192F PUSH2 0x20B2 JUMP JUMPDEST JUMPDEST PUSH2 0x193C DUP10 DUP3 DUP11 ADD PUSH2 0x16C3 JUMP JUMPDEST SWAP7 POP POP PUSH1 0x20 PUSH2 0x194D DUP10 DUP3 DUP11 ADD PUSH2 0x1730 JUMP JUMPDEST SWAP6 POP POP PUSH1 0x40 PUSH2 0x195E DUP10 DUP3 DUP11 ADD PUSH2 0x1706 JUMP JUMPDEST SWAP5 POP POP PUSH1 0x60 PUSH2 0x196F DUP10 DUP3 DUP11 ADD PUSH2 0x1706 JUMP JUMPDEST SWAP4 POP POP PUSH1 0x80 DUP8 ADD CALLDATALOAD PUSH8 0xFFFFFFFFFFFFFFFF DUP2 GT ISZERO PUSH2 0x1990 JUMPI PUSH2 0x198F PUSH2 0x20B2 JUMP JUMPDEST JUMPDEST PUSH2 0x199C DUP10 DUP3 DUP11 ADD PUSH2 0x16C3 JUMP JUMPDEST SWAP3 POP POP PUSH1 0xA0 DUP8 ADD CALLDATALOAD PUSH8 0xFFFFFFFFFFFFFFFF DUP2 GT ISZERO PUSH2 0x19BD JUMPI PUSH2 0x19BC PUSH2 0x20B2 JUMP JUMPDEST JUMPDEST PUSH2 0x19C9 DUP10 DUP3 DUP11 ADD PUSH2 0x16C3 JUMP JUMPDEST SWAP2 POP POP SWAP3 SWAP6 POP SWAP3 SWAP6 POP SWAP3 SWAP6 JUMP JUMPDEST PUSH1 0x0 PUSH1 0x20 DUP3 DUP5 SUB SLT ISZERO PUSH2 0x19EC JUMPI PUSH2 0x19EB PUSH2 0x20B7 JUMP JUMPDEST JUMPDEST PUSH1 0x0 PUSH2 0x19FA DUP5 DUP3 DUP6 ADD PUSH2 0x16F1 JUMP JUMPDEST SWAP2 POP POP SWAP3 SWAP2 POP POP JUMP JUMPDEST PUSH2 0x1A0C DUP2 PUSH2 0x1E4C JUMP JUMPDEST DUP3 MSTORE POP POP JUMP JUMPDEST PUSH2 0x1A1B DUP2 PUSH2 0x1E3A JUMP JUMPDEST DUP3 MSTORE POP POP JUMP JUMPDEST PUSH2 0x1A2A DUP2 PUSH2 0x1E5E JUMP JUMPDEST DUP3 MSTORE POP POP JUMP JUMPDEST PUSH1 0x0 PUSH2 0x1A3B DUP3 PUSH2 0x1D00 JUMP JUMPDEST PUSH2 0x1A45 DUP2 DUP6 PUSH2 0x1D0B JUMP JUMPDEST SWAP4 POP PUSH2 0x1A55 DUP2 DUP6 PUSH1 0x20 DUP7 ADD PUSH2 0x1EDE JUMP JUMPDEST PUSH2 0x1A5E DUP2 PUSH2 0x20BC JUMP JUMPDEST DUP5 ADD SWAP2 POP POP SWAP3 SWAP2 POP POP JUMP JUMPDEST PUSH1 0x0 PUSH2 0x1A74 DUP3 PUSH2 0x1D00 JUMP JUMPDEST PUSH2 0x1A7E DUP2 DUP6 PUSH2 0x1D1C JUMP JUMPDEST SWAP4 POP PUSH2 0x1A8E DUP2 DUP6 PUSH1 0x20 DUP7 ADD PUSH2 0x1EDE JUMP JUMPDEST PUSH2 0x1A97 DUP2 PUSH2 0x20BC JUMP JUMPDEST DUP5 ADD SWAP2 POP POP SWAP3 SWAP2 POP POP JUMP JUMPDEST PUSH1 0x0 PUSH2 0x1AAD DUP3 PUSH2 0x1D00 JUMP JUMPDEST PUSH2 0x1AB7 DUP2 DUP6 PUSH2 0x1D2D JUMP JUMPDEST SWAP4 POP PUSH2 0x1AC7 DUP2 DUP6 PUSH1 0x20 DUP7 ADD PUSH2 0x1EDE JUMP JUMPDEST DUP1 DUP5 ADD SWAP2 POP POP SWAP3 SWAP2 POP POP JUMP JUMPDEST PUSH1 0x0 PUSH1 0x60 DUP4 ADD PUSH1 0x0 DUP4 ADD MLOAD DUP5 DUP3 SUB PUSH1 0x0 DUP7 ADD MSTORE PUSH2 0x1AF0 DUP3 DUP3 PUSH2 0x1A30 JUMP JUMPDEST SWAP2 POP POP PUSH1 0x20 DUP4 ADD MLOAD PUSH2 0x1B05 PUSH1 0x20 DUP7 ADD DUP3 PUSH2 0x1B48 JUMP JUMPDEST POP PUSH1 0x40 DUP4 ADD MLOAD DUP5 DUP3 SUB PUSH1 0x40 DUP7 ADD MSTORE PUSH2 0x1B1D DUP3 DUP3 PUSH2 0x1A30 JUMP JUMPDEST SWAP2 POP POP DUP1 SWAP2 POP POP SWAP3 SWAP2 POP POP JUMP JUMPDEST PUSH2 0x1B33 DUP2 PUSH2 0x1E94 JUMP JUMPDEST DUP3 MSTORE POP POP JUMP JUMPDEST PUSH2 0x1B42 DUP2 PUSH2 0x1E9E JUMP JUMPDEST DUP3 MSTORE POP POP JUMP JUMPDEST PUSH2 0x1B51 DUP2 PUSH2 0x1EAE JUMP JUMPDEST DUP3 MSTORE POP POP JUMP JUMPDEST PUSH2 0x1B60 DUP2 PUSH2 0x1EC2 JUMP JUMPDEST DUP3 MSTORE POP POP JUMP JUMPDEST PUSH1 0x0 PUSH2 0x1B72 DUP3 DUP5 PUSH2 0x1AA2 JUMP JUMPDEST SWAP2 POP DUP2 SWAP1 POP SWAP3 SWAP2 POP POP JUMP JUMPDEST PUSH1 0x0 PUSH1 0x20 DUP3 ADD SWAP1 POP PUSH2 0x1B92 PUSH1 0x0 DUP4 ADD DUP5 PUSH2 0x1A12 JUMP JUMPDEST SWAP3 SWAP2 POP POP JUMP JUMPDEST PUSH1 0x0 PUSH1 0x20 DUP3 ADD SWAP1 POP PUSH2 0x1BAD PUSH1 0x0 DUP4 ADD DUP5 PUSH2 0x1A03 JUMP JUMPDEST SWAP3 SWAP2 POP POP JUMP JUMPDEST PUSH1 0x0 PUSH1 0x40 DUP3 ADD SWAP1 POP PUSH2 0x1BC8 PUSH1 0x0 DUP4 ADD DUP6 PUSH2 0x1A12 JUMP JUMPDEST DUP2 DUP2 SUB PUSH1 0x20 DUP4 ADD MSTORE PUSH2 0x1BDA DUP2 DUP5 PUSH2 0x1A69 JUMP JUMPDEST SWAP1 POP SWAP4 SWAP3 POP POP POP JUMP JUMPDEST PUSH1 0x0 PUSH1 0x20 DUP3 ADD SWAP1 POP PUSH2 0x1BF8 PUSH1 0x0 DUP4 ADD DUP5 PUSH2 0x1A21 JUMP JUMPDEST SWAP3 SWAP2 POP POP JUMP JUMPDEST PUSH1 0x0 PUSH1 0x80 DUP3 ADD SWAP1 POP DUP2 DUP2 SUB PUSH1 0x0 DUP4 ADD MSTORE PUSH2 0x1C18 DUP2 DUP8 PUSH2 0x1A69 JUMP JUMPDEST SWAP1 POP DUP2 DUP2 SUB PUSH1 0x20 DUP4 ADD MSTORE PUSH2 0x1C2C DUP2 DUP7 PUSH2 0x1AD3 JUMP JUMPDEST SWAP1 POP PUSH2 0x1C3B PUSH1 0x40 DUP4 ADD DUP6 PUSH2 0x1B57 JUMP JUMPDEST PUSH2 0x1C48 PUSH1 0x60 DUP4 ADD DUP5 PUSH2 0x1B39 JUMP JUMPDEST SWAP6 SWAP5 POP POP POP POP POP JUMP JUMPDEST PUSH1 0x0 PUSH1 0x60 DUP3 ADD SWAP1 POP DUP2 DUP2 SUB PUSH1 0x0 DUP4 ADD MSTORE PUSH2 0x1C6B DUP2 DUP7 PUSH2 0x1A69 JUMP JUMPDEST SWAP1 POP PUSH2 0x1C7A PUSH1 0x20 DUP4 ADD DUP6 PUSH2 0x1B39 JUMP JUMPDEST PUSH2 0x1C87 PUSH1 0x40 DUP4 ADD DUP5 PUSH2 0x1B39 JUMP JUMPDEST SWAP5 SWAP4 POP POP POP POP JUMP JUMPDEST PUSH1 0x0 PUSH1 0x20 DUP3 ADD SWAP1 POP PUSH2 0x1CA4 PUSH1 0x0 DUP4 ADD DUP5 PUSH2 0x1B2A JUMP JUMPDEST SWAP3 SWAP2 POP POP JUMP JUMPDEST PUSH1 0x0 PUSH2 0x1CB4 PUSH2 0x1CC5 JUMP JUMPDEST SWAP1 POP PUSH2 0x1CC0 DUP3 DUP3 PUSH2 0x1F43 JUMP JUMPDEST SWAP2 SWAP1 POP JUMP JUMPDEST PUSH1 0x0 PUSH1 0x40 MLOAD SWAP1 POP SWAP1 JUMP JUMPDEST PUSH1 0x0 PUSH8 0xFFFFFFFFFFFFFFFF DUP3 GT ISZERO PUSH2 0x1CEA JUMPI PUSH2 0x1CE9 PUSH2 0x2079 JUMP JUMPDEST JUMPDEST PUSH2 0x1CF3 DUP3 PUSH2 0x20BC JUMP JUMPDEST SWAP1 POP PUSH1 0x20 DUP2 ADD SWAP1 POP SWAP2 SWAP1 POP JUMP JUMPDEST PUSH1 0x0 DUP2 MLOAD SWAP1 POP SWAP2 SWAP1 POP JUMP JUMPDEST PUSH1 0x0 DUP3 DUP3 MSTORE PUSH1 0x20 DUP3 ADD SWAP1 POP SWAP3 SWAP2 POP POP JUMP JUMPDEST PUSH1 0x0 DUP3 DUP3 MSTORE PUSH1 0x20 DUP3 ADD SWAP1 POP SWAP3 SWAP2 POP POP JUMP JUMPDEST PUSH1 0x0 DUP2 SWAP1 POP SWAP3 SWAP2 POP POP JUMP JUMPDEST PUSH1 0x0 PUSH2 0x1D43 DUP3 PUSH2 0x1E9E JUMP JUMPDEST SWAP2 POP PUSH2 0x1D4E DUP4 PUSH2 0x1E9E JUMP JUMPDEST SWAP3 POP DUP3 PUSH4 0xFFFFFFFF SUB DUP3 GT ISZERO PUSH2 0x1D67 JUMPI PUSH2 0x1D66 PUSH2 0x1FBD JUMP JUMPDEST JUMPDEST DUP3 DUP3 ADD SWAP1 POP SWAP3 SWAP2 POP POP JUMP JUMPDEST PUSH1 0x0 PUSH2 0x1D7D DUP3 PUSH2 0x1E6A JUMP JUMPDEST SWAP2 POP PUSH2 0x1D88 DUP4 PUSH2 0x1E6A JUMP JUMPDEST SWAP3 POP DUP3 PUSH32 0x8000000000000000000000000000000000000000000000000000000000000000 ADD DUP3 SLT PUSH1 0x0 DUP5 SLT ISZERO AND ISZERO PUSH2 0x1DC3 JUMPI PUSH2 0x1DC2 PUSH2 0x1FBD JUMP JUMPDEST JUMPDEST DUP3 PUSH32 0x7FFFFFFFFFFFFFFFFFFFFFFFFFFFFFFFFFFFFFFFFFFFFFFFFFFFFFFFFFFFFFFF ADD DUP3 SGT PUSH1 0x0 DUP5 SLT AND ISZERO PUSH2 0x1DFB JUMPI PUSH2 0x1DFA PUSH2 0x1FBD JUMP JUMPDEST JUMPDEST DUP3 DUP3 SUB SWAP1 POP SWAP3 SWAP2 POP POP JUMP JUMPDEST PUSH1 0x0 PUSH2 0x1E11 DUP3 PUSH2 0x1E94 JUMP JUMPDEST SWAP2 POP PUSH2 0x1E1C DUP4 PUSH2 0x1E94 JUMP JUMPDEST SWAP3 POP DUP3 DUP3 LT ISZERO PUSH2 0x1E2F JUMPI PUSH2 0x1E2E PUSH2 0x1FBD JUMP JUMPDEST JUMPDEST DUP3 DUP3 SUB SWAP1 POP SWAP3 SWAP2 POP POP JUMP JUMPDEST PUSH1 0x0 PUSH2 0x1E45 DUP3 PUSH2 0x1E74 JUMP JUMPDEST SWAP1 POP SWAP2 SWAP1 POP JUMP JUMPDEST PUSH1 0x0 PUSH2 0x1E57 DUP3 PUSH2 0x1E74 JUMP JUMPDEST SWAP1 POP SWAP2 SWAP1 POP JUMP JUMPDEST PUSH1 0x0 DUP2 ISZERO ISZERO SWAP1 POP SWAP2 SWAP1 POP JUMP JUMPDEST PUSH1 0x0 DUP2 SWAP1 POP SWAP2 SWAP1 POP JUMP JUMPDEST PUSH1 0x0 PUSH20 0xFFFFFFFFFFFFFFFFFFFFFFFFFFFFFFFFFFFFFFFF DUP3 AND SWAP1 POP SWAP2 SWAP1 POP JUMP JUMPDEST PUSH1 0x0 DUP2 SWAP1 POP SWAP2 SWAP1 POP JUMP JUMPDEST PUSH1 0x0 PUSH4 0xFFFFFFFF DUP3 AND SWAP1 POP SWAP2 SWAP1 POP JUMP JUMPDEST PUSH1 0x0 PUSH8 0xFFFFFFFFFFFFFFFF DUP3 AND SWAP1 POP SWAP2 SWAP1 POP JUMP JUMPDEST PUSH1 0x0 PUSH1 0xFF DUP3 AND SWAP1 POP SWAP2 SWAP1 POP JUMP JUMPDEST DUP3 DUP2 DUP4 CALLDATACOPY PUSH1 0x0 DUP4 DUP4 ADD MSTORE POP POP POP JUMP JUMPDEST PUSH1 0x0 JUMPDEST DUP4 DUP2 LT ISZERO PUSH2 0x1EFC JUMPI DUP1 DUP3 ADD MLOAD DUP2 DUP5 ADD MSTORE PUSH1 0x20 DUP2 ADD SWAP1 POP PUSH2 0x1EE1 JUMP JUMPDEST DUP4 DUP2 GT ISZERO PUSH2 0x1F0B JUMPI PUSH1 0x0 DUP5 DUP5 ADD MSTORE JUMPDEST POP POP POP POP JUMP JUMPDEST PUSH1 0x0 PUSH1 0x2 DUP3 DIV SWAP1 POP PUSH1 0x1 DUP3 AND DUP1 PUSH2 0x1F29 JUMPI PUSH1 0x7F DUP3 AND SWAP2 POP JUMPDEST PUSH1 0x20 DUP3 LT DUP2 EQ ISZERO PUSH2 0x1F3D JUMPI PUSH2 0x1F3C PUSH2 0x1FEC JUMP JUMPDEST JUMPDEST POP SWAP2 SWAP1 POP JUMP JUMPDEST PUSH2 0x1F4C DUP3 PUSH2 0x20BC JUMP JUMPDEST DUP2 ADD DUP2 DUP2 LT PUSH8 0xFFFFFFFFFFFFFFFF DUP3 GT OR ISZERO PUSH2 0x1F6B JUMPI PUSH2 0x1F6A PUSH2 0x2079 JUMP JUMPDEST JUMPDEST DUP1 PUSH1 0x40 MSTORE POP POP POP JUMP JUMPDEST PUSH1 0x0 PUSH2 0x1F7F DUP3 PUSH2 0x1E94 JUMP JUMPDEST SWAP2 POP PUSH32 0xFFFFFFFFFFFFFFFFFFFFFFFFFFFFFFFFFFFFFFFFFFFFFFFFFFFFFFFFFFFFFFFF DUP3 EQ ISZERO PUSH2 0x1FB2 JUMPI PUSH2 0x1FB1 PUSH2 0x1FBD JUMP JUMPDEST JUMPDEST PUSH1 0x1 DUP3 ADD SWAP1 POP SWAP2 SWAP1 POP JUMP JUMPDEST PUSH32 0x4E487B7100000000000000000000000000000000000000000000000000000000 PUSH1 0x0 MSTORE PUSH1 0x11 PUSH1 0x4 MSTORE PUSH1 0x24 PUSH1 0x0 REVERT JUMPDEST PUSH32 0x4E487B7100000000000000000000000000000000000000000000000000000000 PUSH1 0x0 MSTORE PUSH1 0x22 PUSH1 0x4 MSTORE PUSH1 0x24 PUSH1 0x0 REVERT JUMPDEST PUSH32 0x4E487B7100000000000000000000000000000000000000000000000000000000 PUSH1 0x0 MSTORE PUSH1 0x31 PUSH1 0x4 MSTORE PUSH1 0x24 PUSH1 0x0 REVERT JUMPDEST PUSH32 0x4E487B7100000000000000000000000000000000000000000000000000000000 PUSH1 0x0 MSTORE PUSH1 0x32 PUSH1 0x4 MSTORE PUSH1 0x24 PUSH1 0x0 REVERT JUMPDEST PUSH32 0x4E487B7100000000000000000000000000000000000000000000000000000000 PUSH1 0x0 MSTORE PUSH1 0x41 PUSH1 0x4 MSTORE PUSH1 0x24 PUSH1 0x0 REVERT JUMPDEST PUSH1 0x0 DUP1 REVERT JUMPDEST PUSH1 0x0 DUP1 REVERT JUMPDEST PUSH1 0x0 DUP1 REVERT JUMPDEST PUSH1 0x0 DUP1 REVERT JUMPDEST PUSH1 0x0 PUSH1 0x1F NOT PUSH1 0x1F DUP4 ADD AND SWAP1 POP SWAP2 SWAP1 POP JUMP JUMPDEST PUSH2 0x20D6 DUP2 PUSH2 0x1E3A JUMP JUMPDEST DUP2 EQ PUSH2 0x20E1 JUMPI PUSH1 0x0 DUP1 REVERT JUMPDEST POP JUMP JUMPDEST PUSH2 0x20ED DUP2 PUSH2 0x1E94 JUMP JUMPDEST DUP2 EQ PUSH2 0x20F8 JUMPI PUSH1 0x0 DUP1 REVERT JUMPDEST POP JUMP JUMPDEST PUSH2 0x2104 DUP2 PUSH2 0x1E9E JUMP JUMPDEST DUP2 EQ PUSH2 0x210F JUMPI PUSH1 0x0 DUP1 REVERT JUMPDEST POP JUMP JUMPDEST PUSH2 0x211B DUP2 PUSH2 0x1EAE JUMP JUMPDEST DUP2 EQ PUSH2 0x2126 JUMPI PUSH1 0x0 DUP1 REVERT JUMPDEST POP JUMP JUMPDEST PUSH2 0x2132 DUP2 PUSH2 0x1EC2 JUMP JUMPDEST DUP2 EQ PUSH2 0x213D JUMPI PUSH1 0x0 DUP1 REVERT JUMPDEST POP JUMP INVALID LOG2 PUSH5 0x6970667358 0x22 SLT KECCAK256 DUP6 NUMBER BASEFEE SWAP10 0xAD BYTE SELFBALANCE 0xDE 0x27 0xE6 0xB2 0xB2 0xC3 0xE3 0xF6 0xBF CALLVALUE 0xDD 0x28 0xB2 0x4A PUSH6 0x6EA6FB9487C8 0xC SLOAD CALLER 0xC4 PUSH5 0x736F6C6343 STOP ADDMOD SMOD STOP CALLER "
				},
				"gasEstimates": {
					"creation": {
						"codeDepositCost": "1713200",
						"executionCost": "infinite",
						"totalCost": "infinite"
					},
					"external": {
						"addDTP(string)": "infinite",
						"addDriver(string,uint8,uint32,uint32,string,string)": "infinite",
						"addDriverCar(string,uint32,uint32)": "infinite",
						"addDriverDocument(string,uint64,string)": "infinite",
						"addFine(string)": "infinite",
						"bank()": "2556",
						"buyInsurance(uint256)": "infinite",
						"driverCars(address)": "infinite",
						"driverDocNumbers(string)": "infinite",
						"driverFines(address,uint256)": "infinite",
						"driverInsurances(address)": "2924",
						"drivers(address)": "infinite",
						"insurance()": "2603",
						"insuranceLoan()": "2518",
						"logins(string)": "infinite",
						"payFine()": "infinite",
						"policeMan(address)": "2868"
					}
				},
				"methodIdentifiers": {
					"addDTP(string)": "c8507e29",
					"addDriver(string,uint8,uint32,uint32,string,string)": "0a858e90",
					"addDriverCar(string,uint32,uint32)": "d0bf012c",
					"addDriverDocument(string,uint64,string)": "141c10a5",
					"addFine(string)": "81dbc87a",
					"bank()": "76cdb03b",
					"buyInsurance(uint256)": "a86a658c",
					"driverCars(address)": "f27b9fb4",
					"driverDocNumbers(string)": "feb6eae9",
					"driverFines(address,uint256)": "b8ebab86",
					"driverInsurances(address)": "ffd57d44",
					"drivers(address)": "4aa60186",
					"insurance()": "89cf3204",
					"insuranceLoan()": "bf5fb249",
					"logins(string)": "73373d31",
					"payFine()": "6d531e83",
					"policeMan(address)": "955f0766"
				}
			},
			"storageLayout": {
				"storage": [
					{
						"astId": 32,
						"contract": "contracts/Database.sol:Database",
						"label": "bank",
						"offset": 0,
						"slot": "0",
						"type": "t_address_payable"
					},
					{
						"astId": 34,
						"contract": "contracts/Database.sol:Database",
						"label": "insurance",
						"offset": 0,
						"slot": "1",
						"type": "t_address_payable"
					},
					{
						"astId": 39,
						"contract": "contracts/Database.sol:Database",
						"label": "logins",
						"offset": 0,
						"slot": "2",
						"type": "t_mapping(t_string_memory_ptr,t_struct(LoginData)30_storage)"
					},
					{
						"astId": 43,
						"contract": "contracts/Database.sol:Database",
						"label": "driverDocNumbers",
						"offset": 0,
						"slot": "3",
						"type": "t_mapping(t_string_memory_ptr,t_address)"
					},
					{
						"astId": 48,
						"contract": "contracts/Database.sol:Database",
						"label": "drivers",
						"offset": 0,
						"slot": "4",
						"type": "t_mapping(t_address,t_struct(Driver)25_storage)"
					},
					{
						"astId": 53,
						"contract": "contracts/Database.sol:Database",
						"label": "driverCars",
						"offset": 0,
						"slot": "5",
						"type": "t_mapping(t_address,t_struct(Car)8_storage)"
					},
					{
						"astId": 57,
						"contract": "contracts/Database.sol:Database",
						"label": "policeMan",
						"offset": 0,
						"slot": "6",
						"type": "t_mapping(t_address,t_bool)"
					},
					{
						"astId": 62,
						"contract": "contracts/Database.sol:Database",
						"label": "driverFines",
						"offset": 0,
						"slot": "7",
						"type": "t_mapping(t_address,t_array(t_uint256)dyn_storage)"
					},
					{
						"astId": 66,
						"contract": "contracts/Database.sol:Database",
						"label": "driverInsurances",
						"offset": 0,
						"slot": "8",
						"type": "t_mapping(t_address,t_uint256)"
					},
					{
						"astId": 68,
						"contract": "contracts/Database.sol:Database",
						"label": "insuranceLoan",
						"offset": 0,
						"slot": "9",
						"type": "t_uint256"
					}
				],
				"types": {
					"t_address": {
						"encoding": "inplace",
						"label": "address",
						"numberOfBytes": "20"
					},
					"t_address_payable": {
						"encoding": "inplace",
						"label": "address payable",
						"numberOfBytes": "20"
					},
					"t_array(t_uint256)dyn_storage": {
						"base": "t_uint256",
						"encoding": "dynamic_array",
						"label": "uint256[]",
						"numberOfBytes": "32"
					},
					"t_bool": {
						"encoding": "inplace",
						"label": "bool",
						"numberOfBytes": "1"
					},
					"t_mapping(t_address,t_array(t_uint256)dyn_storage)": {
						"encoding": "mapping",
						"key": "t_address",
						"label": "mapping(address => uint256[])",
						"numberOfBytes": "32",
						"value": "t_array(t_uint256)dyn_storage"
					},
					"t_mapping(t_address,t_bool)": {
						"encoding": "mapping",
						"key": "t_address",
						"label": "mapping(address => bool)",
						"numberOfBytes": "32",
						"value": "t_bool"
					},
					"t_mapping(t_address,t_struct(Car)8_storage)": {
						"encoding": "mapping",
						"key": "t_address",
						"label": "mapping(address => struct Car)",
						"numberOfBytes": "32",
						"value": "t_struct(Car)8_storage"
					},
					"t_mapping(t_address,t_struct(Driver)25_storage)": {
						"encoding": "mapping",
						"key": "t_address",
						"label": "mapping(address => struct Driver)",
						"numberOfBytes": "32",
						"value": "t_struct(Driver)25_storage"
					},
					"t_mapping(t_address,t_uint256)": {
						"encoding": "mapping",
						"key": "t_address",
						"label": "mapping(address => uint256)",
						"numberOfBytes": "32",
						"value": "t_uint256"
					},
					"t_mapping(t_string_memory_ptr,t_address)": {
						"encoding": "mapping",
						"key": "t_string_memory_ptr",
						"label": "mapping(string => address)",
						"numberOfBytes": "32",
						"value": "t_address"
					},
					"t_mapping(t_string_memory_ptr,t_struct(LoginData)30_storage)": {
						"encoding": "mapping",
						"key": "t_string_memory_ptr",
						"label": "mapping(string => struct LoginData)",
						"numberOfBytes": "32",
						"value": "t_struct(LoginData)30_storage"
					},
					"t_string_memory_ptr": {
						"encoding": "bytes",
						"label": "string",
						"numberOfBytes": "32"
					},
					"t_string_storage": {
						"encoding": "bytes",
						"label": "string",
						"numberOfBytes": "32"
					},
					"t_struct(Car)8_storage": {
						"encoding": "inplace",
						"label": "struct Car",
						"members": [
							{
								"astId": 3,
								"contract": "contracts/Database.sol:Database",
								"label": "category",
								"offset": 0,
								"slot": "0",
								"type": "t_string_storage"
							},
							{
								"astId": 5,
								"contract": "contracts/Database.sol:Database",
								"label": "cost",
								"offset": 0,
								"slot": "1",
								"type": "t_uint32"
							},
							{
								"astId": 7,
								"contract": "contracts/Database.sol:Database",
								"label": "ageCount",
								"offset": 4,
								"slot": "1",
								"type": "t_uint32"
							}
						],
						"numberOfBytes": "64"
					},
					"t_struct(Document)15_storage": {
						"encoding": "inplace",
						"label": "struct Document",
						"members": [
							{
								"astId": 10,
								"contract": "contracts/Database.sol:Database",
								"label": "number",
								"offset": 0,
								"slot": "0",
								"type": "t_string_storage"
							},
							{
								"astId": 12,
								"contract": "contracts/Database.sol:Database",
								"label": "validateTime",
								"offset": 0,
								"slot": "1",
								"type": "t_uint64"
							},
							{
								"astId": 14,
								"contract": "contracts/Database.sol:Database",
								"label": "category",
								"offset": 0,
								"slot": "2",
								"type": "t_string_storage"
							}
						],
						"numberOfBytes": "96"
					},
					"t_struct(Driver)25_storage": {
						"encoding": "inplace",
						"label": "struct Driver",
						"members": [
							{
								"astId": 17,
								"contract": "contracts/Database.sol:Database",
								"label": "fio",
								"offset": 0,
								"slot": "0",
								"type": "t_string_storage"
							},
							{
								"astId": 20,
								"contract": "contracts/Database.sol:Database",
								"label": "document",
								"offset": 0,
								"slot": "1",
								"type": "t_struct(Document)15_storage"
							},
							{
								"astId": 22,
								"contract": "contracts/Database.sol:Database",
								"label": "exp",
								"offset": 0,
								"slot": "4",
								"type": "t_uint8"
							},
							{
								"astId": 24,
								"contract": "contracts/Database.sol:Database",
								"label": "dtpCount",
								"offset": 1,
								"slot": "4",
								"type": "t_uint32"
							}
						],
						"numberOfBytes": "160"
					},
					"t_struct(LoginData)30_storage": {
						"encoding": "inplace",
						"label": "struct LoginData",
						"members": [
							{
								"astId": 27,
								"contract": "contracts/Database.sol:Database",
								"label": "addr",
								"offset": 0,
								"slot": "0",
								"type": "t_address"
							},
							{
								"astId": 29,
								"contract": "contracts/Database.sol:Database",
								"label": "password",
								"offset": 0,
								"slot": "1",
								"type": "t_string_storage"
							}
						],
						"numberOfBytes": "64"
					},
					"t_uint256": {
						"encoding": "inplace",
						"label": "uint256",
						"numberOfBytes": "32"
					},
					"t_uint32": {
						"encoding": "inplace",
						"label": "uint32",
						"numberOfBytes": "4"
					},
					"t_uint64": {
						"encoding": "inplace",
						"label": "uint64",
						"numberOfBytes": "8"
					},
					"t_uint8": {
						"encoding": "inplace",
						"label": "uint8",
						"numberOfBytes": "1"
					}
				}
			},
			"userdoc": {
				"kind": "user",
				"methods": {},
				"version": 1
			}
		}
	}
}